{"abi":[{"type":"function","name":"_become","inputs":[{"name":"unitroller","type":"address","internalType":"address"}],"outputs":[],"stateMutability":"nonpayable"},{"type":"function","name":"_grantComp","inputs":[{"name":"recipient","type":"address","internalType":"address"},{"name":"amount","type":"uint256","internalType":"uint256"}],"outputs":[],"stateMutability":"nonpayable"},{"type":"function","name":"_setBorrowCapGuardian","inputs":[{"name":"newBorrowCapGuardian","type":"address","internalType":"address"}],"outputs":[],"stateMutability":"nonpayable"},{"type":"function","name":"_setBorrowPaused","inputs":[{"name":"cToken","type":"address","internalType":"contract CTokenInterface"},{"name":"state","type":"bool","internalType":"bool"}],"outputs":[{"name":"","type":"bool","internalType":"bool"}],"stateMutability":"nonpayable"},{"type":"function","name":"_setCloseFactor","inputs":[{"name":"newCloseFactorMantissa","type":"uint256","internalType":"uint256"}],"outputs":[{"name":"","type":"uint256","internalType":"uint256"}],"stateMutability":"nonpayable"},{"type":"function","name":"_setCollateralFactor","inputs":[{"name":"cToken","type":"address","internalType":"contract CTokenInterface"},{"name":"newCollateralFactorMantissa","type":"uint256","internalType":"uint256"}],"outputs":[{"name":"","type":"uint256","internalType":"uint256"}],"stateMutability":"nonpayable"},{"type":"function","name":"_setCompSpeeds","inputs":[{"name":"cTokens","type":"address[]","internalType":"contract CTokenInterface[]"},{"name":"supplySpeeds","type":"uint256[]","internalType":"uint256[]"},{"name":"borrowSpeeds","type":"uint256[]","internalType":"uint256[]"}],"outputs":[],"stateMutability":"nonpayable"},{"type":"function","name":"_setContributorCompSpeed","inputs":[{"name":"contributor","type":"address","internalType":"address"},{"name":"compSpeed","type":"uint256","internalType":"uint256"}],"outputs":[],"stateMutability":"nonpayable"},{"type":"function","name":"_setLiquidationIncentive","inputs":[{"name":"newLiquidationIncentiveMantissa","type":"uint256","internalType":"uint256"}],"outputs":[{"name":"","type":"uint256","internalType":"uint256"}],"stateMutability":"nonpayable"},{"type":"function","name":"_setMarketBorrowCaps","inputs":[{"name":"cTokens","type":"address[]","internalType":"contract CTokenInterface[]"},{"name":"newBorrowCaps","type":"uint256[]","internalType":"uint256[]"}],"outputs":[],"stateMutability":"nonpayable"},{"type":"function","name":"_setMintPaused","inputs":[{"name":"cToken","type":"address","internalType":"contract CTokenInterface"},{"name":"state","type":"bool","internalType":"bool"}],"outputs":[{"name":"","type":"bool","internalType":"bool"}],"stateMutability":"nonpayable"},{"type":"function","name":"_setPauseGuardian","inputs":[{"name":"newPauseGuardian","type":"address","internalType":"address"}],"outputs":[{"name":"","type":"uint256","internalType":"uint256"}],"stateMutability":"nonpayable"},{"type":"function","name":"_setPriceOracle","inputs":[{"name":"newOracle","type":"address","internalType":"address"}],"outputs":[{"name":"","type":"uint256","internalType":"uint256"}],"stateMutability":"nonpayable"},{"type":"function","name":"_setSeizePaused","inputs":[{"name":"state","type":"bool","internalType":"bool"}],"outputs":[{"name":"","type":"bool","internalType":"bool"}],"stateMutability":"nonpayable"},{"type":"function","name":"_setTransferPaused","inputs":[{"name":"state","type":"bool","internalType":"bool"}],"outputs":[{"name":"","type":"bool","internalType":"bool"}],"stateMutability":"nonpayable"},{"type":"function","name":"_supportMarket","inputs":[{"name":"cToken","type":"address","internalType":"contract CTokenInterface"}],"outputs":[{"name":"","type":"uint256","internalType":"uint256"}],"stateMutability":"nonpayable"},{"type":"function","name":"borrowCapGuardian","inputs":[],"outputs":[{"name":"","type":"address","internalType":"address"}],"stateMutability":"view"},{"type":"function","name":"borrowGuardianPaused","inputs":[{"name":"","type":"address","internalType":"address"}],"outputs":[{"name":"","type":"bool","internalType":"bool"}],"stateMutability":"nonpayable"},{"type":"function","name":"claimComp","inputs":[{"name":"holder","type":"address","internalType":"address"}],"outputs":[],"stateMutability":"nonpayable"},{"type":"function","name":"closeFactorMantissa","inputs":[],"outputs":[{"name":"","type":"uint256","internalType":"uint256"}],"stateMutability":"view"},{"type":"function","name":"compAccrued","inputs":[{"name":"","type":"address","internalType":"address"}],"outputs":[{"name":"","type":"uint256","internalType":"uint256"}],"stateMutability":"nonpayable"},{"type":"function","name":"compBorrowSpeeds","inputs":[{"name":"","type":"address","internalType":"address"}],"outputs":[{"name":"","type":"uint256","internalType":"uint256"}],"stateMutability":"nonpayable"},{"type":"function","name":"compBorrowState","inputs":[{"name":"","type":"address","internalType":"address"}],"outputs":[{"name":"","type":"uint256","internalType":"uint256"},{"name":"","type":"uint256","internalType":"uint256"}],"stateMutability":"nonpayable"},{"type":"function","name":"compBorrowerIndex","inputs":[{"name":"market","type":"address","internalType":"address"},{"name":"borrower","type":"address","internalType":"address"}],"outputs":[{"name":"","type":"uint256","internalType":"uint256"}],"stateMutability":"nonpayable"},{"type":"function","name":"compContributorSpeeds","inputs":[{"name":"","type":"address","internalType":"address"}],"outputs":[{"name":"","type":"uint256","internalType":"uint256"}],"stateMutability":"nonpayable"},{"type":"function","name":"compSupplierIndex","inputs":[{"name":"market","type":"address","internalType":"address"},{"name":"supplier","type":"address","internalType":"address"}],"outputs":[{"name":"","type":"uint256","internalType":"uint256"}],"stateMutability":"nonpayable"},{"type":"function","name":"compSupplySpeeds","inputs":[{"name":"","type":"address","internalType":"address"}],"outputs":[{"name":"","type":"uint256","internalType":"uint256"}],"stateMutability":"nonpayable"},{"type":"function","name":"compSupplyState","inputs":[{"name":"","type":"address","internalType":"address"}],"outputs":[{"name":"","type":"uint256","internalType":"uint256"},{"name":"","type":"uint256","internalType":"uint256"}],"stateMutability":"nonpayable"},{"type":"function","name":"enterMarkets","inputs":[{"name":"cTokens","type":"address[]","internalType":"address[]"}],"outputs":[{"name":"","type":"uint256[]","internalType":"uint256[]"}],"stateMutability":"nonpayable"},{"type":"function","name":"exitMarket","inputs":[{"name":"","type":"address","internalType":"address"}],"outputs":[{"name":"","type":"uint256","internalType":"uint256"}],"stateMutability":"nonpayable"},{"type":"function","name":"getAccountLiquidity","inputs":[{"name":"account","type":"address","internalType":"address"}],"outputs":[{"name":"","type":"uint256","internalType":"uint256"},{"name":"","type":"uint256","internalType":"uint256"},{"name":"","type":"uint256","internalType":"uint256"}],"stateMutability":"view"},{"type":"function","name":"getAllMarkets","inputs":[],"outputs":[{"name":"","type":"address[]","internalType":"address[]"}],"stateMutability":"view"},{"type":"function","name":"getAssetsIn","inputs":[{"name":"account","type":"address","internalType":"address"}],"outputs":[{"name":"","type":"address[]","internalType":"address[]"}],"stateMutability":"view"},{"type":"function","name":"isComptroller","inputs":[],"outputs":[{"name":"","type":"bool","internalType":"bool"}],"stateMutability":"view"},{"type":"function","name":"liquidateCalculateSeizeTokens","inputs":[{"name":"cTokenBorrowed","type":"address","internalType":"address"},{"name":"cTokenCollateral","type":"address","internalType":"address"},{"name":"repayAmount","type":"uint256","internalType":"uint256"}],"outputs":[{"name":"","type":"uint256","internalType":"uint256"},{"name":"","type":"uint256","internalType":"uint256"}],"stateMutability":"view"},{"type":"function","name":"liquidationIncentiveMantissa","inputs":[],"outputs":[{"name":"","type":"uint256","internalType":"uint256"}],"stateMutability":"view"},{"type":"function","name":"markets","inputs":[{"name":"cToken","type":"address","internalType":"address"}],"outputs":[{"name":"","type":"bool","internalType":"bool"},{"name":"","type":"uint256","internalType":"uint256"},{"name":"","type":"bool","internalType":"bool"}],"stateMutability":"view"},{"type":"function","name":"mintGuardianPaused","inputs":[{"name":"","type":"address","internalType":"address"}],"outputs":[{"name":"","type":"bool","internalType":"bool"}],"stateMutability":"nonpayable"},{"type":"function","name":"oracle","inputs":[],"outputs":[{"name":"","type":"address","internalType":"address"}],"stateMutability":"nonpayable"},{"type":"function","name":"pauseGuardian","inputs":[],"outputs":[{"name":"","type":"address","internalType":"address"}],"stateMutability":"view"},{"type":"function","name":"reserveFactorMantissa","inputs":[],"outputs":[{"name":"","type":"uint256","internalType":"uint256"}],"stateMutability":"view"},{"type":"function","name":"seizeGuardianPaused","inputs":[],"outputs":[{"name":"","type":"bool","internalType":"bool"}],"stateMutability":"nonpayable"},{"type":"function","name":"transferGuardianPaused","inputs":[],"outputs":[{"name":"","type":"bool","internalType":"bool"}],"stateMutability":"nonpayable"},{"type":"function","name":"updateContributorRewards","inputs":[{"name":"contributor","type":"address","internalType":"address"}],"outputs":[],"stateMutability":"nonpayable"}],"bytecode":{"object":"0x6080604052348015600f57600080fd5b50610b6b8061001f6000396000f3fe608060405234801561001057600080fd5b50600436106102735760003560e01c8063741b252511610151578063b0772d0b116100c3578063cc7ebdc411610087578063cc7ebdc414610325578063e4028eee14610464578063e875544614610295578063e9af029214610314578063ede4edd014610325578063f4a433c01461032557600080fd5b8063b0772d0b1461041b578063b21be7fd14610422578063c299823814610430578063c488847b1461044b578063ca0af0431461042257600080fd5b80638ebf6364116101155780638ebf6364146102f2578063986ab83814610325578063a76b3fda14610325578063a8b43948146103e7578063abfceffc146103fa578063ac0b0bb7146103b357600080fd5b8063741b2525146103145780637dc0d1d0146102d157806387f76303146103b35780638c57804e1461037a5780638e8f294b146103ba57600080fd5b80634ada90af116101ea5780635f5af1aa116101ae5780635f5af1aa14610325578063607ef6c1146103665780636aa875b5146103255780636b79c38d1461037a5780636d154ea5146103a5578063731f0c2b146103a557600080fd5b80634ada90af146102955780634fd42e171461030657806355ee1fe114610325578063598ee1cb146102e05780635ec88c791461033357600080fd5b806324a3d6221161023c57806324a3d622146102d157806327efe3cb146102e05780632d70db78146102f2578063317b0b7714610306578063391957d7146103145780633bcf7ec1146102a657600080fd5b80627e3dd214610278578063173b99041461029557806318c882a5146102a65780631d504dc6146102bc57806321af4569146102d1575b600080fd5b610280600181565b60405190151581526020015b60405180910390f35b60005b60405190815260200161028c565b6102806102b436600461061e565b600092915050565b6102cf6102ca366004610653565b610472565b005b6040516000815260200161028c565b6102cf6102ee366004610677565b5050565b6102806103003660046106a3565b50600090565b6102986103003660046106be565b6102cf610322366004610653565b50565b610298610300366004610653565b61034b610341366004610653565b5060009081908190565b6040805193845260208401929092529082015260600161028c565b6102cf610374366004610723565b50505050565b610390610388366004610653565b600080915091565b6040805192835260208301919091520161028c565b610280610300366004610653565b6000610280565b6103c8610341366004610653565b604080519315158452602084019290925215159082015260600161028c565b6102cf6103f536600461086c565b505050565b61040e610408366004610653565b50606090565b60405161028c9190610962565b606061040e565b6102986102b43660046109ae565b61043e6104083660046109e7565b60405161028c9190610a86565b610390610459366004610abe565b600080935093915050565b6102986102b4366004610677565b806001600160a01b031663f851a4406040518163ffffffff1660e01b81526004016020604051808303816000875af11580156104b2573d6000803e3d6000fd5b505050506040513d601f19601f820116820180604052508101906104d69190610aff565b6001600160a01b0316336001600160a01b03161461054b5760405162461bcd60e51b815260206004820152602760248201527f6f6e6c7920756e6974726f6c6c65722061646d696e2063616e206368616e676560448201526620627261696e7360c81b60648201526084015b60405180910390fd5b806001600160a01b031663c1e803346040518163ffffffff1660e01b81526004016020604051808303816000875af115801561058b573d6000803e3d6000fd5b505050506040513d601f19601f820116820180604052508101906105af9190610b1c565b156103225760405162461bcd60e51b815260206004820152601560248201527418da185b99d9481b9bdd08185d5d1a1bdc9a5e9959605a1b6044820152606401610542565b6001600160a01b038116811461032257600080fd5b8035801515811461061957600080fd5b919050565b6000806040838503121561063157600080fd5b823561063c816105f4565b915061064a60208401610609565b90509250929050565b60006020828403121561066557600080fd5b8135610670816105f4565b9392505050565b6000806040838503121561068a57600080fd5b8235610695816105f4565b946020939093013593505050565b6000602082840312156106b557600080fd5b61067082610609565b6000602082840312156106d057600080fd5b5035919050565b60008083601f8401126106e957600080fd5b50813567ffffffffffffffff81111561070157600080fd5b6020830191508360208260051b850101111561071c57600080fd5b9250929050565b6000806000806040858703121561073957600080fd5b843567ffffffffffffffff81111561075057600080fd5b61075c878288016106d7565b909550935050602085013567ffffffffffffffff81111561077c57600080fd5b610788878288016106d7565b95989497509550505050565b634e487b7160e01b600052604160045260246000fd5b604051601f8201601f1916810167ffffffffffffffff811182821017156107d3576107d3610794565b604052919050565b600067ffffffffffffffff8211156107f5576107f5610794565b5060051b60200190565b600082601f83011261081057600080fd5b813561082361081e826107db565b6107aa565b8082825260208201915060208360051b86010192508583111561084557600080fd5b602085015b8381101561086257803583526020928301920161084a565b5095945050505050565b60008060006060848603121561088157600080fd5b833567ffffffffffffffff81111561089857600080fd5b8401601f810186136108a957600080fd5b80356108b761081e826107db565b8082825260208201915060208360051b8501019250888311156108d957600080fd5b6020840193505b828410156109045783356108f3816105f4565b8252602093840193909101906108e0565b9550505050602084013567ffffffffffffffff81111561092357600080fd5b61092f868287016107ff565b925050604084013567ffffffffffffffff81111561094c57600080fd5b610958868287016107ff565b9150509250925092565b602080825282518282018190526000918401906040840190835b818110156109a35783516001600160a01b031683526020938401939092019160010161097c565b509095945050505050565b600080604083850312156109c157600080fd5b82356109cc816105f4565b915060208301356109dc816105f4565b809150509250929050565b6000602082840312156109f957600080fd5b813567ffffffffffffffff811115610a1057600080fd5b8201601f81018413610a2157600080fd5b8035610a2f61081e826107db565b8082825260208201915060208360051b850101925086831115610a5157600080fd5b6020840193505b82841015610a7c578335610a6b816105f4565b825260209384019390910190610a58565b9695505050505050565b602080825282518282018190526000918401906040840190835b818110156109a3578351835260209384019390920191600101610aa0565b600080600060608486031215610ad357600080fd5b8335610ade816105f4565b92506020840135610aee816105f4565b929592945050506040919091013590565b600060208284031215610b1157600080fd5b8151610670816105f4565b600060208284031215610b2e57600080fd5b505191905056fea2646970667358221220c44cfe51dc4f9bc81a37dddd80be05a65744648edc55a45465e142eb0f46d05e64736f6c634300081a0033","linkReferences":{}},"methodIdentifiers":{"_become(address)":"1d504dc6","_grantComp(address,uint256)":"27efe3cb","_setBorrowCapGuardian(address)":"391957d7","_setBorrowPaused(address,bool)":"18c882a5","_setCloseFactor(uint256)":"317b0b77","_setCollateralFactor(address,uint256)":"e4028eee","_setCompSpeeds(address[],uint256[],uint256[])":"a8b43948","_setContributorCompSpeed(address,uint256)":"598ee1cb","_setLiquidationIncentive(uint256)":"4fd42e17","_setMarketBorrowCaps(address[],uint256[])":"607ef6c1","_setMintPaused(address,bool)":"3bcf7ec1","_setPauseGuardian(address)":"5f5af1aa","_setPriceOracle(address)":"55ee1fe1","_setSeizePaused(bool)":"2d70db78","_setTransferPaused(bool)":"8ebf6364","_supportMarket(address)":"a76b3fda","borrowCapGuardian()":"21af4569","borrowGuardianPaused(address)":"6d154ea5","claimComp(address)":"e9af0292","closeFactorMantissa()":"e8755446","compAccrued(address)":"cc7ebdc4","compBorrowSpeeds(address)":"f4a433c0","compBorrowState(address)":"8c57804e","compBorrowerIndex(address,address)":"ca0af043","compContributorSpeeds(address)":"986ab838","compSupplierIndex(address,address)":"b21be7fd","compSupplySpeeds(address)":"6aa875b5","compSupplyState(address)":"6b79c38d","enterMarkets(address[])":"c2998238","exitMarket(address)":"ede4edd0","getAccountLiquidity(address)":"5ec88c79","getAllMarkets()":"b0772d0b","getAssetsIn(address)":"abfceffc","isComptroller()":"007e3dd2","liquidateCalculateSeizeTokens(address,address,uint256)":"c488847b","liquidationIncentiveMantissa()":"4ada90af","markets(address)":"8e8f294b","mintGuardianPaused(address)":"731f0c2b","oracle()":"7dc0d1d0","pauseGuardian()":"24a3d622","reserveFactorMantissa()":"173b9904","seizeGuardianPaused()":"ac0b0bb7","transferGuardianPaused()":"87f76303","updateContributorRewards(address)":"741b2525"},"id":22}