{"abi":[{"type":"function","name":"_become","inputs":[{"name":"unitroller","type":"address","internalType":"address"}],"outputs":[],"stateMutability":"nonpayable"},{"type":"function","name":"_grantComp","inputs":[{"name":"recipient","type":"address","internalType":"address"},{"name":"amount","type":"uint256","internalType":"uint256"}],"outputs":[],"stateMutability":"nonpayable"},{"type":"function","name":"_setBorrowCapGuardian","inputs":[{"name":"newBorrowCapGuardian","type":"address","internalType":"address"}],"outputs":[],"stateMutability":"nonpayable"},{"type":"function","name":"_setBorrowPaused","inputs":[{"name":"cToken","type":"address","internalType":"contract CTokenInterface"},{"name":"state","type":"bool","internalType":"bool"}],"outputs":[{"name":"","type":"bool","internalType":"bool"}],"stateMutability":"nonpayable"},{"type":"function","name":"_setCloseFactor","inputs":[{"name":"newCloseFactorMantissa","type":"uint256","internalType":"uint256"}],"outputs":[{"name":"","type":"uint256","internalType":"uint256"}],"stateMutability":"nonpayable"},{"type":"function","name":"_setCollateralFactor","inputs":[{"name":"cToken","type":"address","internalType":"contract CTokenInterface"},{"name":"newCollateralFactorMantissa","type":"uint256","internalType":"uint256"}],"outputs":[{"name":"","type":"uint256","internalType":"uint256"}],"stateMutability":"nonpayable"},{"type":"function","name":"_setCompSpeeds","inputs":[{"name":"cTokens","type":"address[]","internalType":"contract CTokenInterface[]"},{"name":"supplySpeeds","type":"uint256[]","internalType":"uint256[]"},{"name":"borrowSpeeds","type":"uint256[]","internalType":"uint256[]"}],"outputs":[],"stateMutability":"nonpayable"},{"type":"function","name":"_setContributorCompSpeed","inputs":[{"name":"contributor","type":"address","internalType":"address"},{"name":"compSpeed","type":"uint256","internalType":"uint256"}],"outputs":[],"stateMutability":"nonpayable"},{"type":"function","name":"_setLiquidationIncentive","inputs":[{"name":"newLiquidationIncentiveMantissa","type":"uint256","internalType":"uint256"}],"outputs":[{"name":"","type":"uint256","internalType":"uint256"}],"stateMutability":"nonpayable"},{"type":"function","name":"_setMarketBorrowCaps","inputs":[{"name":"cTokens","type":"address[]","internalType":"contract CTokenInterface[]"},{"name":"newBorrowCaps","type":"uint256[]","internalType":"uint256[]"}],"outputs":[],"stateMutability":"nonpayable"},{"type":"function","name":"_setMintPaused","inputs":[{"name":"cToken","type":"address","internalType":"contract CTokenInterface"},{"name":"state","type":"bool","internalType":"bool"}],"outputs":[{"name":"","type":"bool","internalType":"bool"}],"stateMutability":"nonpayable"},{"type":"function","name":"_setPauseGuardian","inputs":[{"name":"newPauseGuardian","type":"address","internalType":"address"}],"outputs":[{"name":"","type":"uint256","internalType":"uint256"}],"stateMutability":"nonpayable"},{"type":"function","name":"_setPriceOracle","inputs":[{"name":"newOracle","type":"address","internalType":"address"}],"outputs":[{"name":"","type":"uint256","internalType":"uint256"}],"stateMutability":"nonpayable"},{"type":"function","name":"_setSeizePaused","inputs":[{"name":"state","type":"bool","internalType":"bool"}],"outputs":[{"name":"","type":"bool","internalType":"bool"}],"stateMutability":"nonpayable"},{"type":"function","name":"_setTransferPaused","inputs":[{"name":"state","type":"bool","internalType":"bool"}],"outputs":[{"name":"","type":"bool","internalType":"bool"}],"stateMutability":"nonpayable"},{"type":"function","name":"_supportMarket","inputs":[{"name":"cToken","type":"address","internalType":"contract CTokenInterface"}],"outputs":[{"name":"","type":"uint256","internalType":"uint256"}],"stateMutability":"nonpayable"},{"type":"function","name":"borrowAllowed","inputs":[{"name":"cToken","type":"address","internalType":"address"},{"name":"borrower","type":"address","internalType":"address"},{"name":"borrowAmount","type":"uint256","internalType":"uint256"}],"outputs":[{"name":"","type":"uint256","internalType":"uint256"}],"stateMutability":"nonpayable"},{"type":"function","name":"borrowCapGuardian","inputs":[],"outputs":[{"name":"","type":"address","internalType":"address"}],"stateMutability":"view"},{"type":"function","name":"borrowGuardianPaused","inputs":[{"name":"","type":"address","internalType":"address"}],"outputs":[{"name":"","type":"bool","internalType":"bool"}],"stateMutability":"nonpayable"},{"type":"function","name":"checkMembership","inputs":[{"name":"account","type":"address","internalType":"address"},{"name":"cToken","type":"address","internalType":"address"}],"outputs":[{"name":"","type":"bool","internalType":"bool"}],"stateMutability":"view"},{"type":"function","name":"claimComp","inputs":[{"name":"holder","type":"address","internalType":"address"}],"outputs":[],"stateMutability":"nonpayable"},{"type":"function","name":"closeFactorMantissa","inputs":[],"outputs":[{"name":"","type":"uint256","internalType":"uint256"}],"stateMutability":"view"},{"type":"function","name":"compAccrued","inputs":[{"name":"","type":"address","internalType":"address"}],"outputs":[{"name":"","type":"uint256","internalType":"uint256"}],"stateMutability":"nonpayable"},{"type":"function","name":"compBorrowSpeeds","inputs":[{"name":"","type":"address","internalType":"address"}],"outputs":[{"name":"","type":"uint256","internalType":"uint256"}],"stateMutability":"nonpayable"},{"type":"function","name":"compBorrowState","inputs":[{"name":"","type":"address","internalType":"address"}],"outputs":[{"name":"","type":"uint256","internalType":"uint256"},{"name":"","type":"uint256","internalType":"uint256"}],"stateMutability":"nonpayable"},{"type":"function","name":"compBorrowerIndex","inputs":[{"name":"market","type":"address","internalType":"address"},{"name":"borrower","type":"address","internalType":"address"}],"outputs":[{"name":"","type":"uint256","internalType":"uint256"}],"stateMutability":"nonpayable"},{"type":"function","name":"compContributorSpeeds","inputs":[{"name":"","type":"address","internalType":"address"}],"outputs":[{"name":"","type":"uint256","internalType":"uint256"}],"stateMutability":"nonpayable"},{"type":"function","name":"compSupplierIndex","inputs":[{"name":"market","type":"address","internalType":"address"},{"name":"supplier","type":"address","internalType":"address"}],"outputs":[{"name":"","type":"uint256","internalType":"uint256"}],"stateMutability":"nonpayable"},{"type":"function","name":"compSupplySpeeds","inputs":[{"name":"","type":"address","internalType":"address"}],"outputs":[{"name":"","type":"uint256","internalType":"uint256"}],"stateMutability":"nonpayable"},{"type":"function","name":"compSupplyState","inputs":[{"name":"","type":"address","internalType":"address"}],"outputs":[{"name":"","type":"uint256","internalType":"uint256"},{"name":"","type":"uint256","internalType":"uint256"}],"stateMutability":"nonpayable"},{"type":"function","name":"enterMarkets","inputs":[{"name":"cTokens","type":"address[]","internalType":"address[]"}],"outputs":[{"name":"","type":"uint256[]","internalType":"uint256[]"}],"stateMutability":"nonpayable"},{"type":"function","name":"exitMarket","inputs":[{"name":"","type":"address","internalType":"address"}],"outputs":[{"name":"","type":"uint256","internalType":"uint256"}],"stateMutability":"nonpayable"},{"type":"function","name":"getAccountLiquidity","inputs":[{"name":"account","type":"address","internalType":"address"}],"outputs":[{"name":"","type":"uint256","internalType":"uint256"},{"name":"","type":"uint256","internalType":"uint256"},{"name":"","type":"uint256","internalType":"uint256"}],"stateMutability":"view"},{"type":"function","name":"getAllMarkets","inputs":[],"outputs":[{"name":"","type":"address[]","internalType":"address[]"}],"stateMutability":"view"},{"type":"function","name":"getAssetsIn","inputs":[{"name":"account","type":"address","internalType":"address"}],"outputs":[{"name":"","type":"address[]","internalType":"address[]"}],"stateMutability":"view"},{"type":"function","name":"getHypotheticalAccountLiquidity","inputs":[{"name":"account","type":"address","internalType":"address"},{"name":"vTokenModify","type":"address","internalType":"address"},{"name":"redeemTokens","type":"uint256","internalType":"uint256"},{"name":"borrowAmount","type":"uint256","internalType":"uint256"}],"outputs":[{"name":"","type":"uint256","internalType":"uint256"},{"name":"","type":"uint256","internalType":"uint256"},{"name":"","type":"uint256","internalType":"uint256"}],"stateMutability":"view"},{"type":"function","name":"isComptroller","inputs":[],"outputs":[{"name":"","type":"bool","internalType":"bool"}],"stateMutability":"view"},{"type":"function","name":"liquidateBorrowAllowed","inputs":[{"name":"cTokenBorrowed","type":"address","internalType":"address"},{"name":"cTokenCollateral","type":"address","internalType":"address"},{"name":"liquidator","type":"address","internalType":"address"},{"name":"borrower","type":"address","internalType":"address"},{"name":"repayAmount","type":"uint256","internalType":"uint256"}],"outputs":[{"name":"","type":"uint256","internalType":"uint256"}],"stateMutability":"nonpayable"},{"type":"function","name":"liquidateCalculateSeizeTokens","inputs":[{"name":"cTokenBorrowed","type":"address","internalType":"address"},{"name":"cTokenCollateral","type":"address","internalType":"address"},{"name":"repayAmount","type":"uint256","internalType":"uint256"}],"outputs":[{"name":"","type":"uint256","internalType":"uint256"},{"name":"","type":"uint256","internalType":"uint256"}],"stateMutability":"view"},{"type":"function","name":"liquidationIncentiveMantissa","inputs":[],"outputs":[{"name":"","type":"uint256","internalType":"uint256"}],"stateMutability":"view"},{"type":"function","name":"markets","inputs":[{"name":"cToken","type":"address","internalType":"address"}],"outputs":[{"name":"","type":"bool","internalType":"bool"},{"name":"","type":"uint256","internalType":"uint256"},{"name":"","type":"bool","internalType":"bool"}],"stateMutability":"view"},{"type":"function","name":"mintAllowed","inputs":[{"name":"cToken","type":"address","internalType":"address"},{"name":"minter","type":"address","internalType":"address"},{"name":"mintAmount","type":"uint256","internalType":"uint256"}],"outputs":[{"name":"","type":"uint256","internalType":"uint256"}],"stateMutability":"nonpayable"},{"type":"function","name":"mintGuardianPaused","inputs":[{"name":"","type":"address","internalType":"address"}],"outputs":[{"name":"","type":"bool","internalType":"bool"}],"stateMutability":"nonpayable"},{"type":"function","name":"oracle","inputs":[],"outputs":[{"name":"","type":"address","internalType":"address"}],"stateMutability":"nonpayable"},{"type":"function","name":"pauseGuardian","inputs":[],"outputs":[{"name":"","type":"address","internalType":"address"}],"stateMutability":"view"},{"type":"function","name":"redeemAllowed","inputs":[{"name":"cToken","type":"address","internalType":"address"},{"name":"redeemer","type":"address","internalType":"address"},{"name":"redeemTokens","type":"uint256","internalType":"uint256"}],"outputs":[{"name":"","type":"uint256","internalType":"uint256"}],"stateMutability":"nonpayable"},{"type":"function","name":"repayBorrowAllowed","inputs":[{"name":"cToken","type":"address","internalType":"address"},{"name":"payer","type":"address","internalType":"address"},{"name":"borrower","type":"address","internalType":"address"},{"name":"repayAmount","type":"uint256","internalType":"uint256"}],"outputs":[{"name":"","type":"uint256","internalType":"uint256"}],"stateMutability":"nonpayable"},{"type":"function","name":"reserveFactorMantissa","inputs":[],"outputs":[{"name":"","type":"uint256","internalType":"uint256"}],"stateMutability":"view"},{"type":"function","name":"seizeGuardianPaused","inputs":[],"outputs":[{"name":"","type":"bool","internalType":"bool"}],"stateMutability":"nonpayable"},{"type":"function","name":"transferGuardianPaused","inputs":[],"outputs":[{"name":"","type":"bool","internalType":"bool"}],"stateMutability":"nonpayable"},{"type":"function","name":"updateContributorRewards","inputs":[{"name":"contributor","type":"address","internalType":"address"}],"outputs":[],"stateMutability":"nonpayable"}],"bytecode":{"object":"0x6080604052348015600f57600080fd5b50610d568061001f6000396000f3fe608060405234801561001057600080fd5b50600436106102f05760003560e01c8063731f0c2b1161019d578063b0772d0b116100e9578063da3d454c116100a2578063e9af02921161007c578063e9af0292146103a9578063eabe7d91146103f2578063ede4edd014610409578063f4a433c01461040957600080fd5b8063da3d454c146103f2578063e4028eee14610554578063e87554461461031257600080fd5b8063b0772d0b1461050b578063b21be7fd14610512578063c299823814610520578063c488847b1461053b578063ca0af04314610512578063cc7ebdc41461040957600080fd5b80638ebf636411610156578063a76b3fda11610130578063a76b3fda14610409578063a8b43948146104d7578063abfceffc146104ea578063ac0b0bb71461049557600080fd5b80638ebf636414610387578063929fe9a1146104c9578063986ab8381461040957600080fd5b8063731f0c2b14610487578063741b2525146103a95780637dc0d1d01461034e57806387f76303146104955780638c57804e1461045c5780638e8f294b1461049c57600080fd5b80634ada90af1161025c5780635ec88c7911610215578063607ef6c1116101ef578063607ef6c1146104485780636aa875b5146104095780636b79c38d1461045c5780636d154ea51461048757600080fd5b80635ec88c79146104175780635f5af1aa146104095780635fc7e71e1461042f57600080fd5b80634ada90af146103125780634e79238f146103ba5780634ef4c3e1146103f25780634fd42e171461039b57806355ee1fe114610409578063598ee1cb1461037557600080fd5b806324a3d622116102ae57806324a3d6221461034e57806327efe3cb146103755780632d70db7814610387578063317b0b771461039b578063391957d7146103a95780633bcf7ec11461032357600080fd5b80627e3dd2146102f5578063173b99041461031257806318c882a5146103235780631d504dc61461033957806321af45691461034e57806324008a621461035d575b600080fd5b6102fd600181565b60405190151581526020015b60405180910390f35b60005b604051908152602001610309565b6102fd61033136600461070e565b600092915050565b61034c610347366004610743565b610562565b005b60405160008152602001610309565b61031561036b366004610767565b6000949350505050565b61034c6103833660046107b8565b5050565b6102fd6103953660046107e4565b50600090565b6103156103953660046107ff565b61034c6103b7366004610743565b50565b6103d76103c8366004610818565b60008060009450945094915050565b60408051938452602084019290925290820152606001610309565b61031561040036600461085e565b60009392505050565b610315610395366004610743565b6103d7610425366004610743565b5060009081908190565b61031561043d36600461089f565b600095945050505050565b61034c61045636600461094f565b50505050565b61047261046a366004610743565b600080915091565b60408051928352602083019190915201610309565b6102fd610395366004610743565b60006102fd565b6104aa610425366004610743565b6040805193151584526020840192909252151590820152606001610309565b6102fd6103313660046109c0565b61034c6104e5366004610ad1565b505050565b6104fe6104f8366004610743565b50606090565b6040516103099190610bc7565b60606104fe565b6103156103313660046109c0565b61052e6104f8366004610c13565b6040516103099190610cb2565b61047261054936600461085e565b600080935093915050565b6103156103313660046107b8565b806001600160a01b031663f851a4406040518163ffffffff1660e01b81526004016020604051808303816000875af11580156105a2573d6000803e3d6000fd5b505050506040513d601f19601f820116820180604052508101906105c69190610cea565b6001600160a01b0316336001600160a01b03161461063b5760405162461bcd60e51b815260206004820152602760248201527f6f6e6c7920756e6974726f6c6c65722061646d696e2063616e206368616e676560448201526620627261696e7360c81b60648201526084015b60405180910390fd5b806001600160a01b031663c1e803346040518163ffffffff1660e01b81526004016020604051808303816000875af115801561067b573d6000803e3d6000fd5b505050506040513d601f19601f8201168201806040525081019061069f9190610d07565b156103b75760405162461bcd60e51b815260206004820152601560248201527418da185b99d9481b9bdd08185d5d1a1bdc9a5e9959605a1b6044820152606401610632565b6001600160a01b03811681146103b757600080fd5b8035801515811461070957600080fd5b919050565b6000806040838503121561072157600080fd5b823561072c816106e4565b915061073a602084016106f9565b90509250929050565b60006020828403121561075557600080fd5b8135610760816106e4565b9392505050565b6000806000806080858703121561077d57600080fd5b8435610788816106e4565b93506020850135610798816106e4565b925060408501356107a8816106e4565b9396929550929360600135925050565b600080604083850312156107cb57600080fd5b82356107d6816106e4565b946020939093013593505050565b6000602082840312156107f657600080fd5b610760826106f9565b60006020828403121561081157600080fd5b5035919050565b6000806000806080858703121561082e57600080fd5b8435610839816106e4565b93506020850135610849816106e4565b93969395505050506040820135916060013590565b60008060006060848603121561087357600080fd5b833561087e816106e4565b9250602084013561088e816106e4565b929592945050506040919091013590565b600080600080600060a086880312156108b757600080fd5b85356108c2816106e4565b945060208601356108d2816106e4565b935060408601356108e2816106e4565b925060608601356108f2816106e4565b949793965091946080013592915050565b60008083601f84011261091557600080fd5b50813567ffffffffffffffff81111561092d57600080fd5b6020830191508360208260051b850101111561094857600080fd5b9250929050565b6000806000806040858703121561096557600080fd5b843567ffffffffffffffff81111561097c57600080fd5b61098887828801610903565b909550935050602085013567ffffffffffffffff8111156109a857600080fd5b6109b487828801610903565b95989497509550505050565b600080604083850312156109d357600080fd5b82356109de816106e4565b915060208301356109ee816106e4565b809150509250929050565b634e487b7160e01b600052604160045260246000fd5b604051601f8201601f1916810167ffffffffffffffff81118282101715610a3857610a386109f9565b604052919050565b600067ffffffffffffffff821115610a5a57610a5a6109f9565b5060051b60200190565b600082601f830112610a7557600080fd5b8135610a88610a8382610a40565b610a0f565b8082825260208201915060208360051b860101925085831115610aaa57600080fd5b602085015b83811015610ac7578035835260209283019201610aaf565b5095945050505050565b600080600060608486031215610ae657600080fd5b833567ffffffffffffffff811115610afd57600080fd5b8401601f81018613610b0e57600080fd5b8035610b1c610a8382610a40565b8082825260208201915060208360051b850101925088831115610b3e57600080fd5b6020840193505b82841015610b69578335610b58816106e4565b825260209384019390910190610b45565b9550505050602084013567ffffffffffffffff811115610b8857600080fd5b610b9486828701610a64565b925050604084013567ffffffffffffffff811115610bb157600080fd5b610bbd86828701610a64565b9150509250925092565b602080825282518282018190526000918401906040840190835b81811015610c085783516001600160a01b0316835260209384019390920191600101610be1565b509095945050505050565b600060208284031215610c2557600080fd5b813567ffffffffffffffff811115610c3c57600080fd5b8201601f81018413610c4d57600080fd5b8035610c5b610a8382610a40565b8082825260208201915060208360051b850101925086831115610c7d57600080fd5b6020840193505b82841015610ca8578335610c97816106e4565b825260209384019390910190610c84565b9695505050505050565b602080825282518282018190526000918401906040840190835b81811015610c08578351835260209384019390920191600101610ccc565b600060208284031215610cfc57600080fd5b8151610760816106e4565b600060208284031215610d1957600080fd5b505191905056fea2646970667358221220c2bf6048d0c9baec694178f6cf8207cbcda88d6716ba9f7befeb0e5c0a925a6764736f6c634300081a0033","linkReferences":{}},"methodIdentifiers":{"_become(address)":"1d504dc6","_grantComp(address,uint256)":"27efe3cb","_setBorrowCapGuardian(address)":"391957d7","_setBorrowPaused(address,bool)":"18c882a5","_setCloseFactor(uint256)":"317b0b77","_setCollateralFactor(address,uint256)":"e4028eee","_setCompSpeeds(address[],uint256[],uint256[])":"a8b43948","_setContributorCompSpeed(address,uint256)":"598ee1cb","_setLiquidationIncentive(uint256)":"4fd42e17","_setMarketBorrowCaps(address[],uint256[])":"607ef6c1","_setMintPaused(address,bool)":"3bcf7ec1","_setPauseGuardian(address)":"5f5af1aa","_setPriceOracle(address)":"55ee1fe1","_setSeizePaused(bool)":"2d70db78","_setTransferPaused(bool)":"8ebf6364","_supportMarket(address)":"a76b3fda","borrowAllowed(address,address,uint256)":"da3d454c","borrowCapGuardian()":"21af4569","borrowGuardianPaused(address)":"6d154ea5","checkMembership(address,address)":"929fe9a1","claimComp(address)":"e9af0292","closeFactorMantissa()":"e8755446","compAccrued(address)":"cc7ebdc4","compBorrowSpeeds(address)":"f4a433c0","compBorrowState(address)":"8c57804e","compBorrowerIndex(address,address)":"ca0af043","compContributorSpeeds(address)":"986ab838","compSupplierIndex(address,address)":"b21be7fd","compSupplySpeeds(address)":"6aa875b5","compSupplyState(address)":"6b79c38d","enterMarkets(address[])":"c2998238","exitMarket(address)":"ede4edd0","getAccountLiquidity(address)":"5ec88c79","getAllMarkets()":"b0772d0b","getAssetsIn(address)":"abfceffc","getHypotheticalAccountLiquidity(address,address,uint256,uint256)":"4e79238f","isComptroller()":"007e3dd2","liquidateBorrowAllowed(address,address,address,address,uint256)":"5fc7e71e","liquidateCalculateSeizeTokens(address,address,uint256)":"c488847b","liquidationIncentiveMantissa()":"4ada90af","markets(address)":"8e8f294b","mintAllowed(address,address,uint256)":"4ef4c3e1","mintGuardianPaused(address)":"731f0c2b","oracle()":"7dc0d1d0","pauseGuardian()":"24a3d622","redeemAllowed(address,address,uint256)":"eabe7d91","repayBorrowAllowed(address,address,address,uint256)":"24008a62","reserveFactorMantissa()":"173b9904","seizeGuardianPaused()":"ac0b0bb7","transferGuardianPaused()":"87f76303","updateContributorRewards(address)":"741b2525"},"id":15}