{"abi":[{"type":"function","name":"_become","inputs":[{"name":"unitroller","type":"address","internalType":"address"}],"outputs":[],"stateMutability":"nonpayable"},{"type":"function","name":"_grantComp","inputs":[{"name":"recipient","type":"address","internalType":"address"},{"name":"amount","type":"uint256","internalType":"uint256"}],"outputs":[],"stateMutability":"nonpayable"},{"type":"function","name":"_setBorrowCapGuardian","inputs":[{"name":"newBorrowCapGuardian","type":"address","internalType":"address"}],"outputs":[],"stateMutability":"nonpayable"},{"type":"function","name":"_setBorrowPaused","inputs":[{"name":"cToken","type":"address","internalType":"contract CTokenInterface"},{"name":"state","type":"bool","internalType":"bool"}],"outputs":[{"name":"","type":"bool","internalType":"bool"}],"stateMutability":"nonpayable"},{"type":"function","name":"_setCloseFactor","inputs":[{"name":"newCloseFactorMantissa","type":"uint256","internalType":"uint256"}],"outputs":[{"name":"","type":"uint256","internalType":"uint256"}],"stateMutability":"nonpayable"},{"type":"function","name":"_setCollateralFactor","inputs":[{"name":"cToken","type":"address","internalType":"contract CTokenInterface"},{"name":"newCollateralFactorMantissa","type":"uint256","internalType":"uint256"}],"outputs":[{"name":"","type":"uint256","internalType":"uint256"}],"stateMutability":"nonpayable"},{"type":"function","name":"_setCompSpeeds","inputs":[{"name":"cTokens","type":"address[]","internalType":"contract CTokenInterface[]"},{"name":"supplySpeeds","type":"uint256[]","internalType":"uint256[]"},{"name":"borrowSpeeds","type":"uint256[]","internalType":"uint256[]"}],"outputs":[],"stateMutability":"nonpayable"},{"type":"function","name":"_setContributorCompSpeed","inputs":[{"name":"contributor","type":"address","internalType":"address"},{"name":"compSpeed","type":"uint256","internalType":"uint256"}],"outputs":[],"stateMutability":"nonpayable"},{"type":"function","name":"_setLiquidationIncentive","inputs":[{"name":"newLiquidationIncentiveMantissa","type":"uint256","internalType":"uint256"}],"outputs":[{"name":"","type":"uint256","internalType":"uint256"}],"stateMutability":"nonpayable"},{"type":"function","name":"_setMarketBorrowCaps","inputs":[{"name":"cTokens","type":"address[]","internalType":"contract CTokenInterface[]"},{"name":"newBorrowCaps","type":"uint256[]","internalType":"uint256[]"}],"outputs":[],"stateMutability":"nonpayable"},{"type":"function","name":"_setMintPaused","inputs":[{"name":"cToken","type":"address","internalType":"contract CTokenInterface"},{"name":"state","type":"bool","internalType":"bool"}],"outputs":[{"name":"","type":"bool","internalType":"bool"}],"stateMutability":"nonpayable"},{"type":"function","name":"_setPauseGuardian","inputs":[{"name":"newPauseGuardian","type":"address","internalType":"address"}],"outputs":[{"name":"","type":"uint256","internalType":"uint256"}],"stateMutability":"nonpayable"},{"type":"function","name":"_setPriceOracle","inputs":[{"name":"newOracle","type":"address","internalType":"address"}],"outputs":[{"name":"","type":"uint256","internalType":"uint256"}],"stateMutability":"nonpayable"},{"type":"function","name":"_setSeizePaused","inputs":[{"name":"state","type":"bool","internalType":"bool"}],"outputs":[{"name":"","type":"bool","internalType":"bool"}],"stateMutability":"nonpayable"},{"type":"function","name":"_setTransferPaused","inputs":[{"name":"state","type":"bool","internalType":"bool"}],"outputs":[{"name":"","type":"bool","internalType":"bool"}],"stateMutability":"nonpayable"},{"type":"function","name":"_supportMarket","inputs":[{"name":"cToken","type":"address","internalType":"contract CTokenInterface"}],"outputs":[{"name":"","type":"uint256","internalType":"uint256"}],"stateMutability":"nonpayable"},{"type":"function","name":"borrowAllowed","inputs":[{"name":"cToken","type":"address","internalType":"address"},{"name":"borrower","type":"address","internalType":"address"},{"name":"borrowAmount","type":"uint256","internalType":"uint256"}],"outputs":[{"name":"","type":"uint256","internalType":"uint256"}],"stateMutability":"nonpayable"},{"type":"function","name":"borrowCapGuardian","inputs":[],"outputs":[{"name":"","type":"address","internalType":"address"}],"stateMutability":"view"},{"type":"function","name":"borrowGuardianPaused","inputs":[{"name":"","type":"address","internalType":"address"}],"outputs":[{"name":"","type":"bool","internalType":"bool"}],"stateMutability":"nonpayable"},{"type":"function","name":"claimComp","inputs":[{"name":"holder","type":"address","internalType":"address"}],"outputs":[],"stateMutability":"nonpayable"},{"type":"function","name":"closeFactorMantissa","inputs":[],"outputs":[{"name":"","type":"uint256","internalType":"uint256"}],"stateMutability":"view"},{"type":"function","name":"compAccrued","inputs":[{"name":"","type":"address","internalType":"address"}],"outputs":[{"name":"","type":"uint256","internalType":"uint256"}],"stateMutability":"nonpayable"},{"type":"function","name":"compBorrowSpeeds","inputs":[{"name":"","type":"address","internalType":"address"}],"outputs":[{"name":"","type":"uint256","internalType":"uint256"}],"stateMutability":"nonpayable"},{"type":"function","name":"compBorrowState","inputs":[{"name":"","type":"address","internalType":"address"}],"outputs":[{"name":"","type":"uint256","internalType":"uint256"},{"name":"","type":"uint256","internalType":"uint256"}],"stateMutability":"nonpayable"},{"type":"function","name":"compBorrowerIndex","inputs":[{"name":"market","type":"address","internalType":"address"},{"name":"borrower","type":"address","internalType":"address"}],"outputs":[{"name":"","type":"uint256","internalType":"uint256"}],"stateMutability":"nonpayable"},{"type":"function","name":"compContributorSpeeds","inputs":[{"name":"","type":"address","internalType":"address"}],"outputs":[{"name":"","type":"uint256","internalType":"uint256"}],"stateMutability":"nonpayable"},{"type":"function","name":"compSupplierIndex","inputs":[{"name":"market","type":"address","internalType":"address"},{"name":"supplier","type":"address","internalType":"address"}],"outputs":[{"name":"","type":"uint256","internalType":"uint256"}],"stateMutability":"nonpayable"},{"type":"function","name":"compSupplySpeeds","inputs":[{"name":"","type":"address","internalType":"address"}],"outputs":[{"name":"","type":"uint256","internalType":"uint256"}],"stateMutability":"nonpayable"},{"type":"function","name":"compSupplyState","inputs":[{"name":"","type":"address","internalType":"address"}],"outputs":[{"name":"","type":"uint256","internalType":"uint256"},{"name":"","type":"uint256","internalType":"uint256"}],"stateMutability":"nonpayable"},{"type":"function","name":"enterMarkets","inputs":[{"name":"cTokens","type":"address[]","internalType":"address[]"}],"outputs":[{"name":"","type":"uint256[]","internalType":"uint256[]"}],"stateMutability":"nonpayable"},{"type":"function","name":"exitMarket","inputs":[{"name":"","type":"address","internalType":"address"}],"outputs":[{"name":"","type":"uint256","internalType":"uint256"}],"stateMutability":"nonpayable"},{"type":"function","name":"getAccountLiquidity","inputs":[{"name":"account","type":"address","internalType":"address"}],"outputs":[{"name":"","type":"uint256","internalType":"uint256"},{"name":"","type":"uint256","internalType":"uint256"},{"name":"","type":"uint256","internalType":"uint256"}],"stateMutability":"view"},{"type":"function","name":"getAllMarkets","inputs":[],"outputs":[{"name":"","type":"address[]","internalType":"address[]"}],"stateMutability":"view"},{"type":"function","name":"getAssetsIn","inputs":[{"name":"account","type":"address","internalType":"address"}],"outputs":[{"name":"","type":"address[]","internalType":"address[]"}],"stateMutability":"view"},{"type":"function","name":"isComptroller","inputs":[],"outputs":[{"name":"","type":"bool","internalType":"bool"}],"stateMutability":"view"},{"type":"function","name":"liquidateBorrowAllowed","inputs":[{"name":"cTokenBorrowed","type":"address","internalType":"address"},{"name":"cTokenCollateral","type":"address","internalType":"address"},{"name":"liquidator","type":"address","internalType":"address"},{"name":"borrower","type":"address","internalType":"address"},{"name":"repayAmount","type":"uint256","internalType":"uint256"}],"outputs":[{"name":"","type":"uint256","internalType":"uint256"}],"stateMutability":"nonpayable"},{"type":"function","name":"liquidateCalculateSeizeTokens","inputs":[{"name":"cTokenBorrowed","type":"address","internalType":"address"},{"name":"cTokenCollateral","type":"address","internalType":"address"},{"name":"repayAmount","type":"uint256","internalType":"uint256"}],"outputs":[{"name":"","type":"uint256","internalType":"uint256"},{"name":"","type":"uint256","internalType":"uint256"}],"stateMutability":"view"},{"type":"function","name":"liquidationIncentiveMantissa","inputs":[],"outputs":[{"name":"","type":"uint256","internalType":"uint256"}],"stateMutability":"view"},{"type":"function","name":"markets","inputs":[{"name":"cToken","type":"address","internalType":"address"}],"outputs":[{"name":"","type":"bool","internalType":"bool"},{"name":"","type":"uint256","internalType":"uint256"},{"name":"","type":"bool","internalType":"bool"}],"stateMutability":"view"},{"type":"function","name":"mintAllowed","inputs":[{"name":"cToken","type":"address","internalType":"address"},{"name":"minter","type":"address","internalType":"address"},{"name":"mintAmount","type":"uint256","internalType":"uint256"}],"outputs":[{"name":"","type":"uint256","internalType":"uint256"}],"stateMutability":"nonpayable"},{"type":"function","name":"mintGuardianPaused","inputs":[{"name":"","type":"address","internalType":"address"}],"outputs":[{"name":"","type":"bool","internalType":"bool"}],"stateMutability":"nonpayable"},{"type":"function","name":"oracle","inputs":[],"outputs":[{"name":"","type":"address","internalType":"address"}],"stateMutability":"nonpayable"},{"type":"function","name":"pauseGuardian","inputs":[],"outputs":[{"name":"","type":"address","internalType":"address"}],"stateMutability":"view"},{"type":"function","name":"redeemAllowed","inputs":[{"name":"cToken","type":"address","internalType":"address"},{"name":"redeemer","type":"address","internalType":"address"},{"name":"redeemTokens","type":"uint256","internalType":"uint256"}],"outputs":[{"name":"","type":"uint256","internalType":"uint256"}],"stateMutability":"nonpayable"},{"type":"function","name":"repayBorrowAllowed","inputs":[{"name":"cToken","type":"address","internalType":"address"},{"name":"payer","type":"address","internalType":"address"},{"name":"borrower","type":"address","internalType":"address"},{"name":"repayAmount","type":"uint256","internalType":"uint256"}],"outputs":[{"name":"","type":"uint256","internalType":"uint256"}],"stateMutability":"nonpayable"},{"type":"function","name":"reserveFactorMantissa","inputs":[],"outputs":[{"name":"","type":"uint256","internalType":"uint256"}],"stateMutability":"view"},{"type":"function","name":"seizeGuardianPaused","inputs":[],"outputs":[{"name":"","type":"bool","internalType":"bool"}],"stateMutability":"nonpayable"},{"type":"function","name":"transferGuardianPaused","inputs":[],"outputs":[{"name":"","type":"bool","internalType":"bool"}],"stateMutability":"nonpayable"},{"type":"function","name":"updateContributorRewards","inputs":[{"name":"contributor","type":"address","internalType":"address"}],"outputs":[],"stateMutability":"nonpayable"}],"bytecode":{"object":"0x6080604052348015600f57600080fd5b50610caf8061001f6000396000f3fe608060405234801561001057600080fd5b50600436106102ba5760003560e01c8063731f0c2b11610182578063b0772d0b116100e9578063da3d454c116100a2578063e9af02921161007c578063e9af029214610373578063eabe7d9114610384578063ede4edd01461039b578063f4a433c01461039b57600080fd5b8063da3d454c14610384578063e4028eee146104f3578063e8755446146102dc57600080fd5b8063b0772d0b146104aa578063b21be7fd146104b1578063c2998238146104bf578063c488847b146104da578063ca0af043146104b1578063cc7ebdc41461039b57600080fd5b80638ebf63641161013b5780638ebf636414610351578063986ab8381461039b578063a76b3fda1461039b578063a8b4394814610476578063abfceffc14610489578063ac0b0bb71461044257600080fd5b8063731f0c2b14610434578063741b2525146103735780637dc0d1d01461031857806387f76303146104425780638c57804e146104095780638e8f294b1461044957600080fd5b80634ada90af116102265780635f5af1aa116101df5780635f5af1aa1461039b5780635fc7e71e146103dc578063607ef6c1146103f55780636aa875b51461039b5780636b79c38d146104095780636d154ea51461043457600080fd5b80634ada90af146102dc5780634ef4c3e1146103845780634fd42e171461036557806355ee1fe11461039b578063598ee1cb1461033f5780635ec88c79146103a957600080fd5b806324a3d6221161027857806324a3d6221461031857806327efe3cb1461033f5780632d70db7814610351578063317b0b7714610365578063391957d7146103735780633bcf7ec1146102ed57600080fd5b80627e3dd2146102bf578063173b9904146102dc57806318c882a5146102ed5780631d504dc61461030357806321af45691461031857806324008a6214610327575b600080fd5b6102c7600181565b60405190151581526020015b60405180910390f35b60005b6040519081526020016102d3565b6102c76102fb3660046106ad565b600092915050565b6103166103113660046106e2565b610501565b005b604051600081526020016102d3565b6102df610335366004610706565b6000949350505050565b61031661034d366004610757565b5050565b6102c761035f366004610783565b50600090565b6102df61035f36600461079e565b6103166103813660046106e2565b50565b6102df6103923660046107b7565b60009392505050565b6102df61035f3660046106e2565b6103c16103b73660046106e2565b5060009081908190565b604080519384526020840192909252908201526060016102d3565b6102df6103ea3660046107f8565b600095945050505050565b6103166104033660046108a8565b50505050565b61041f6104173660046106e2565b600080915091565b604080519283526020830191909152016102d3565b6102c761035f3660046106e2565b60006102c7565b6104576103b73660046106e2565b60408051931515845260208401929092521515908201526060016102d3565b6103166104843660046109f1565b505050565b61049d6104973660046106e2565b50606090565b6040516102d39190610ae7565b606061049d565b6102df6102fb366004610b33565b6104cd610497366004610b6c565b6040516102d39190610c0b565b61041f6104e83660046107b7565b600080935093915050565b6102df6102fb366004610757565b806001600160a01b031663f851a4406040518163ffffffff1660e01b81526004016020604051808303816000875af1158015610541573d6000803e3d6000fd5b505050506040513d601f19601f820116820180604052508101906105659190610c43565b6001600160a01b0316336001600160a01b0316146105da5760405162461bcd60e51b815260206004820152602760248201527f6f6e6c7920756e6974726f6c6c65722061646d696e2063616e206368616e676560448201526620627261696e7360c81b60648201526084015b60405180910390fd5b806001600160a01b031663c1e803346040518163ffffffff1660e01b81526004016020604051808303816000875af115801561061a573d6000803e3d6000fd5b505050506040513d601f19601f8201168201806040525081019061063e9190610c60565b156103815760405162461bcd60e51b815260206004820152601560248201527418da185b99d9481b9bdd08185d5d1a1bdc9a5e9959605a1b60448201526064016105d1565b6001600160a01b038116811461038157600080fd5b803580151581146106a857600080fd5b919050565b600080604083850312156106c057600080fd5b82356106cb81610683565b91506106d960208401610698565b90509250929050565b6000602082840312156106f457600080fd5b81356106ff81610683565b9392505050565b6000806000806080858703121561071c57600080fd5b843561072781610683565b9350602085013561073781610683565b9250604085013561074781610683565b9396929550929360600135925050565b6000806040838503121561076a57600080fd5b823561077581610683565b946020939093013593505050565b60006020828403121561079557600080fd5b6106ff82610698565b6000602082840312156107b057600080fd5b5035919050565b6000806000606084860312156107cc57600080fd5b83356107d781610683565b925060208401356107e781610683565b929592945050506040919091013590565b600080600080600060a0868803121561081057600080fd5b853561081b81610683565b9450602086013561082b81610683565b9350604086013561083b81610683565b9250606086013561084b81610683565b949793965091946080013592915050565b60008083601f84011261086e57600080fd5b50813567ffffffffffffffff81111561088657600080fd5b6020830191508360208260051b85010111156108a157600080fd5b9250929050565b600080600080604085870312156108be57600080fd5b843567ffffffffffffffff8111156108d557600080fd5b6108e18782880161085c565b909550935050602085013567ffffffffffffffff81111561090157600080fd5b61090d8782880161085c565b95989497509550505050565b634e487b7160e01b600052604160045260246000fd5b604051601f8201601f1916810167ffffffffffffffff8111828210171561095857610958610919565b604052919050565b600067ffffffffffffffff82111561097a5761097a610919565b5060051b60200190565b600082601f83011261099557600080fd5b81356109a86109a382610960565b61092f565b8082825260208201915060208360051b8601019250858311156109ca57600080fd5b602085015b838110156109e75780358352602092830192016109cf565b5095945050505050565b600080600060608486031215610a0657600080fd5b833567ffffffffffffffff811115610a1d57600080fd5b8401601f81018613610a2e57600080fd5b8035610a3c6109a382610960565b8082825260208201915060208360051b850101925088831115610a5e57600080fd5b6020840193505b82841015610a89578335610a7881610683565b825260209384019390910190610a65565b9550505050602084013567ffffffffffffffff811115610aa857600080fd5b610ab486828701610984565b925050604084013567ffffffffffffffff811115610ad157600080fd5b610add86828701610984565b9150509250925092565b602080825282518282018190526000918401906040840190835b81811015610b285783516001600160a01b0316835260209384019390920191600101610b01565b509095945050505050565b60008060408385031215610b4657600080fd5b8235610b5181610683565b91506020830135610b6181610683565b809150509250929050565b600060208284031215610b7e57600080fd5b813567ffffffffffffffff811115610b9557600080fd5b8201601f81018413610ba657600080fd5b8035610bb46109a382610960565b8082825260208201915060208360051b850101925086831115610bd657600080fd5b6020840193505b82841015610c01578335610bf081610683565b825260209384019390910190610bdd565b9695505050505050565b602080825282518282018190526000918401906040840190835b81811015610b28578351835260209384019390920191600101610c25565b600060208284031215610c5557600080fd5b81516106ff81610683565b600060208284031215610c7257600080fd5b505191905056fea26469706673582212202409892444ea494b60f2912d117a7df3a8cfdc0272e324eff404b79b391085f764736f6c634300081a0033","linkReferences":{}},"methodIdentifiers":{"_become(address)":"1d504dc6","_grantComp(address,uint256)":"27efe3cb","_setBorrowCapGuardian(address)":"391957d7","_setBorrowPaused(address,bool)":"18c882a5","_setCloseFactor(uint256)":"317b0b77","_setCollateralFactor(address,uint256)":"e4028eee","_setCompSpeeds(address[],uint256[],uint256[])":"a8b43948","_setContributorCompSpeed(address,uint256)":"598ee1cb","_setLiquidationIncentive(uint256)":"4fd42e17","_setMarketBorrowCaps(address[],uint256[])":"607ef6c1","_setMintPaused(address,bool)":"3bcf7ec1","_setPauseGuardian(address)":"5f5af1aa","_setPriceOracle(address)":"55ee1fe1","_setSeizePaused(bool)":"2d70db78","_setTransferPaused(bool)":"8ebf6364","_supportMarket(address)":"a76b3fda","borrowAllowed(address,address,uint256)":"da3d454c","borrowCapGuardian()":"21af4569","borrowGuardianPaused(address)":"6d154ea5","claimComp(address)":"e9af0292","closeFactorMantissa()":"e8755446","compAccrued(address)":"cc7ebdc4","compBorrowSpeeds(address)":"f4a433c0","compBorrowState(address)":"8c57804e","compBorrowerIndex(address,address)":"ca0af043","compContributorSpeeds(address)":"986ab838","compSupplierIndex(address,address)":"b21be7fd","compSupplySpeeds(address)":"6aa875b5","compSupplyState(address)":"6b79c38d","enterMarkets(address[])":"c2998238","exitMarket(address)":"ede4edd0","getAccountLiquidity(address)":"5ec88c79","getAllMarkets()":"b0772d0b","getAssetsIn(address)":"abfceffc","isComptroller()":"007e3dd2","liquidateBorrowAllowed(address,address,address,address,uint256)":"5fc7e71e","liquidateCalculateSeizeTokens(address,address,uint256)":"c488847b","liquidationIncentiveMantissa()":"4ada90af","markets(address)":"8e8f294b","mintAllowed(address,address,uint256)":"4ef4c3e1","mintGuardianPaused(address)":"731f0c2b","oracle()":"7dc0d1d0","pauseGuardian()":"24a3d622","redeemAllowed(address,address,uint256)":"eabe7d91","repayBorrowAllowed(address,address,address,uint256)":"24008a62","reserveFactorMantissa()":"173b9904","seizeGuardianPaused()":"ac0b0bb7","transferGuardianPaused()":"87f76303","updateContributorRewards(address)":"741b2525"},"id":14}