{"abi":[{"type":"function","name":"acceptImplementation","inputs":[{"name":"comptroller","type":"address","internalType":"address"}],"outputs":[],"stateMutability":"nonpayable"},{"type":"function","name":"testImplementation","inputs":[],"outputs":[{"name":"","type":"string","internalType":"string"}],"stateMutability":"pure"}],"bytecode":{"object":"0x6080604052348015600f57600080fd5b5061027b8061001f6000396000f3fe608060405234801561001057600080fd5b50600436106100365760003560e01c80633680946f1461003b578063f60bd1ee14610079575b600080fd5b6040805180820182526013815272090d25840eeca40c2e4ca40c8cacae090d2ced606b1b6020820152905161007091906101c6565b60405180910390f35b61008c6100873660046101f9565b61008e565b005b60408051600481526024810182526020810180516001600160e01b031663307a00cd60e21b17905290517fc1e80334b960d60dd9ad8cfebd73135b3351246a7db2ea8184aacce87d4ce070916000916001600160a01b038516916100f191610229565b6000604051808303816000865af19150503d806000811461012e576040519150601f19603f3d011682016040523d82523d6000602084013e610133565b606091505b505090508061019d5760405162461bcd60e51b815260206004820152602c60248201527f436f6d7074726f6c6c65723a206661696c656420746f2061636365707420696d60448201526b383632b6b2b73a30ba34b7b760a11b606482015260840160405180910390fd5b505050565b60005b838110156101bd5781810151838201526020016101a5565b50506000910152565b60208152600082518060208401526101e58160408501602087016101a2565b601f01601f19169190910160400192915050565b60006020828403121561020b57600080fd5b81356001600160a01b038116811461022257600080fd5b9392505050565b6000825161023b8184602087016101a2565b919091019291505056fea264697066735822122038c163bccebbc54acb2433e7a29476cfe0292754859ae2727e14fab5cc5a3fa564736f6c634300081a0033","linkReferences":{}},"methodIdentifiers":{"acceptImplementation(address)":"f60bd1ee","testImplementation()":"3680946f"},"id":14}