{"abi":[{"type":"function","name":"_become","inputs":[{"name":"unitroller","type":"address","internalType":"address"}],"outputs":[],"stateMutability":"nonpayable"},{"type":"function","name":"_grantComp","inputs":[{"name":"recipient","type":"address","internalType":"address"},{"name":"amount","type":"uint256","internalType":"uint256"}],"outputs":[],"stateMutability":"nonpayable"},{"type":"function","name":"_setBorrowCapGuardian","inputs":[{"name":"newBorrowCapGuardian","type":"address","internalType":"address"}],"outputs":[],"stateMutability":"nonpayable"},{"type":"function","name":"_setBorrowPaused","inputs":[{"name":"cToken","type":"address","internalType":"contract VTokenInterface"},{"name":"state","type":"bool","internalType":"bool"}],"outputs":[{"name":"","type":"bool","internalType":"bool"}],"stateMutability":"nonpayable"},{"type":"function","name":"_setCloseFactor","inputs":[{"name":"newCloseFactorMantissa","type":"uint256","internalType":"uint256"}],"outputs":[{"name":"","type":"uint256","internalType":"uint256"}],"stateMutability":"nonpayable"},{"type":"function","name":"_setCollateralFactor","inputs":[{"name":"cToken","type":"address","internalType":"contract VTokenInterface"},{"name":"newCollateralFactorMantissa","type":"uint256","internalType":"uint256"}],"outputs":[{"name":"","type":"uint256","internalType":"uint256"}],"stateMutability":"nonpayable"},{"type":"function","name":"_setCompSpeeds","inputs":[{"name":"cTokens","type":"address[]","internalType":"contract VTokenInterface[]"},{"name":"supplySpeeds","type":"uint256[]","internalType":"uint256[]"},{"name":"borrowSpeeds","type":"uint256[]","internalType":"uint256[]"}],"outputs":[],"stateMutability":"nonpayable"},{"type":"function","name":"_setContributorCompSpeed","inputs":[{"name":"contributor","type":"address","internalType":"address"},{"name":"compSpeed","type":"uint256","internalType":"uint256"}],"outputs":[],"stateMutability":"nonpayable"},{"type":"function","name":"_setLiquidationIncentive","inputs":[{"name":"newLiquidationIncentiveMantissa","type":"uint256","internalType":"uint256"}],"outputs":[{"name":"","type":"uint256","internalType":"uint256"}],"stateMutability":"nonpayable"},{"type":"function","name":"_setMarketBorrowCaps","inputs":[{"name":"cTokens","type":"address[]","internalType":"contract VTokenInterface[]"},{"name":"newBorrowCaps","type":"uint256[]","internalType":"uint256[]"}],"outputs":[],"stateMutability":"nonpayable"},{"type":"function","name":"_setMintPaused","inputs":[{"name":"cToken","type":"address","internalType":"contract VTokenInterface"},{"name":"state","type":"bool","internalType":"bool"}],"outputs":[{"name":"","type":"bool","internalType":"bool"}],"stateMutability":"nonpayable"},{"type":"function","name":"_setPauseGuardian","inputs":[{"name":"newPauseGuardian","type":"address","internalType":"address"}],"outputs":[{"name":"","type":"uint256","internalType":"uint256"}],"stateMutability":"nonpayable"},{"type":"function","name":"_setPriceOracle","inputs":[{"name":"newOracle","type":"address","internalType":"address"}],"outputs":[{"name":"","type":"uint256","internalType":"uint256"}],"stateMutability":"nonpayable"},{"type":"function","name":"_setProtocolPaused","inputs":[{"name":"state","type":"bool","internalType":"bool"}],"outputs":[{"name":"","type":"bool","internalType":"bool"}],"stateMutability":"nonpayable"},{"type":"function","name":"_setSeizePaused","inputs":[{"name":"state","type":"bool","internalType":"bool"}],"outputs":[{"name":"","type":"bool","internalType":"bool"}],"stateMutability":"nonpayable"},{"type":"function","name":"_setTransferPaused","inputs":[{"name":"state","type":"bool","internalType":"bool"}],"outputs":[{"name":"","type":"bool","internalType":"bool"}],"stateMutability":"nonpayable"},{"type":"function","name":"_supportMarket","inputs":[{"name":"cToken","type":"address","internalType":"contract VTokenInterface"}],"outputs":[{"name":"","type":"uint256","internalType":"uint256"}],"stateMutability":"nonpayable"},{"type":"function","name":"approvedDelegates","inputs":[{"name":"borrower","type":"address","internalType":"address"},{"name":"delegate","type":"address","internalType":"address"}],"outputs":[{"name":"","type":"bool","internalType":"bool"}],"stateMutability":"view"},{"type":"function","name":"borrowAllowed","inputs":[{"name":"vToken","type":"address","internalType":"address"},{"name":"borrower","type":"address","internalType":"address"},{"name":"borrowAmount","type":"uint256","internalType":"uint256"}],"outputs":[{"name":"","type":"uint256","internalType":"uint256"}],"stateMutability":"nonpayable"},{"type":"function","name":"borrowCapGuardian","inputs":[],"outputs":[{"name":"","type":"address","internalType":"address"}],"stateMutability":"view"},{"type":"function","name":"borrowCaps","inputs":[{"name":"vToken","type":"address","internalType":"address"}],"outputs":[{"name":"","type":"uint256","internalType":"uint256"}],"stateMutability":"view"},{"type":"function","name":"borrowVerify","inputs":[{"name":"vToken","type":"address","internalType":"address"},{"name":"borrower","type":"address","internalType":"address"},{"name":"borrowAmount","type":"uint256","internalType":"uint256"}],"outputs":[],"stateMutability":"nonpayable"},{"type":"function","name":"checkMembership","inputs":[{"name":"account","type":"address","internalType":"address"},{"name":"vToken","type":"address","internalType":"address"}],"outputs":[{"name":"","type":"bool","internalType":"bool"}],"stateMutability":"view"},{"type":"function","name":"claimVenus","inputs":[{"name":"","type":"address","internalType":"address"}],"outputs":[],"stateMutability":"nonpayable"},{"type":"function","name":"closeFactorMantissa","inputs":[],"outputs":[{"name":"","type":"uint256","internalType":"uint256"}],"stateMutability":"view"},{"type":"function","name":"enterMarkets","inputs":[{"name":"vTokens","type":"address[]","internalType":"address[]"}],"outputs":[{"name":"","type":"uint256[]","internalType":"uint256[]"}],"stateMutability":"nonpayable"},{"type":"function","name":"exitMarket","inputs":[{"name":"vToken","type":"address","internalType":"address"}],"outputs":[{"name":"","type":"uint256","internalType":"uint256"}],"stateMutability":"nonpayable"},{"type":"function","name":"getAccountLiquidity","inputs":[{"name":"","type":"address","internalType":"address"}],"outputs":[{"name":"","type":"uint256","internalType":"uint256"},{"name":"","type":"uint256","internalType":"uint256"},{"name":"","type":"uint256","internalType":"uint256"}],"stateMutability":"view"},{"type":"function","name":"getAllMarkets","inputs":[],"outputs":[{"name":"","type":"address[]","internalType":"address[]"}],"stateMutability":"view"},{"type":"function","name":"getAssetsIn","inputs":[{"name":"","type":"address","internalType":"address"}],"outputs":[{"name":"","type":"address[]","internalType":"address[]"}],"stateMutability":"view"},{"type":"function","name":"getHypotheticalAccountLiquidity","inputs":[{"name":"account","type":"address","internalType":"address"},{"name":"vTokenModify","type":"address","internalType":"address"},{"name":"redeemTokens","type":"uint256","internalType":"uint256"},{"name":"borrowAmount","type":"uint256","internalType":"uint256"}],"outputs":[{"name":"","type":"uint256","internalType":"uint256"},{"name":"","type":"uint256","internalType":"uint256"},{"name":"","type":"uint256","internalType":"uint256"}],"stateMutability":"view"},{"type":"function","name":"getXVSAddress","inputs":[],"outputs":[{"name":"","type":"address","internalType":"address"}],"stateMutability":"view"},{"type":"function","name":"isComptroller","inputs":[],"outputs":[{"name":"","type":"bool","internalType":"bool"}],"stateMutability":"view"},{"type":"function","name":"liquidateBorrowAllowed","inputs":[{"name":"vTokenBorrowed","type":"address","internalType":"address"},{"name":"vTokenCollateral","type":"address","internalType":"address"},{"name":"liquidator","type":"address","internalType":"address"},{"name":"borrower","type":"address","internalType":"address"},{"name":"repayAmount","type":"uint256","internalType":"uint256"}],"outputs":[{"name":"","type":"uint256","internalType":"uint256"}],"stateMutability":"nonpayable"},{"type":"function","name":"liquidateBorrowVerify","inputs":[{"name":"vTokenBorrowed","type":"address","internalType":"address"},{"name":"vTokenCollateral","type":"address","internalType":"address"},{"name":"liquidator","type":"address","internalType":"address"},{"name":"borrower","type":"address","internalType":"address"},{"name":"repayAmount","type":"uint256","internalType":"uint256"},{"name":"seizeTokens","type":"uint256","internalType":"uint256"}],"outputs":[],"stateMutability":"nonpayable"},{"type":"function","name":"liquidateCalculateSeizeTokens","inputs":[{"name":"vTokenBorrowed","type":"address","internalType":"address"},{"name":"vTokenCollateral","type":"address","internalType":"address"},{"name":"repayAmount","type":"uint256","internalType":"uint256"}],"outputs":[{"name":"","type":"uint256","internalType":"uint256"},{"name":"","type":"uint256","internalType":"uint256"}],"stateMutability":"view"},{"type":"function","name":"liquidationIncentiveMantissa","inputs":[],"outputs":[{"name":"","type":"uint256","internalType":"uint256"}],"stateMutability":"view"},{"type":"function","name":"markets","inputs":[{"name":"","type":"address","internalType":"address"}],"outputs":[{"name":"","type":"bool","internalType":"bool"},{"name":"","type":"uint256","internalType":"uint256"}],"stateMutability":"view"},{"type":"function","name":"minLiquidatableCollateral","inputs":[],"outputs":[{"name":"","type":"uint256","internalType":"uint256"}],"stateMutability":"view"},{"type":"function","name":"mintAllowed","inputs":[{"name":"vToken","type":"address","internalType":"address"},{"name":"minter","type":"address","internalType":"address"},{"name":"mintAmount","type":"uint256","internalType":"uint256"}],"outputs":[{"name":"","type":"uint256","internalType":"uint256"}],"stateMutability":"nonpayable"},{"type":"function","name":"mintVerify","inputs":[{"name":"vToken","type":"address","internalType":"address"},{"name":"minter","type":"address","internalType":"address"},{"name":"mintAmount","type":"uint256","internalType":"uint256"},{"name":"mintTokens","type":"uint256","internalType":"uint256"}],"outputs":[],"stateMutability":"nonpayable"},{"type":"function","name":"mintedVAIs","inputs":[{"name":"user","type":"address","internalType":"address"}],"outputs":[{"name":"","type":"uint256","internalType":"uint256"}],"stateMutability":"view"},{"type":"function","name":"oracle","inputs":[],"outputs":[{"name":"","type":"address","internalType":"address"}],"stateMutability":"view"},{"type":"function","name":"pauseGuardian","inputs":[],"outputs":[{"name":"","type":"address","internalType":"address"}],"stateMutability":"view"},{"type":"function","name":"preBorrowHook","inputs":[{"name":"vToken","type":"address","internalType":"address"},{"name":"borrower","type":"address","internalType":"address"},{"name":"borrowAmount","type":"uint256","internalType":"uint256"}],"outputs":[],"stateMutability":"nonpayable"},{"type":"function","name":"preLiquidateHook","inputs":[{"name":"vTokenBorrowed","type":"address","internalType":"address"},{"name":"vTokenCollateral","type":"address","internalType":"address"},{"name":"borrower","type":"address","internalType":"address"},{"name":"repayAmount","type":"uint256","internalType":"uint256"},{"name":"skipLiquidityCheck","type":"bool","internalType":"bool"}],"outputs":[],"stateMutability":"nonpayable"},{"type":"function","name":"preMintHook","inputs":[{"name":"vToken","type":"address","internalType":"address"},{"name":"minter","type":"address","internalType":"address"},{"name":"mintAmount","type":"uint256","internalType":"uint256"}],"outputs":[],"stateMutability":"nonpayable"},{"type":"function","name":"preRedeemHook","inputs":[{"name":"vToken","type":"address","internalType":"address"},{"name":"redeemer","type":"address","internalType":"address"},{"name":"redeemTokens","type":"uint256","internalType":"uint256"}],"outputs":[],"stateMutability":"nonpayable"},{"type":"function","name":"preRepayHook","inputs":[{"name":"vToken","type":"address","internalType":"address"},{"name":"borrower","type":"address","internalType":"address"}],"outputs":[],"stateMutability":"nonpayable"},{"type":"function","name":"preSeizeHook","inputs":[{"name":"vTokenCollateral","type":"address","internalType":"address"},{"name":"vTokenBorrowed","type":"address","internalType":"address"},{"name":"liquidator","type":"address","internalType":"address"},{"name":"borrower","type":"address","internalType":"address"}],"outputs":[],"stateMutability":"nonpayable"},{"type":"function","name":"preTransferHook","inputs":[{"name":"vToken","type":"address","internalType":"address"},{"name":"src","type":"address","internalType":"address"},{"name":"dst","type":"address","internalType":"address"},{"name":"transferTokens","type":"uint256","internalType":"uint256"}],"outputs":[],"stateMutability":"nonpayable"},{"type":"function","name":"protocolPaused","inputs":[],"outputs":[{"name":"","type":"bool","internalType":"bool"}],"stateMutability":"view"},{"type":"function","name":"redeemAllowed","inputs":[{"name":"vToken","type":"address","internalType":"address"},{"name":"redeemer","type":"address","internalType":"address"},{"name":"redeemTokens","type":"uint256","internalType":"uint256"}],"outputs":[{"name":"","type":"uint256","internalType":"uint256"}],"stateMutability":"nonpayable"},{"type":"function","name":"redeemVerify","inputs":[{"name":"vToken","type":"address","internalType":"address"},{"name":"redeemer","type":"address","internalType":"address"},{"name":"redeemAmount","type":"uint256","internalType":"uint256"},{"name":"redeemTokens","type":"uint256","internalType":"uint256"}],"outputs":[],"stateMutability":"nonpayable"},{"type":"function","name":"repayBorrowAllowed","inputs":[{"name":"vToken","type":"address","internalType":"address"},{"name":"payer","type":"address","internalType":"address"},{"name":"borrower","type":"address","internalType":"address"},{"name":"repayAmount","type":"uint256","internalType":"uint256"}],"outputs":[{"name":"","type":"uint256","internalType":"uint256"}],"stateMutability":"nonpayable"},{"type":"function","name":"repayBorrowVerify","inputs":[{"name":"vToken","type":"address","internalType":"address"},{"name":"payer","type":"address","internalType":"address"},{"name":"borrower","type":"address","internalType":"address"},{"name":"repayAmount","type":"uint256","internalType":"uint256"},{"name":"borrowerIndex","type":"uint256","internalType":"uint256"}],"outputs":[],"stateMutability":"nonpayable"},{"type":"function","name":"seizeVerify","inputs":[{"name":"vTokenCollateral","type":"address","internalType":"address"},{"name":"vTokenBorrowed","type":"address","internalType":"address"},{"name":"liquidator","type":"address","internalType":"address"},{"name":"borrower","type":"address","internalType":"address"},{"name":"seizeTokens","type":"uint256","internalType":"uint256"}],"outputs":[],"stateMutability":"nonpayable"},{"type":"function","name":"transferVerify","inputs":[{"name":"vToken","type":"address","internalType":"address"},{"name":"src","type":"address","internalType":"address"},{"name":"dst","type":"address","internalType":"address"},{"name":"transferTokens","type":"uint256","internalType":"uint256"}],"outputs":[],"stateMutability":"nonpayable"},{"type":"function","name":"updateDelegate","inputs":[{"name":"delegate","type":"address","internalType":"address"},{"name":"approved","type":"bool","internalType":"bool"}],"outputs":[],"stateMutability":"nonpayable"},{"type":"function","name":"vaiController","inputs":[],"outputs":[{"name":"","type":"address","internalType":"address"}],"stateMutability":"view"},{"type":"function","name":"vaiMintRate","inputs":[],"outputs":[{"name":"","type":"uint256","internalType":"uint256"}],"stateMutability":"view"},{"type":"function","name":"venusAccrued","inputs":[{"name":"","type":"address","internalType":"address"}],"outputs":[{"name":"","type":"uint256","internalType":"uint256"}],"stateMutability":"view"},{"type":"function","name":"venusBorrowSpeeds","inputs":[{"name":"","type":"address","internalType":"address"}],"outputs":[{"name":"","type":"uint256","internalType":"uint256"}],"stateMutability":"view"},{"type":"function","name":"venusBorrowState","inputs":[{"name":"","type":"address","internalType":"address"}],"outputs":[{"name":"","type":"uint224","internalType":"uint224"},{"name":"","type":"uint32","internalType":"uint32"}],"stateMutability":"view"},{"type":"function","name":"venusBorrowerIndex","inputs":[{"name":"","type":"address","internalType":"address"},{"name":"","type":"address","internalType":"address"}],"outputs":[{"name":"","type":"uint256","internalType":"uint256"}],"stateMutability":"view"},{"type":"function","name":"venusInitialIndex","inputs":[],"outputs":[{"name":"","type":"uint224","internalType":"uint224"}],"stateMutability":"view"},{"type":"function","name":"venusSupplierIndex","inputs":[{"name":"","type":"address","internalType":"address"},{"name":"","type":"address","internalType":"address"}],"outputs":[{"name":"","type":"uint256","internalType":"uint256"}],"stateMutability":"view"},{"type":"function","name":"venusSupplySpeeds","inputs":[{"name":"","type":"address","internalType":"address"}],"outputs":[{"name":"","type":"uint256","internalType":"uint256"}],"stateMutability":"view"},{"type":"function","name":"venusSupplyState","inputs":[{"name":"","type":"address","internalType":"address"}],"outputs":[{"name":"","type":"uint224","internalType":"uint224"},{"name":"","type":"uint32","internalType":"uint32"}],"stateMutability":"view"}],"bytecode":{"object":"0x6080604052348015600f57600080fd5b50610e828061001f6000396000f3fe608060405234801561001057600080fd5b50600436106104065760003560e01c8063607ef6c111610220578063bbb8864a11610130578063ddbf54fd116100b8578063e875544611610087578063e875544614610538578063e89d51ad146106fe578063eabe7d9114610577578063eade3eed1461070c578063ede4edd0146104f157600080fd5b8063ddbf54fd146106e2578063df71403b1461058e578063e37d4b791461065f578063e4028eee146106f057600080fd5b8063c2998238116100ff578063c299823814610691578063c488847b146106b4578063c5b4db55146104a4578063da3d454c14610577578063db5c65de1461053857600080fd5b8063bbb8864a146104f1578063bec04f7214610538578063bf32442d146104a4578063c0891ba91461058e57600080fd5b80638ebf6364116101b3578063a8b4394811610182578063a8b4394814610629578063abfceffc14610637578063adcd5fb91461047e578063b0772d0b14610658578063b8324c7c1461065f57600080fd5b80638ebf6364146104dd5780639254f5e5146104a4578063929fe9a11461044c578063a76b3fda146104f157600080fd5b80637dc0d1d0116101ef5780637dc0d1d0146104a45780638a7dc165146104f15780638e6470ea1461058e5780638e8f294b146105fc57600080fd5b8063607ef6c1146105d25780636a56947e146105e05780636d0be88d146105e05780636d35bf91146105ee57600080fd5b806341a18d2c1161031b5780634fd42e17116102ae5780635c7786051161027d5780635c7786051461058e5780635dd3fc9d146104f15780635ec88c79146105a15780635f5af1aa146104f15780635fc7e71e146105b957600080fd5b80634fd42e17146104ff57806351dff9891461050d57806355ee1fe1146104f1578063598ee1cb146104cb57600080fd5b80634a584432116102ea5780634a584432146104f15780634ada90af146105385780634e79238f1461053f5780634ef4c3e11461057757600080fd5b806341a18d2c1461042857806341c728b91461050d578063425fad581461051b57806347ef3b3b1461052257600080fd5b806324008a621161039e5780632bc7e29e1161036d5780632bc7e29e146104f15780632d70db78146104dd578063317b0b77146104ff578063391957d71461047e5780633bcf7ec11461045a57600080fd5b806324008a62146104b357806324a3d622146104a457806327efe3cb146104cb5780632a6a6065146104dd57600080fd5b80631bc41f28116103da5780631bc41f28146104685780631d504dc61461047e5780631ededc911461048f57806321af4569146104a457600080fd5b80627e3dd21461040b57806308e0225c1461042857806310b983381461044c57806318c882a51461045a575b600080fd5b610413600181565b60405190151581526020015b60405180910390f35b61043e61043636600461072f565b600092915050565b60405190815260200161041f565b61041361043636600461072f565b61041361043636600461077d565b61047c6104763660046107b2565b50505050565b005b61047c61048c36600461080e565b50565b61047c61049d366004610832565b5050505050565b6040516000815260200161041f565b61043e6104c136600461088d565b6000949350505050565b61047c6104d93660046108de565b5050565b6104136104eb36600461090a565b50600090565b61043e6104eb36600461080e565b61043e6104eb366004610925565b61047c61047636600461093e565b6000610413565b61047c610530366004610984565b505050505050565b600061043e565b61055c61054d36600461093e565b60008060009450945094915050565b6040805193845260208401929092529082015260600161041f565b61043e6105853660046109f2565b60009392505050565b61047c61059c3660046109f2565b505050565b61055c6105af36600461080e565b5060009081908190565b61043e6105c7366004610a33565b600095945050505050565b61047c610476366004610ae3565b61047c61047636600461088d565b61047c61049d366004610a33565b61061261060a36600461080e565b600080915091565b60408051921515835260208301919091520161041f565b61047c61059c366004610c2c565b61064b61064536600461080e565b50606090565b60405161041f9190610d22565b606061064b565b61066d61060a36600461080e565b604080516001600160e01b03909316835263ffffffff90911660208301520161041f565b6106a761069f366004610d6e565b606092915050565b60405161041f9190610db0565b6106cd6106c23660046109f2565b600080935093915050565b6040805192835260208301919091520161041f565b61047c6104d936600461077d565b61043e6104363660046108de565b61047c61049d366004610de8565b61047c6104d936600461072f565b6001600160a01b038116811461048c57600080fd5b6000806040838503121561074257600080fd5b823561074d8161071a565b9150602083013561075d8161071a565b809150509250929050565b8035801515811461077857600080fd5b919050565b6000806040838503121561079057600080fd5b823561079b8161071a565b91506107a960208401610768565b90509250929050565b600080600080608085870312156107c857600080fd5b84356107d38161071a565b935060208501356107e38161071a565b925060408501356107f38161071a565b915060608501356108038161071a565b939692955090935050565b60006020828403121561082057600080fd5b813561082b8161071a565b9392505050565b600080600080600060a0868803121561084a57600080fd5b85356108558161071a565b945060208601356108658161071a565b935060408601356108758161071a565b94979396509394606081013594506080013592915050565b600080600080608085870312156108a357600080fd5b84356108ae8161071a565b935060208501356108be8161071a565b925060408501356108ce8161071a565b9396929550929360600135925050565b600080604083850312156108f157600080fd5b82356108fc8161071a565b946020939093013593505050565b60006020828403121561091c57600080fd5b61082b82610768565b60006020828403121561093757600080fd5b5035919050565b6000806000806080858703121561095457600080fd5b843561095f8161071a565b9350602085013561096f8161071a565b93969395505050506040820135916060013590565b60008060008060008060c0878903121561099d57600080fd5b86356109a88161071a565b955060208701356109b88161071a565b945060408701356109c88161071a565b935060608701356109d88161071a565b9598949750929560808101359460a0909101359350915050565b600080600060608486031215610a0757600080fd5b8335610a128161071a565b92506020840135610a228161071a565b929592945050506040919091013590565b600080600080600060a08688031215610a4b57600080fd5b8535610a568161071a565b94506020860135610a668161071a565b93506040860135610a768161071a565b92506060860135610a868161071a565b949793965091946080013592915050565b60008083601f840112610aa957600080fd5b50813567ffffffffffffffff811115610ac157600080fd5b6020830191508360208260051b8501011115610adc57600080fd5b9250929050565b60008060008060408587031215610af957600080fd5b843567ffffffffffffffff811115610b1057600080fd5b610b1c87828801610a97565b909550935050602085013567ffffffffffffffff811115610b3c57600080fd5b610b4887828801610a97565b95989497509550505050565b634e487b7160e01b600052604160045260246000fd5b604051601f8201601f1916810167ffffffffffffffff81118282101715610b9357610b93610b54565b604052919050565b600067ffffffffffffffff821115610bb557610bb5610b54565b5060051b60200190565b600082601f830112610bd057600080fd5b8135610be3610bde82610b9b565b610b6a565b8082825260208201915060208360051b860101925085831115610c0557600080fd5b602085015b83811015610c22578035835260209283019201610c0a565b5095945050505050565b600080600060608486031215610c4157600080fd5b833567ffffffffffffffff811115610c5857600080fd5b8401601f81018613610c6957600080fd5b8035610c77610bde82610b9b565b8082825260208201915060208360051b850101925088831115610c9957600080fd5b6020840193505b82841015610cc4578335610cb38161071a565b825260209384019390910190610ca0565b9550505050602084013567ffffffffffffffff811115610ce357600080fd5b610cef86828701610bbf565b925050604084013567ffffffffffffffff811115610d0c57600080fd5b610d1886828701610bbf565b9150509250925092565b602080825282518282018190526000918401906040840190835b81811015610d635783516001600160a01b0316835260209384019390920191600101610d3c565b509095945050505050565b60008060208385031215610d8157600080fd5b823567ffffffffffffffff811115610d9857600080fd5b610da485828601610a97565b90969095509350505050565b602080825282518282018190526000918401906040840190835b81811015610d63578351835260209384019390920191600101610dca565b600080600080600060a08688031215610e0057600080fd5b8535610e0b8161071a565b94506020860135610e1b8161071a565b93506040860135610e2b8161071a565b925060608601359150610e4060808701610768565b9050929550929590935056fea26469706673582212205852eb1eaba260310d4030a422c3b7a09d26ae56ebe5963a753e1d35be98dc6c64736f6c634300081a0033","linkReferences":{}},"methodIdentifiers":{"_become(address)":"1d504dc6","_grantComp(address,uint256)":"27efe3cb","_setBorrowCapGuardian(address)":"391957d7","_setBorrowPaused(address,bool)":"18c882a5","_setCloseFactor(uint256)":"317b0b77","_setCollateralFactor(address,uint256)":"e4028eee","_setCompSpeeds(address[],uint256[],uint256[])":"a8b43948","_setContributorCompSpeed(address,uint256)":"598ee1cb","_setLiquidationIncentive(uint256)":"4fd42e17","_setMarketBorrowCaps(address[],uint256[])":"607ef6c1","_setMintPaused(address,bool)":"3bcf7ec1","_setPauseGuardian(address)":"5f5af1aa","_setPriceOracle(address)":"55ee1fe1","_setProtocolPaused(bool)":"2a6a6065","_setSeizePaused(bool)":"2d70db78","_setTransferPaused(bool)":"8ebf6364","_supportMarket(address)":"a76b3fda","approvedDelegates(address,address)":"10b98338","borrowAllowed(address,address,uint256)":"da3d454c","borrowCapGuardian()":"21af4569","borrowCaps(address)":"4a584432","borrowVerify(address,address,uint256)":"5c778605","checkMembership(address,address)":"929fe9a1","claimVenus(address)":"adcd5fb9","closeFactorMantissa()":"e8755446","enterMarkets(address[])":"c2998238","exitMarket(address)":"ede4edd0","getAccountLiquidity(address)":"5ec88c79","getAllMarkets()":"b0772d0b","getAssetsIn(address)":"abfceffc","getHypotheticalAccountLiquidity(address,address,uint256,uint256)":"4e79238f","getXVSAddress()":"bf32442d","isComptroller()":"007e3dd2","liquidateBorrowAllowed(address,address,address,address,uint256)":"5fc7e71e","liquidateBorrowVerify(address,address,address,address,uint256,uint256)":"47ef3b3b","liquidateCalculateSeizeTokens(address,address,uint256)":"c488847b","liquidationIncentiveMantissa()":"4ada90af","markets(address)":"8e8f294b","minLiquidatableCollateral()":"db5c65de","mintAllowed(address,address,uint256)":"4ef4c3e1","mintVerify(address,address,uint256,uint256)":"41c728b9","mintedVAIs(address)":"2bc7e29e","oracle()":"7dc0d1d0","pauseGuardian()":"24a3d622","preBorrowHook(address,address,uint256)":"df71403b","preLiquidateHook(address,address,address,uint256,bool)":"e89d51ad","preMintHook(address,address,uint256)":"c0891ba9","preRedeemHook(address,address,uint256)":"8e6470ea","preRepayHook(address,address)":"eade3eed","preSeizeHook(address,address,address,address)":"1bc41f28","preTransferHook(address,address,address,uint256)":"6d0be88d","protocolPaused()":"425fad58","redeemAllowed(address,address,uint256)":"eabe7d91","redeemVerify(address,address,uint256,uint256)":"51dff989","repayBorrowAllowed(address,address,address,uint256)":"24008a62","repayBorrowVerify(address,address,address,uint256,uint256)":"1ededc91","seizeVerify(address,address,address,address,uint256)":"6d35bf91","transferVerify(address,address,address,uint256)":"6a56947e","updateDelegate(address,bool)":"ddbf54fd","vaiController()":"9254f5e5","vaiMintRate()":"bec04f72","venusAccrued(address)":"8a7dc165","venusBorrowSpeeds(address)":"bbb8864a","venusBorrowState(address)":"e37d4b79","venusBorrowerIndex(address,address)":"08e0225c","venusInitialIndex()":"c5b4db55","venusSupplierIndex(address,address)":"41a18d2c","venusSupplySpeeds(address)":"5dd3fc9d","venusSupplyState(address)":"b8324c7c"},"id":14}