{"abi":[{"type":"function","name":"accrualBlockNumber","inputs":[],"outputs":[{"name":"","type":"uint256","internalType":"uint256"}],"stateMutability":"view"},{"type":"function","name":"accrueInterest","inputs":[],"outputs":[{"name":"","type":"uint256","internalType":"uint256"}],"stateMutability":"nonpayable"},{"type":"function","name":"badDebt","inputs":[],"outputs":[{"name":"","type":"uint256","internalType":"uint256"}],"stateMutability":"nonpayable"},{"type":"function","name":"balanceOf","inputs":[{"name":"owner","type":"address","internalType":"address"}],"outputs":[{"name":"","type":"uint256","internalType":"uint256"}],"stateMutability":"view"},{"type":"function","name":"borrow","inputs":[{"name":"borrowAmount","type":"uint256","internalType":"uint256"}],"outputs":[{"name":"","type":"uint256","internalType":"uint256"}],"stateMutability":"nonpayable"},{"type":"function","name":"borrowBalanceCurrent","inputs":[{"name":"account","type":"address","internalType":"address"}],"outputs":[{"name":"","type":"uint256","internalType":"uint256"}],"stateMutability":"nonpayable"},{"type":"function","name":"borrowBehalf","inputs":[{"name":"borrwwer","type":"address","internalType":"address"},{"name":"borrowAmount","type":"uint256","internalType":"uint256"}],"outputs":[{"name":"","type":"uint256","internalType":"uint256"}],"stateMutability":"nonpayable"},{"type":"function","name":"exchangeRateCurrent","inputs":[],"outputs":[{"name":"","type":"uint256","internalType":"uint256"}],"stateMutability":"nonpayable"},{"type":"function","name":"forceLiquidateBorrow","inputs":[{"name":"liquidator","type":"address","internalType":"address"},{"name":"borrower","type":"address","internalType":"address"},{"name":"repayAmount","type":"uint256","internalType":"uint256"},{"name":"vTokenCollateral","type":"address","internalType":"address"},{"name":"skipCloseFactorCheck","type":"bool","internalType":"bool"}],"outputs":[],"stateMutability":"nonpayable"},{"type":"function","name":"getCash","inputs":[],"outputs":[{"name":"","type":"uint256","internalType":"uint256"}],"stateMutability":"view"},{"type":"function","name":"healBorrow","inputs":[{"name":"payer","type":"address","internalType":"address"},{"name":"borrower","type":"address","internalType":"address"},{"name":"repayAmount","type":"uint256","internalType":"uint256"}],"outputs":[],"stateMutability":"nonpayable"},{"type":"function","name":"isCToken","inputs":[],"outputs":[{"name":"","type":"bool","internalType":"bool"}],"stateMutability":"view"},{"type":"function","name":"liquidateBorrow","inputs":[{"name":"borrower","type":"address","internalType":"address"},{"name":"repayAmount","type":"uint256","internalType":"uint256"},{"name":"vTokenCollateral","type":"address","internalType":"contract VTokenInterface"}],"outputs":[{"name":"","type":"uint256","internalType":"uint256"}],"stateMutability":"nonpayable"},{"type":"function","name":"mint","inputs":[],"outputs":[],"stateMutability":"payable"},{"type":"function","name":"mint","inputs":[{"name":"mintAmount","type":"uint256","internalType":"uint256"}],"outputs":[{"name":"","type":"uint256","internalType":"uint256"}],"stateMutability":"nonpayable"},{"type":"function","name":"mintBehalf","inputs":[{"name":"minter","type":"address","internalType":"address"},{"name":"mintAllowed","type":"uint256","internalType":"uint256"}],"outputs":[{"name":"","type":"uint256","internalType":"uint256"}],"stateMutability":"nonpayable"},{"type":"function","name":"mintBehalf","inputs":[{"name":"minter","type":"address","internalType":"address"}],"outputs":[],"stateMutability":"payable"},{"type":"function","name":"redeem","inputs":[{"name":"redeemTokens","type":"uint256","internalType":"uint256"}],"outputs":[{"name":"","type":"uint256","internalType":"uint256"}],"stateMutability":"nonpayable"},{"type":"function","name":"redeemBehalf","inputs":[{"name":"redeemer","type":"address","internalType":"address"},{"name":"redeemTokens","type":"uint256","internalType":"uint256"}],"outputs":[{"name":"","type":"uint256","internalType":"uint256"}],"stateMutability":"nonpayable"},{"type":"function","name":"redeemUnderlying","inputs":[{"name":"redeemAmount","type":"uint256","internalType":"uint256"}],"outputs":[{"name":"","type":"uint256","internalType":"uint256"}],"stateMutability":"nonpayable"},{"type":"function","name":"redeemUnderlyingBehalf","inputs":[{"name":"redeemer","type":"address","internalType":"address"},{"name":"redeemAmount","type":"uint256","internalType":"uint256"}],"outputs":[{"name":"","type":"uint256","internalType":"uint256"}],"stateMutability":"nonpayable"},{"type":"function","name":"repayBorrow","inputs":[{"name":"repayAmount","type":"uint256","internalType":"uint256"}],"outputs":[{"name":"","type":"uint256","internalType":"uint256"}],"stateMutability":"nonpayable"},{"type":"function","name":"repayBorrowBehalf","inputs":[{"name":"borrower","type":"address","internalType":"address"},{"name":"repayAmount","type":"uint256","internalType":"uint256"}],"outputs":[{"name":"","type":"uint256","internalType":"uint256"}],"stateMutability":"nonpayable"},{"type":"function","name":"seize","inputs":[{"name":"liquidator","type":"address","internalType":"address"},{"name":"borrower","type":"address","internalType":"address"},{"name":"seizeTokens","type":"uint256","internalType":"uint256"}],"outputs":[],"stateMutability":"nonpayable"},{"type":"function","name":"sweepToken","inputs":[{"name":"token","type":"address","internalType":"address"}],"outputs":[],"stateMutability":"nonpayable"},{"type":"function","name":"totalBorrowsCurrent","inputs":[],"outputs":[{"name":"","type":"uint256","internalType":"uint256"}],"stateMutability":"nonpayable"},{"type":"function","name":"totalReserves","inputs":[],"outputs":[{"name":"","type":"uint256","internalType":"uint256"}],"stateMutability":"nonpayable"},{"type":"function","name":"totalSupply","inputs":[],"outputs":[{"name":"","type":"uint256","internalType":"uint256"}],"stateMutability":"nonpayable"},{"type":"function","name":"transfer","inputs":[{"name":"dst","type":"address","internalType":"address"},{"name":"amount","type":"uint256","internalType":"uint256"}],"outputs":[{"name":"","type":"bool","internalType":"bool"}],"stateMutability":"nonpayable"},{"type":"function","name":"transferFrom","inputs":[{"name":"src","type":"address","internalType":"address"},{"name":"dst","type":"address","internalType":"address"},{"name":"amount","type":"uint256","internalType":"uint256"}],"outputs":[{"name":"","type":"bool","internalType":"bool"}],"stateMutability":"nonpayable"}],"bytecode":{"object":"0x6080604052348015600f57600080fd5b506104eb8061001f6000396000f3fe6080604052600436106101cd5760003560e01c8063856e5bb3116100f7578063bbcac55711610095578063db006a7511610064578063db006a75146101d2578063df3a516e14610255578063f5e3c46214610317578063fe9c44ae1461033257600080fd5b8063bbcac55714610223578063bd6d894d14610223578063c2eae83814610309578063c5ebeaec146101d257600080fd5b8063a0712d68116100d1578063a0712d68146101d2578063a6afed9514610223578063a9059cbb146102ee578063b2a02ff1146102ac57600080fd5b8063856e5bb3146102555780638bbdb6db146102cc5780638f840ddd1461022357600080fd5b806323b872dd1161016f5780636c540baf1161013e5780636c540baf1461022357806370a082311461020857806373acee9814610223578063852a12e3146101d257600080fd5b806323b872dd146102785780632608f818146102555780633b1d21a21461022357806344fe6ffe146102ac57600080fd5b806318160ddd116101ab57806318160ddd146102235780631be1956014610237578063210bc0521461025557806323323e031461025557600080fd5b80630e752702146101d25780631249c58b1461020657806317bfdfbc14610208575b600080fd5b3480156101de57600080fd5b506101f36101ed366004610347565b50600090565b6040519081526020015b60405180910390f35b005b34801561021457600080fd5b506101f36101ed366004610375565b34801561022f57600080fd5b5060006101f3565b34801561024357600080fd5b50610206610252366004610375565b50565b34801561026157600080fd5b506101f3610270366004610399565b600092915050565b34801561028457600080fd5b5061029c6102933660046103c5565b60009392505050565b60405190151581526020016101fd565b3480156102b857600080fd5b506102066102c73660046103c5565b505050565b3480156102d857600080fd5b506102066102e7366004610406565b5050505050565b3480156102fa57600080fd5b5061029c610270366004610399565b610206610252366004610375565b34801561032357600080fd5b506101f3610293366004610473565b34801561033e57600080fd5b5061029c600181565b60006020828403121561035957600080fd5b5035919050565b6001600160a01b038116811461025257600080fd5b60006020828403121561038757600080fd5b813561039281610360565b9392505050565b600080604083850312156103ac57600080fd5b82356103b781610360565b946020939093013593505050565b6000806000606084860312156103da57600080fd5b83356103e581610360565b925060208401356103f581610360565b929592945050506040919091013590565b600080600080600060a0868803121561041e57600080fd5b853561042981610360565b9450602086013561043981610360565b935060408601359250606086013561045081610360565b91506080860135801515811461046557600080fd5b809150509295509295909350565b60008060006060848603121561048857600080fd5b833561049381610360565b92506020840135915060408401356104aa81610360565b80915050925092509256fea2646970667358221220d53a40fc2263ed6d7ebdf2abafe1bbe8a3bd34a48fa62043e6a5076eb16a036f64736f6c634300081a0033","linkReferences":{}},"methodIdentifiers":{"accrualBlockNumber()":"6c540baf","accrueInterest()":"a6afed95","badDebt()":"bbcac557","balanceOf(address)":"70a08231","borrow(uint256)":"c5ebeaec","borrowBalanceCurrent(address)":"17bfdfbc","borrowBehalf(address,uint256)":"856e5bb3","exchangeRateCurrent()":"bd6d894d","forceLiquidateBorrow(address,address,uint256,address,bool)":"8bbdb6db","getCash()":"3b1d21a2","healBorrow(address,address,uint256)":"44fe6ffe","isCToken()":"fe9c44ae","liquidateBorrow(address,uint256,address)":"f5e3c462","mint()":"1249c58b","mint(uint256)":"a0712d68","mintBehalf(address)":"c2eae838","mintBehalf(address,uint256)":"23323e03","redeem(uint256)":"db006a75","redeemBehalf(address,uint256)":"210bc052","redeemUnderlying(uint256)":"852a12e3","redeemUnderlyingBehalf(address,uint256)":"df3a516e","repayBorrow(uint256)":"0e752702","repayBorrowBehalf(address,uint256)":"2608f818","seize(address,address,uint256)":"b2a02ff1","sweepToken(address)":"1be19560","totalBorrowsCurrent()":"73acee98","totalReserves()":"8f840ddd","totalSupply()":"18160ddd","transfer(address,uint256)":"a9059cbb","transferFrom(address,address,uint256)":"23b872dd"},"id":22}