{"abi":[{"type":"function","name":"_become","inputs":[{"name":"unitroller","type":"address","internalType":"address"}],"outputs":[],"stateMutability":"nonpayable"},{"type":"function","name":"_grantComp","inputs":[{"name":"recipient","type":"address","internalType":"address"},{"name":"amount","type":"uint256","internalType":"uint256"}],"outputs":[],"stateMutability":"nonpayable"},{"type":"function","name":"_setBorrowCapGuardian","inputs":[{"name":"newBorrowCapGuardian","type":"address","internalType":"address"}],"outputs":[],"stateMutability":"nonpayable"},{"type":"function","name":"_setBorrowPaused","inputs":[{"name":"cToken","type":"address","internalType":"contract CTokenInterface"},{"name":"state","type":"bool","internalType":"bool"}],"outputs":[{"name":"","type":"bool","internalType":"bool"}],"stateMutability":"nonpayable"},{"type":"function","name":"_setCloseFactor","inputs":[{"name":"newCloseFactorMantissa","type":"uint256","internalType":"uint256"}],"outputs":[{"name":"","type":"uint256","internalType":"uint256"}],"stateMutability":"nonpayable"},{"type":"function","name":"_setCollateralFactor","inputs":[{"name":"cToken","type":"address","internalType":"contract CTokenInterface"},{"name":"newCollateralFactorMantissa","type":"uint256","internalType":"uint256"}],"outputs":[{"name":"","type":"uint256","internalType":"uint256"}],"stateMutability":"nonpayable"},{"type":"function","name":"_setCompSpeeds","inputs":[{"name":"cTokens","type":"address[]","internalType":"contract CTokenInterface[]"},{"name":"supplySpeeds","type":"uint256[]","internalType":"uint256[]"},{"name":"borrowSpeeds","type":"uint256[]","internalType":"uint256[]"}],"outputs":[],"stateMutability":"nonpayable"},{"type":"function","name":"_setContributorCompSpeed","inputs":[{"name":"contributor","type":"address","internalType":"address"},{"name":"compSpeed","type":"uint256","internalType":"uint256"}],"outputs":[],"stateMutability":"nonpayable"},{"type":"function","name":"_setLiquidationIncentive","inputs":[{"name":"newLiquidationIncentiveMantissa","type":"uint256","internalType":"uint256"}],"outputs":[{"name":"","type":"uint256","internalType":"uint256"}],"stateMutability":"nonpayable"},{"type":"function","name":"_setMarketBorrowCaps","inputs":[{"name":"cTokens","type":"address[]","internalType":"contract CTokenInterface[]"},{"name":"newBorrowCaps","type":"uint256[]","internalType":"uint256[]"}],"outputs":[],"stateMutability":"nonpayable"},{"type":"function","name":"_setMintPaused","inputs":[{"name":"cToken","type":"address","internalType":"contract CTokenInterface"},{"name":"state","type":"bool","internalType":"bool"}],"outputs":[{"name":"","type":"bool","internalType":"bool"}],"stateMutability":"nonpayable"},{"type":"function","name":"_setPauseGuardian","inputs":[{"name":"newPauseGuardian","type":"address","internalType":"address"}],"outputs":[{"name":"","type":"uint256","internalType":"uint256"}],"stateMutability":"nonpayable"},{"type":"function","name":"_setPriceOracle","inputs":[{"name":"newOracle","type":"address","internalType":"address"}],"outputs":[{"name":"","type":"uint256","internalType":"uint256"}],"stateMutability":"nonpayable"},{"type":"function","name":"_setSeizePaused","inputs":[{"name":"state","type":"bool","internalType":"bool"}],"outputs":[{"name":"","type":"bool","internalType":"bool"}],"stateMutability":"nonpayable"},{"type":"function","name":"_setTransferPaused","inputs":[{"name":"state","type":"bool","internalType":"bool"}],"outputs":[{"name":"","type":"bool","internalType":"bool"}],"stateMutability":"nonpayable"},{"type":"function","name":"_supportMarket","inputs":[{"name":"cToken","type":"address","internalType":"contract CTokenInterface"}],"outputs":[{"name":"","type":"uint256","internalType":"uint256"}],"stateMutability":"nonpayable"},{"type":"function","name":"borrowCapGuardian","inputs":[],"outputs":[{"name":"","type":"address","internalType":"address"}],"stateMutability":"view"},{"type":"function","name":"borrowGuardianPaused","inputs":[{"name":"","type":"address","internalType":"address"}],"outputs":[{"name":"","type":"bool","internalType":"bool"}],"stateMutability":"nonpayable"},{"type":"function","name":"claimComp","inputs":[{"name":"holder","type":"address","internalType":"address"}],"outputs":[],"stateMutability":"nonpayable"},{"type":"function","name":"closeFactorMantissa","inputs":[],"outputs":[{"name":"","type":"uint256","internalType":"uint256"}],"stateMutability":"view"},{"type":"function","name":"compAccrued","inputs":[{"name":"","type":"address","internalType":"address"}],"outputs":[{"name":"","type":"uint256","internalType":"uint256"}],"stateMutability":"nonpayable"},{"type":"function","name":"compBorrowSpeeds","inputs":[{"name":"","type":"address","internalType":"address"}],"outputs":[{"name":"","type":"uint256","internalType":"uint256"}],"stateMutability":"nonpayable"},{"type":"function","name":"compBorrowState","inputs":[{"name":"","type":"address","internalType":"address"}],"outputs":[{"name":"","type":"uint256","internalType":"uint256"},{"name":"","type":"uint256","internalType":"uint256"}],"stateMutability":"nonpayable"},{"type":"function","name":"compBorrowerIndex","inputs":[{"name":"market","type":"address","internalType":"address"},{"name":"borrower","type":"address","internalType":"address"}],"outputs":[{"name":"","type":"uint256","internalType":"uint256"}],"stateMutability":"nonpayable"},{"type":"function","name":"compContributorSpeeds","inputs":[{"name":"","type":"address","internalType":"address"}],"outputs":[{"name":"","type":"uint256","internalType":"uint256"}],"stateMutability":"nonpayable"},{"type":"function","name":"compSupplierIndex","inputs":[{"name":"market","type":"address","internalType":"address"},{"name":"supplier","type":"address","internalType":"address"}],"outputs":[{"name":"","type":"uint256","internalType":"uint256"}],"stateMutability":"nonpayable"},{"type":"function","name":"compSupplySpeeds","inputs":[{"name":"","type":"address","internalType":"address"}],"outputs":[{"name":"","type":"uint256","internalType":"uint256"}],"stateMutability":"nonpayable"},{"type":"function","name":"compSupplyState","inputs":[{"name":"","type":"address","internalType":"address"}],"outputs":[{"name":"","type":"uint256","internalType":"uint256"},{"name":"","type":"uint256","internalType":"uint256"}],"stateMutability":"nonpayable"},{"type":"function","name":"enterMarkets","inputs":[{"name":"cTokens","type":"address[]","internalType":"address[]"}],"outputs":[{"name":"","type":"uint256[]","internalType":"uint256[]"}],"stateMutability":"nonpayable"},{"type":"function","name":"getAccountLiquidity","inputs":[{"name":"account","type":"address","internalType":"address"}],"outputs":[{"name":"","type":"uint256","internalType":"uint256"},{"name":"","type":"uint256","internalType":"uint256"},{"name":"","type":"uint256","internalType":"uint256"}],"stateMutability":"view"},{"type":"function","name":"getAllMarkets","inputs":[],"outputs":[{"name":"","type":"address[]","internalType":"address[]"}],"stateMutability":"view"},{"type":"function","name":"getAssetsIn","inputs":[{"name":"account","type":"address","internalType":"address"}],"outputs":[{"name":"","type":"address[]","internalType":"address[]"}],"stateMutability":"view"},{"type":"function","name":"isComptroller","inputs":[],"outputs":[{"name":"","type":"bool","internalType":"bool"}],"stateMutability":"view"},{"type":"function","name":"liquidateCalculateSeizeTokens","inputs":[{"name":"cTokenBorrowed","type":"address","internalType":"address"},{"name":"cTokenCollateral","type":"address","internalType":"address"},{"name":"repayAmount","type":"uint256","internalType":"uint256"}],"outputs":[{"name":"","type":"uint256","internalType":"uint256"},{"name":"","type":"uint256","internalType":"uint256"}],"stateMutability":"view"},{"type":"function","name":"liquidationIncentiveMantissa","inputs":[],"outputs":[{"name":"","type":"uint256","internalType":"uint256"}],"stateMutability":"view"},{"type":"function","name":"markets","inputs":[{"name":"cToken","type":"address","internalType":"address"}],"outputs":[{"name":"","type":"bool","internalType":"bool"},{"name":"","type":"uint256","internalType":"uint256"},{"name":"","type":"bool","internalType":"bool"}],"stateMutability":"view"},{"type":"function","name":"mintGuardianPaused","inputs":[{"name":"","type":"address","internalType":"address"}],"outputs":[{"name":"","type":"bool","internalType":"bool"}],"stateMutability":"nonpayable"},{"type":"function","name":"oracle","inputs":[],"outputs":[{"name":"","type":"address","internalType":"address"}],"stateMutability":"nonpayable"},{"type":"function","name":"pauseGuardian","inputs":[],"outputs":[{"name":"","type":"address","internalType":"address"}],"stateMutability":"view"},{"type":"function","name":"reserveFactorMantissa","inputs":[],"outputs":[{"name":"","type":"uint256","internalType":"uint256"}],"stateMutability":"view"},{"type":"function","name":"seizeGuardianPaused","inputs":[],"outputs":[{"name":"","type":"bool","internalType":"bool"}],"stateMutability":"nonpayable"},{"type":"function","name":"transferGuardianPaused","inputs":[],"outputs":[{"name":"","type":"bool","internalType":"bool"}],"stateMutability":"nonpayable"},{"type":"function","name":"updateContributorRewards","inputs":[{"name":"contributor","type":"address","internalType":"address"}],"outputs":[],"stateMutability":"nonpayable"}],"bytecode":{"object":"0x6080604052348015600f57600080fd5b50610b608061001f6000396000f3fe608060405234801561001057600080fd5b50600436106102685760003560e01c8063731f0c2b11610151578063ac0b0bb7116100c3578063ca0af04311610087578063ca0af04314610417578063cc7ebdc41461031a578063e4028eee14610459578063e87554461461028a578063e9af029214610309578063f4a433c01461031a57600080fd5b8063ac0b0bb7146103a8578063b0772d0b14610410578063b21be7fd14610417578063c299823814610425578063c488847b1461044057600080fd5b80638e8f294b116101155780638e8f294b146103af5780638ebf6364146102e7578063986ab8381461031a578063a76b3fda1461031a578063a8b43948146103dc578063abfceffc146103ef57600080fd5b8063731f0c2b1461039a578063741b2525146103095780637dc0d1d0146102c657806387f76303146103a85780638c57804e1461036f57600080fd5b80633bcf7ec1116101ea5780635ec88c79116101ae5780635ec88c79146103285780635f5af1aa1461031a578063607ef6c11461035b5780636aa875b51461031a5780636b79c38d1461036f5780636d154ea51461039a57600080fd5b80633bcf7ec11461029b5780634ada90af1461028a5780634fd42e17146102fb57806355ee1fe11461031a578063598ee1cb146102d557600080fd5b806324a3d6221161023157806324a3d622146102c657806327efe3cb146102d55780632d70db78146102e7578063317b0b77146102fb578063391957d71461030957600080fd5b80627e3dd21461026d578063173b99041461028a57806318c882a51461029b5780631d504dc6146102b157806321af4569146102c6575b600080fd5b610275600181565b60405190151581526020015b60405180910390f35b60005b604051908152602001610281565b6102756102a9366004610613565b600092915050565b6102c46102bf366004610648565b610467565b005b60405160008152602001610281565b6102c46102e336600461066c565b5050565b6102756102f5366004610698565b50600090565b61028d6102f53660046106b3565b6102c4610317366004610648565b50565b61028d6102f5366004610648565b610340610336366004610648565b5060009081908190565b60408051938452602084019290925290820152606001610281565b6102c4610369366004610718565b50505050565b61038561037d366004610648565b600080915091565b60408051928352602083019190915201610281565b6102756102f5366004610648565b6000610275565b6103bd610336366004610648565b6040805193151584526020840192909252151590820152606001610281565b6102c46103ea366004610861565b505050565b6104036103fd366004610648565b50606090565b6040516102819190610957565b6060610403565b61028d6102a93660046109a3565b6104336103fd3660046109dc565b6040516102819190610a7b565b61038561044e366004610ab3565b600080935093915050565b61028d6102a936600461066c565b806001600160a01b031663f851a4406040518163ffffffff1660e01b81526004016020604051808303816000875af11580156104a7573d6000803e3d6000fd5b505050506040513d601f19601f820116820180604052508101906104cb9190610af4565b6001600160a01b0316336001600160a01b0316146105405760405162461bcd60e51b815260206004820152602760248201527f6f6e6c7920756e6974726f6c6c65722061646d696e2063616e206368616e676560448201526620627261696e7360c81b60648201526084015b60405180910390fd5b806001600160a01b031663c1e803346040518163ffffffff1660e01b81526004016020604051808303816000875af1158015610580573d6000803e3d6000fd5b505050506040513d601f19601f820116820180604052508101906105a49190610b11565b156103175760405162461bcd60e51b815260206004820152601560248201527418da185b99d9481b9bdd08185d5d1a1bdc9a5e9959605a1b6044820152606401610537565b6001600160a01b038116811461031757600080fd5b8035801515811461060e57600080fd5b919050565b6000806040838503121561062657600080fd5b8235610631816105e9565b915061063f602084016105fe565b90509250929050565b60006020828403121561065a57600080fd5b8135610665816105e9565b9392505050565b6000806040838503121561067f57600080fd5b823561068a816105e9565b946020939093013593505050565b6000602082840312156106aa57600080fd5b610665826105fe565b6000602082840312156106c557600080fd5b5035919050565b60008083601f8401126106de57600080fd5b50813567ffffffffffffffff8111156106f657600080fd5b6020830191508360208260051b850101111561071157600080fd5b9250929050565b6000806000806040858703121561072e57600080fd5b843567ffffffffffffffff81111561074557600080fd5b610751878288016106cc565b909550935050602085013567ffffffffffffffff81111561077157600080fd5b61077d878288016106cc565b95989497509550505050565b634e487b7160e01b600052604160045260246000fd5b604051601f8201601f1916810167ffffffffffffffff811182821017156107c8576107c8610789565b604052919050565b600067ffffffffffffffff8211156107ea576107ea610789565b5060051b60200190565b600082601f83011261080557600080fd5b8135610818610813826107d0565b61079f565b8082825260208201915060208360051b86010192508583111561083a57600080fd5b602085015b8381101561085757803583526020928301920161083f565b5095945050505050565b60008060006060848603121561087657600080fd5b833567ffffffffffffffff81111561088d57600080fd5b8401601f8101861361089e57600080fd5b80356108ac610813826107d0565b8082825260208201915060208360051b8501019250888311156108ce57600080fd5b6020840193505b828410156108f95783356108e8816105e9565b8252602093840193909101906108d5565b9550505050602084013567ffffffffffffffff81111561091857600080fd5b610924868287016107f4565b925050604084013567ffffffffffffffff81111561094157600080fd5b61094d868287016107f4565b9150509250925092565b602080825282518282018190526000918401906040840190835b818110156109985783516001600160a01b0316835260209384019390920191600101610971565b509095945050505050565b600080604083850312156109b657600080fd5b82356109c1816105e9565b915060208301356109d1816105e9565b809150509250929050565b6000602082840312156109ee57600080fd5b813567ffffffffffffffff811115610a0557600080fd5b8201601f81018413610a1657600080fd5b8035610a24610813826107d0565b8082825260208201915060208360051b850101925086831115610a4657600080fd5b6020840193505b82841015610a71578335610a60816105e9565b825260209384019390910190610a4d565b9695505050505050565b602080825282518282018190526000918401906040840190835b81811015610998578351835260209384019390920191600101610a95565b600080600060608486031215610ac857600080fd5b8335610ad3816105e9565b92506020840135610ae3816105e9565b929592945050506040919091013590565b600060208284031215610b0657600080fd5b8151610665816105e9565b600060208284031215610b2357600080fd5b505191905056fea26469706673582212203e5c10f8051aedf0bae6418be0ba7efe0c5c7dcaaaaa319f2e766c45a2b724e664736f6c634300081a0033","linkReferences":{}},"methodIdentifiers":{"_become(address)":"1d504dc6","_grantComp(address,uint256)":"27efe3cb","_setBorrowCapGuardian(address)":"391957d7","_setBorrowPaused(address,bool)":"18c882a5","_setCloseFactor(uint256)":"317b0b77","_setCollateralFactor(address,uint256)":"e4028eee","_setCompSpeeds(address[],uint256[],uint256[])":"a8b43948","_setContributorCompSpeed(address,uint256)":"598ee1cb","_setLiquidationIncentive(uint256)":"4fd42e17","_setMarketBorrowCaps(address[],uint256[])":"607ef6c1","_setMintPaused(address,bool)":"3bcf7ec1","_setPauseGuardian(address)":"5f5af1aa","_setPriceOracle(address)":"55ee1fe1","_setSeizePaused(bool)":"2d70db78","_setTransferPaused(bool)":"8ebf6364","_supportMarket(address)":"a76b3fda","borrowCapGuardian()":"21af4569","borrowGuardianPaused(address)":"6d154ea5","claimComp(address)":"e9af0292","closeFactorMantissa()":"e8755446","compAccrued(address)":"cc7ebdc4","compBorrowSpeeds(address)":"f4a433c0","compBorrowState(address)":"8c57804e","compBorrowerIndex(address,address)":"ca0af043","compContributorSpeeds(address)":"986ab838","compSupplierIndex(address,address)":"b21be7fd","compSupplySpeeds(address)":"6aa875b5","compSupplyState(address)":"6b79c38d","enterMarkets(address[])":"c2998238","getAccountLiquidity(address)":"5ec88c79","getAllMarkets()":"b0772d0b","getAssetsIn(address)":"abfceffc","isComptroller()":"007e3dd2","liquidateCalculateSeizeTokens(address,address,uint256)":"c488847b","liquidationIncentiveMantissa()":"4ada90af","markets(address)":"8e8f294b","mintGuardianPaused(address)":"731f0c2b","oracle()":"7dc0d1d0","pauseGuardian()":"24a3d622","reserveFactorMantissa()":"173b9904","seizeGuardianPaused()":"ac0b0bb7","transferGuardianPaused()":"87f76303","updateContributorRewards(address)":"741b2525"},"id":15}