{"abi":[{"type":"function","name":"_setProtocolPaused","inputs":[{"name":"state","type":"bool","internalType":"bool"}],"outputs":[{"name":"","type":"bool","internalType":"bool"}],"stateMutability":"nonpayable"},{"type":"function","name":"approvedDelegates","inputs":[{"name":"borrower","type":"address","internalType":"address"},{"name":"delegate","type":"address","internalType":"address"}],"outputs":[{"name":"","type":"bool","internalType":"bool"}],"stateMutability":"view"},{"type":"function","name":"borrowAllowed","inputs":[{"name":"vToken","type":"address","internalType":"address"},{"name":"borrower","type":"address","internalType":"address"},{"name":"borrowAmount","type":"uint256","internalType":"uint256"}],"outputs":[{"name":"","type":"uint256","internalType":"uint256"}],"stateMutability":"nonpayable"},{"type":"function","name":"borrowCaps","inputs":[{"name":"vToken","type":"address","internalType":"address"}],"outputs":[{"name":"","type":"uint256","internalType":"uint256"}],"stateMutability":"view"},{"type":"function","name":"borrowVerify","inputs":[{"name":"vToken","type":"address","internalType":"address"},{"name":"borrower","type":"address","internalType":"address"},{"name":"borrowAmount","type":"uint256","internalType":"uint256"}],"outputs":[],"stateMutability":"nonpayable"},{"type":"function","name":"checkMembership","inputs":[{"name":"account","type":"address","internalType":"address"},{"name":"vToken","type":"address","internalType":"address"}],"outputs":[{"name":"","type":"bool","internalType":"bool"}],"stateMutability":"view"},{"type":"function","name":"claimVenus","inputs":[{"name":"","type":"address","internalType":"address"}],"outputs":[],"stateMutability":"nonpayable"},{"type":"function","name":"closeFactorMantissa","inputs":[],"outputs":[{"name":"","type":"uint256","internalType":"uint256"}],"stateMutability":"view"},{"type":"function","name":"enterMarkets","inputs":[{"name":"vTokens","type":"address[]","internalType":"address[]"}],"outputs":[{"name":"","type":"uint256[]","internalType":"uint256[]"}],"stateMutability":"nonpayable"},{"type":"function","name":"exitMarket","inputs":[{"name":"vToken","type":"address","internalType":"address"}],"outputs":[{"name":"","type":"uint256","internalType":"uint256"}],"stateMutability":"nonpayable"},{"type":"function","name":"getAccountLiquidity","inputs":[{"name":"","type":"address","internalType":"address"}],"outputs":[{"name":"","type":"uint256","internalType":"uint256"},{"name":"","type":"uint256","internalType":"uint256"},{"name":"","type":"uint256","internalType":"uint256"}],"stateMutability":"view"},{"type":"function","name":"getAllMarkets","inputs":[],"outputs":[{"name":"","type":"address[]","internalType":"address[]"}],"stateMutability":"view"},{"type":"function","name":"getAssetsIn","inputs":[{"name":"","type":"address","internalType":"address"}],"outputs":[{"name":"","type":"address[]","internalType":"address[]"}],"stateMutability":"view"},{"type":"function","name":"getHypotheticalAccountLiquidity","inputs":[{"name":"account","type":"address","internalType":"address"},{"name":"vTokenModify","type":"address","internalType":"address"},{"name":"redeemTokens","type":"uint256","internalType":"uint256"},{"name":"borrowAmount","type":"uint256","internalType":"uint256"}],"outputs":[{"name":"","type":"uint256","internalType":"uint256"},{"name":"","type":"uint256","internalType":"uint256"},{"name":"","type":"uint256","internalType":"uint256"}],"stateMutability":"view"},{"type":"function","name":"getXVSAddress","inputs":[],"outputs":[{"name":"","type":"address","internalType":"address"}],"stateMutability":"view"},{"type":"function","name":"isComptroller","inputs":[],"outputs":[{"name":"","type":"bool","internalType":"bool"}],"stateMutability":"view"},{"type":"function","name":"liquidateBorrowAllowed","inputs":[{"name":"vTokenBorrowed","type":"address","internalType":"address"},{"name":"vTokenCollateral","type":"address","internalType":"address"},{"name":"liquidator","type":"address","internalType":"address"},{"name":"borrower","type":"address","internalType":"address"},{"name":"repayAmount","type":"uint256","internalType":"uint256"}],"outputs":[{"name":"","type":"uint256","internalType":"uint256"}],"stateMutability":"nonpayable"},{"type":"function","name":"liquidateBorrowVerify","inputs":[{"name":"vTokenBorrowed","type":"address","internalType":"address"},{"name":"vTokenCollateral","type":"address","internalType":"address"},{"name":"liquidator","type":"address","internalType":"address"},{"name":"borrower","type":"address","internalType":"address"},{"name":"repayAmount","type":"uint256","internalType":"uint256"},{"name":"seizeTokens","type":"uint256","internalType":"uint256"}],"outputs":[],"stateMutability":"nonpayable"},{"type":"function","name":"liquidateCalculateSeizeTokens","inputs":[{"name":"vTokenBorrowed","type":"address","internalType":"address"},{"name":"vTokenCollateral","type":"address","internalType":"address"},{"name":"repayAmount","type":"uint256","internalType":"uint256"}],"outputs":[{"name":"","type":"uint256","internalType":"uint256"},{"name":"","type":"uint256","internalType":"uint256"}],"stateMutability":"view"},{"type":"function","name":"liquidationIncentiveMantissa","inputs":[],"outputs":[{"name":"","type":"uint256","internalType":"uint256"}],"stateMutability":"view"},{"type":"function","name":"markets","inputs":[{"name":"","type":"address","internalType":"address"}],"outputs":[{"name":"","type":"bool","internalType":"bool"},{"name":"","type":"uint256","internalType":"uint256"}],"stateMutability":"view"},{"type":"function","name":"minLiquidatableCollateral","inputs":[],"outputs":[{"name":"","type":"uint256","internalType":"uint256"}],"stateMutability":"view"},{"type":"function","name":"mintAllowed","inputs":[{"name":"vToken","type":"address","internalType":"address"},{"name":"minter","type":"address","internalType":"address"},{"name":"mintAmount","type":"uint256","internalType":"uint256"}],"outputs":[{"name":"","type":"uint256","internalType":"uint256"}],"stateMutability":"nonpayable"},{"type":"function","name":"mintVerify","inputs":[{"name":"vToken","type":"address","internalType":"address"},{"name":"minter","type":"address","internalType":"address"},{"name":"mintAmount","type":"uint256","internalType":"uint256"},{"name":"mintTokens","type":"uint256","internalType":"uint256"}],"outputs":[],"stateMutability":"nonpayable"},{"type":"function","name":"mintedVAIs","inputs":[{"name":"user","type":"address","internalType":"address"}],"outputs":[{"name":"","type":"uint256","internalType":"uint256"}],"stateMutability":"view"},{"type":"function","name":"oracle","inputs":[],"outputs":[{"name":"","type":"address","internalType":"address"}],"stateMutability":"view"},{"type":"function","name":"preBorrowHook","inputs":[{"name":"vToken","type":"address","internalType":"address"},{"name":"borrower","type":"address","internalType":"address"},{"name":"borrowAmount","type":"uint256","internalType":"uint256"}],"outputs":[],"stateMutability":"nonpayable"},{"type":"function","name":"preLiquidateHook","inputs":[{"name":"vTokenBorrowed","type":"address","internalType":"address"},{"name":"vTokenCollateral","type":"address","internalType":"address"},{"name":"borrower","type":"address","internalType":"address"},{"name":"repayAmount","type":"uint256","internalType":"uint256"},{"name":"skipLiquidityCheck","type":"bool","internalType":"bool"}],"outputs":[],"stateMutability":"nonpayable"},{"type":"function","name":"preMintHook","inputs":[{"name":"vToken","type":"address","internalType":"address"},{"name":"minter","type":"address","internalType":"address"},{"name":"mintAmount","type":"uint256","internalType":"uint256"}],"outputs":[],"stateMutability":"nonpayable"},{"type":"function","name":"preRedeemHook","inputs":[{"name":"vToken","type":"address","internalType":"address"},{"name":"redeemer","type":"address","internalType":"address"},{"name":"redeemTokens","type":"uint256","internalType":"uint256"}],"outputs":[],"stateMutability":"nonpayable"},{"type":"function","name":"preRepayHook","inputs":[{"name":"vToken","type":"address","internalType":"address"},{"name":"borrower","type":"address","internalType":"address"}],"outputs":[],"stateMutability":"nonpayable"},{"type":"function","name":"preSeizeHook","inputs":[{"name":"vTokenCollateral","type":"address","internalType":"address"},{"name":"vTokenBorrowed","type":"address","internalType":"address"},{"name":"liquidator","type":"address","internalType":"address"},{"name":"borrower","type":"address","internalType":"address"}],"outputs":[],"stateMutability":"nonpayable"},{"type":"function","name":"preTransferHook","inputs":[{"name":"vToken","type":"address","internalType":"address"},{"name":"src","type":"address","internalType":"address"},{"name":"dst","type":"address","internalType":"address"},{"name":"transferTokens","type":"uint256","internalType":"uint256"}],"outputs":[],"stateMutability":"nonpayable"},{"type":"function","name":"protocolPaused","inputs":[],"outputs":[{"name":"","type":"bool","internalType":"bool"}],"stateMutability":"view"},{"type":"function","name":"redeemAllowed","inputs":[{"name":"vToken","type":"address","internalType":"address"},{"name":"redeemer","type":"address","internalType":"address"},{"name":"redeemTokens","type":"uint256","internalType":"uint256"}],"outputs":[{"name":"","type":"uint256","internalType":"uint256"}],"stateMutability":"nonpayable"},{"type":"function","name":"redeemVerify","inputs":[{"name":"vToken","type":"address","internalType":"address"},{"name":"redeemer","type":"address","internalType":"address"},{"name":"redeemAmount","type":"uint256","internalType":"uint256"},{"name":"redeemTokens","type":"uint256","internalType":"uint256"}],"outputs":[],"stateMutability":"nonpayable"},{"type":"function","name":"repayBorrowAllowed","inputs":[{"name":"vToken","type":"address","internalType":"address"},{"name":"payer","type":"address","internalType":"address"},{"name":"borrower","type":"address","internalType":"address"},{"name":"repayAmount","type":"uint256","internalType":"uint256"}],"outputs":[{"name":"","type":"uint256","internalType":"uint256"}],"stateMutability":"nonpayable"},{"type":"function","name":"repayBorrowVerify","inputs":[{"name":"vToken","type":"address","internalType":"address"},{"name":"payer","type":"address","internalType":"address"},{"name":"borrower","type":"address","internalType":"address"},{"name":"repayAmount","type":"uint256","internalType":"uint256"},{"name":"borrowerIndex","type":"uint256","internalType":"uint256"}],"outputs":[],"stateMutability":"nonpayable"},{"type":"function","name":"seizeVerify","inputs":[{"name":"vTokenCollateral","type":"address","internalType":"address"},{"name":"vTokenBorrowed","type":"address","internalType":"address"},{"name":"liquidator","type":"address","internalType":"address"},{"name":"borrower","type":"address","internalType":"address"},{"name":"seizeTokens","type":"uint256","internalType":"uint256"}],"outputs":[],"stateMutability":"nonpayable"},{"type":"function","name":"transferVerify","inputs":[{"name":"vToken","type":"address","internalType":"address"},{"name":"src","type":"address","internalType":"address"},{"name":"dst","type":"address","internalType":"address"},{"name":"transferTokens","type":"uint256","internalType":"uint256"}],"outputs":[],"stateMutability":"nonpayable"},{"type":"function","name":"updateDelegate","inputs":[{"name":"delegate","type":"address","internalType":"address"},{"name":"approved","type":"bool","internalType":"bool"}],"outputs":[],"stateMutability":"nonpayable"},{"type":"function","name":"vaiController","inputs":[],"outputs":[{"name":"","type":"address","internalType":"address"}],"stateMutability":"view"},{"type":"function","name":"vaiMintRate","inputs":[],"outputs":[{"name":"","type":"uint256","internalType":"uint256"}],"stateMutability":"view"},{"type":"function","name":"venusAccrued","inputs":[{"name":"","type":"address","internalType":"address"}],"outputs":[{"name":"","type":"uint256","internalType":"uint256"}],"stateMutability":"view"},{"type":"function","name":"venusBorrowSpeeds","inputs":[{"name":"","type":"address","internalType":"address"}],"outputs":[{"name":"","type":"uint256","internalType":"uint256"}],"stateMutability":"view"},{"type":"function","name":"venusBorrowState","inputs":[{"name":"","type":"address","internalType":"address"}],"outputs":[{"name":"","type":"uint224","internalType":"uint224"},{"name":"","type":"uint32","internalType":"uint32"}],"stateMutability":"view"},{"type":"function","name":"venusBorrowerIndex","inputs":[{"name":"","type":"address","internalType":"address"},{"name":"","type":"address","internalType":"address"}],"outputs":[{"name":"","type":"uint256","internalType":"uint256"}],"stateMutability":"view"},{"type":"function","name":"venusInitialIndex","inputs":[],"outputs":[{"name":"","type":"uint224","internalType":"uint224"}],"stateMutability":"view"},{"type":"function","name":"venusSupplierIndex","inputs":[{"name":"","type":"address","internalType":"address"},{"name":"","type":"address","internalType":"address"}],"outputs":[{"name":"","type":"uint256","internalType":"uint256"}],"stateMutability":"view"},{"type":"function","name":"venusSupplySpeeds","inputs":[{"name":"","type":"address","internalType":"address"}],"outputs":[{"name":"","type":"uint256","internalType":"uint256"}],"stateMutability":"view"},{"type":"function","name":"venusSupplyState","inputs":[{"name":"","type":"address","internalType":"address"}],"outputs":[{"name":"","type":"uint224","internalType":"uint224"},{"name":"","type":"uint32","internalType":"uint32"}],"stateMutability":"view"}],"bytecode":{"object":"0x6080604052348015600f57600080fd5b50610a3a8061001f6000396000f3fe608060405234801561001057600080fd5b50600436106102f05760003560e01c80638a7dc1651161019d578063c2998238116100e9578063df71403b116100a2578063e89d51ad1161007c578063e89d51ad14610594578063eabe7d9114610413578063eade3eed146105a2578063ede4edd01461039b57600080fd5b8063df71403b1461042a578063e37d4b79146104ff578063e8755446146103d457600080fd5b8063c299823814610531578063c488847b14610554578063c5b4db551461048a578063da3d454c14610413578063db5c65de146103d4578063ddbf54fd1461058257600080fd5b8063adcd5fb911610156578063bbb8864a11610130578063bbb8864a1461039b578063bec04f72146103d4578063bf32442d1461048a578063c0891ba91461042a57600080fd5b8063adcd5fb9146104e7578063b0772d0b146104f8578063b8324c7c146104ff57600080fd5b80638a7dc1651461039b5780638e6470ea1461042a5780638e8f294b146104995780639254f5e51461048a578063929fe9a114610336578063abfceffc146104c657600080fd5b80634a5844321161025c5780635dd3fc9d116102155780636a56947e116101ef5780636a56947e1461046e5780636d0be88d1461046e5780636d35bf911461047c5780637dc0d1d01461048a57600080fd5b80635dd3fc9d1461039b5780635ec88c791461043d5780635fc7e71e1461045557600080fd5b80634a5844321461039b5780634ada90af146103d45780634e79238f146103db5780634ef4c3e11461041357806351dff989146103a95780635c7786051461042a57600080fd5b80632a6a6065116102ae5780632a6a6065146103875780632bc7e29e1461039b57806341a18d2c1461031257806341c728b9146103a9578063425fad58146103b757806347ef3b3b146103be57600080fd5b80627e3dd2146102f557806308e0225c1461031257806310b98338146103365780631bc41f28146103445780631ededc911461035a57806324008a621461036f575b600080fd5b6102fd600181565b60405190151581526020015b60405180910390f35b6103286103203660046105cc565b600092915050565b604051908152602001610309565b6102fd6103203660046105cc565b6103586103523660046105ff565b50505050565b005b610358610368366004610653565b5050505050565b61032861037d3660046106a8565b6000949350505050565b6102fd610395366004610703565b50600090565b610328610395366004610725565b610358610352366004610740565b60006102fd565b6103586103cc366004610782565b505050505050565b6000610328565b6103f86103e9366004610740565b60008060009450945094915050565b60408051938452602084019290925290820152606001610309565b6103286104213660046107e8565b60009392505050565b6103586104383660046107e8565b505050565b6103f861044b366004610725565b5060009081908190565b610328610463366004610825565b600095945050505050565b6103586103523660046106a8565b610358610368366004610825565b60405160008152602001610309565b6104af6104a7366004610725565b600080915091565b604080519215158352602083019190915201610309565b6104da6104d4366004610725565b50606090565b6040516103099190610881565b6103586104f5366004610725565b50565b60606104da565b61050d6104a7366004610725565b604080516001600160e01b03909316835263ffffffff909116602083015201610309565b61054761053f3660046108cd565b606092915050565b6040516103099190610944565b61056d6105623660046107e8565b600080935093915050565b60408051928352602083019190915201610309565b61035861059036600461097c565b5050565b6103586103683660046109a6565b6103586105903660046105cc565b80356001600160a01b03811681146105c757600080fd5b919050565b600080604083850312156105df57600080fd5b6105e8836105b0565b91506105f6602084016105b0565b90509250929050565b6000806000806080858703121561061557600080fd5b61061e856105b0565b935061062c602086016105b0565b925061063a604086016105b0565b9150610648606086016105b0565b905092959194509250565b600080600080600060a0868803121561066b57600080fd5b610674866105b0565b9450610682602087016105b0565b9350610690604087016105b0565b94979396509394606081013594506080013592915050565b600080600080608085870312156106be57600080fd5b6106c7856105b0565b93506106d5602086016105b0565b92506106e3604086016105b0565b9396929550929360600135925050565b803580151581146105c757600080fd5b60006020828403121561071557600080fd5b61071e826106f3565b9392505050565b60006020828403121561073757600080fd5b61071e826105b0565b6000806000806080858703121561075657600080fd5b61075f856105b0565b935061076d602086016105b0565b93969395505050506040820135916060013590565b60008060008060008060c0878903121561079b57600080fd5b6107a4876105b0565b95506107b2602088016105b0565b94506107c0604088016105b0565b93506107ce606088016105b0565b9598949750929560808101359460a0909101359350915050565b6000806000606084860312156107fd57600080fd5b610806846105b0565b9250610814602085016105b0565b929592945050506040919091013590565b600080600080600060a0868803121561083d57600080fd5b610846866105b0565b9450610854602087016105b0565b9350610862604087016105b0565b9250610870606087016105b0565b949793965091946080013592915050565b602080825282518282018190526000918401906040840190835b818110156108c25783516001600160a01b031683526020938401939092019160010161089b565b509095945050505050565b600080602083850312156108e057600080fd5b823567ffffffffffffffff8111156108f757600080fd5b8301601f8101851361090857600080fd5b803567ffffffffffffffff81111561091f57600080fd5b8560208260051b840101111561093457600080fd5b6020919091019590945092505050565b602080825282518282018190526000918401906040840190835b818110156108c257835183526020938401939092019160010161095e565b6000806040838503121561098f57600080fd5b610998836105b0565b91506105f6602084016106f3565b600080600080600060a086880312156109be57600080fd5b6109c7866105b0565b94506109d5602087016105b0565b93506109e3604087016105b0565b9250606086013591506109f8608087016106f3565b9050929550929590935056fea26469706673582212201b436122f3f7904ad02924979cd93218455e2b74439523fc02215327441f457364736f6c634300081a0033","linkReferences":{}},"methodIdentifiers":{"_setProtocolPaused(bool)":"2a6a6065","approvedDelegates(address,address)":"10b98338","borrowAllowed(address,address,uint256)":"da3d454c","borrowCaps(address)":"4a584432","borrowVerify(address,address,uint256)":"5c778605","checkMembership(address,address)":"929fe9a1","claimVenus(address)":"adcd5fb9","closeFactorMantissa()":"e8755446","enterMarkets(address[])":"c2998238","exitMarket(address)":"ede4edd0","getAccountLiquidity(address)":"5ec88c79","getAllMarkets()":"b0772d0b","getAssetsIn(address)":"abfceffc","getHypotheticalAccountLiquidity(address,address,uint256,uint256)":"4e79238f","getXVSAddress()":"bf32442d","isComptroller()":"007e3dd2","liquidateBorrowAllowed(address,address,address,address,uint256)":"5fc7e71e","liquidateBorrowVerify(address,address,address,address,uint256,uint256)":"47ef3b3b","liquidateCalculateSeizeTokens(address,address,uint256)":"c488847b","liquidationIncentiveMantissa()":"4ada90af","markets(address)":"8e8f294b","minLiquidatableCollateral()":"db5c65de","mintAllowed(address,address,uint256)":"4ef4c3e1","mintVerify(address,address,uint256,uint256)":"41c728b9","mintedVAIs(address)":"2bc7e29e","oracle()":"7dc0d1d0","preBorrowHook(address,address,uint256)":"df71403b","preLiquidateHook(address,address,address,uint256,bool)":"e89d51ad","preMintHook(address,address,uint256)":"c0891ba9","preRedeemHook(address,address,uint256)":"8e6470ea","preRepayHook(address,address)":"eade3eed","preSeizeHook(address,address,address,address)":"1bc41f28","preTransferHook(address,address,address,uint256)":"6d0be88d","protocolPaused()":"425fad58","redeemAllowed(address,address,uint256)":"eabe7d91","redeemVerify(address,address,uint256,uint256)":"51dff989","repayBorrowAllowed(address,address,address,uint256)":"24008a62","repayBorrowVerify(address,address,address,uint256,uint256)":"1ededc91","seizeVerify(address,address,address,address,uint256)":"6d35bf91","transferVerify(address,address,address,uint256)":"6a56947e","updateDelegate(address,bool)":"ddbf54fd","vaiController()":"9254f5e5","vaiMintRate()":"bec04f72","venusAccrued(address)":"8a7dc165","venusBorrowSpeeds(address)":"bbb8864a","venusBorrowState(address)":"e37d4b79","venusBorrowerIndex(address,address)":"08e0225c","venusInitialIndex()":"c5b4db55","venusSupplierIndex(address,address)":"41a18d2c","venusSupplySpeeds(address)":"5dd3fc9d","venusSupplyState(address)":"b8324c7c"},"id":22}