{"abi":[{"type":"function","name":"_acceptAdmin","inputs":[],"outputs":[{"name":"","type":"uint256","internalType":"uint256"}],"stateMutability":"nonpayable"},{"type":"function","name":"_becomeImplementation","inputs":[{"name":"data","type":"bytes","internalType":"bytes"}],"outputs":[],"stateMutability":"nonpayable"},{"type":"function","name":"_reduceReserves","inputs":[{"name":"reduceAmount","type":"uint256","internalType":"uint256"}],"outputs":[{"name":"","type":"uint256","internalType":"uint256"}],"stateMutability":"nonpayable"},{"type":"function","name":"_resignImplementation","inputs":[],"outputs":[],"stateMutability":"nonpayable"},{"type":"function","name":"_setComptroller","inputs":[{"name":"newComptroller","type":"address","internalType":"contract ComptrollerInterface"}],"outputs":[{"name":"","type":"uint256","internalType":"uint256"}],"stateMutability":"nonpayable"},{"type":"function","name":"_setImplementation","inputs":[{"name":"implementation_","type":"address","internalType":"address"},{"name":"allowResign","type":"bool","internalType":"bool"},{"name":"becomeImplementationData","type":"bytes","internalType":"bytes"}],"outputs":[],"stateMutability":"nonpayable"},{"type":"function","name":"_setInterestRateModel","inputs":[{"name":"newInterestRateModel","type":"address","internalType":"contract InterestRateModel"}],"outputs":[{"name":"","type":"uint256","internalType":"uint256"}],"stateMutability":"nonpayable"},{"type":"function","name":"_setPendingAdmin","inputs":[{"name":"newPendingAdmin","type":"address","internalType":"address payable"}],"outputs":[{"name":"","type":"uint256","internalType":"uint256"}],"stateMutability":"nonpayable"},{"type":"function","name":"_setReserveFactor","inputs":[{"name":"newReserveFactorMantissa","type":"uint256","internalType":"uint256"}],"outputs":[{"name":"","type":"uint256","internalType":"uint256"}],"stateMutability":"nonpayable"},{"type":"function","name":"accrualBlockNumber","inputs":[],"outputs":[{"name":"","type":"uint256","internalType":"uint256"}],"stateMutability":"view"},{"type":"function","name":"accrueInterest","inputs":[],"outputs":[{"name":"","type":"uint256","internalType":"uint256"}],"stateMutability":"nonpayable"},{"type":"function","name":"admin","inputs":[],"outputs":[{"name":"","type":"address","internalType":"address payable"}],"stateMutability":"nonpayable"},{"type":"function","name":"badDebt","inputs":[],"outputs":[{"name":"","type":"uint256","internalType":"uint256"}],"stateMutability":"nonpayable"},{"type":"function","name":"balanceOf","inputs":[{"name":"owner","type":"address","internalType":"address"}],"outputs":[{"name":"","type":"uint256","internalType":"uint256"}],"stateMutability":"view"},{"type":"function","name":"borrow","inputs":[{"name":"borrowAmount","type":"uint256","internalType":"uint256"}],"outputs":[{"name":"","type":"uint256","internalType":"uint256"}],"stateMutability":"nonpayable"},{"type":"function","name":"borrowBalanceCurrent","inputs":[{"name":"account","type":"address","internalType":"address"}],"outputs":[{"name":"","type":"uint256","internalType":"uint256"}],"stateMutability":"nonpayable"},{"type":"function","name":"borrowBehalf","inputs":[{"name":"borrwwer","type":"address","internalType":"address"},{"name":"borrowAmount","type":"uint256","internalType":"uint256"}],"outputs":[{"name":"","type":"uint256","internalType":"uint256"}],"stateMutability":"nonpayable"},{"type":"function","name":"comptroller","inputs":[],"outputs":[{"name":"","type":"address","internalType":"address"}],"stateMutability":"nonpayable"},{"type":"function","name":"exchangeRateCurrent","inputs":[],"outputs":[{"name":"","type":"uint256","internalType":"uint256"}],"stateMutability":"nonpayable"},{"type":"function","name":"forceLiquidateBorrow","inputs":[{"name":"liquidator","type":"address","internalType":"address"},{"name":"borrower","type":"address","internalType":"address"},{"name":"repayAmount","type":"uint256","internalType":"uint256"},{"name":"vTokenCollateral","type":"address","internalType":"address"},{"name":"skipCloseFactorCheck","type":"bool","internalType":"bool"}],"outputs":[],"stateMutability":"nonpayable"},{"type":"function","name":"getCash","inputs":[],"outputs":[{"name":"","type":"uint256","internalType":"uint256"}],"stateMutability":"view"},{"type":"function","name":"healBorrow","inputs":[{"name":"payer","type":"address","internalType":"address"},{"name":"borrower","type":"address","internalType":"address"},{"name":"repayAmount","type":"uint256","internalType":"uint256"}],"outputs":[],"stateMutability":"nonpayable"},{"type":"function","name":"implementation","inputs":[],"outputs":[{"name":"","type":"address","internalType":"address"}],"stateMutability":"nonpayable"},{"type":"function","name":"interestRateModel","inputs":[],"outputs":[{"name":"","type":"address","internalType":"address"}],"stateMutability":"nonpayable"},{"type":"function","name":"isVToken","inputs":[],"outputs":[{"name":"","type":"bool","internalType":"bool"}],"stateMutability":"view"},{"type":"function","name":"liquidateBorrow","inputs":[{"name":"borrower","type":"address","internalType":"address"},{"name":"repayAmount","type":"uint256","internalType":"uint256"},{"name":"vTokenCollateral","type":"address","internalType":"contract VTokenInterface"}],"outputs":[{"name":"","type":"uint256","internalType":"uint256"}],"stateMutability":"nonpayable"},{"type":"function","name":"mint","inputs":[],"outputs":[],"stateMutability":"payable"},{"type":"function","name":"mint","inputs":[{"name":"mintAmount","type":"uint256","internalType":"uint256"}],"outputs":[{"name":"","type":"uint256","internalType":"uint256"}],"stateMutability":"nonpayable"},{"type":"function","name":"mintBehalf","inputs":[{"name":"minter","type":"address","internalType":"address"},{"name":"mintAllowed","type":"uint256","internalType":"uint256"}],"outputs":[{"name":"","type":"uint256","internalType":"uint256"}],"stateMutability":"nonpayable"},{"type":"function","name":"mintBehalf","inputs":[{"name":"minter","type":"address","internalType":"address"}],"outputs":[],"stateMutability":"payable"},{"type":"function","name":"pendingAdmin","inputs":[],"outputs":[{"name":"","type":"address","internalType":"address payable"}],"stateMutability":"nonpayable"},{"type":"function","name":"redeem","inputs":[{"name":"redeemTokens","type":"uint256","internalType":"uint256"}],"outputs":[{"name":"","type":"uint256","internalType":"uint256"}],"stateMutability":"nonpayable"},{"type":"function","name":"redeemBehalf","inputs":[{"name":"redeemer","type":"address","internalType":"address"},{"name":"redeemTokens","type":"uint256","internalType":"uint256"}],"outputs":[{"name":"","type":"uint256","internalType":"uint256"}],"stateMutability":"nonpayable"},{"type":"function","name":"redeemUnderlying","inputs":[{"name":"redeemAmount","type":"uint256","internalType":"uint256"}],"outputs":[{"name":"","type":"uint256","internalType":"uint256"}],"stateMutability":"nonpayable"},{"type":"function","name":"redeemUnderlyingBehalf","inputs":[{"name":"redeemer","type":"address","internalType":"address"},{"name":"redeemAmount","type":"uint256","internalType":"uint256"}],"outputs":[{"name":"","type":"uint256","internalType":"uint256"}],"stateMutability":"nonpayable"},{"type":"function","name":"reduceReserves","inputs":[{"name":"reduceAmount","type":"uint256","internalType":"uint256"}],"outputs":[],"stateMutability":"nonpayable"},{"type":"function","name":"repayBorrow","inputs":[{"name":"repayAmount","type":"uint256","internalType":"uint256"}],"outputs":[{"name":"","type":"uint256","internalType":"uint256"}],"stateMutability":"nonpayable"},{"type":"function","name":"repayBorrowBehalf","inputs":[{"name":"borrower","type":"address","internalType":"address"},{"name":"repayAmount","type":"uint256","internalType":"uint256"}],"outputs":[{"name":"","type":"uint256","internalType":"uint256"}],"stateMutability":"nonpayable"},{"type":"function","name":"reserveFactorMantissa","inputs":[],"outputs":[{"name":"","type":"uint256","internalType":"uint256"}],"stateMutability":"nonpayable"},{"type":"function","name":"seize","inputs":[{"name":"liquidator","type":"address","internalType":"address"},{"name":"borrower","type":"address","internalType":"address"},{"name":"seizeTokens","type":"uint256","internalType":"uint256"}],"outputs":[],"stateMutability":"nonpayable"},{"type":"function","name":"sweepToken","inputs":[{"name":"token","type":"address","internalType":"address"}],"outputs":[],"stateMutability":"nonpayable"},{"type":"function","name":"totalBorrowsCurrent","inputs":[],"outputs":[{"name":"","type":"uint256","internalType":"uint256"}],"stateMutability":"nonpayable"},{"type":"function","name":"totalReserves","inputs":[],"outputs":[{"name":"","type":"uint256","internalType":"uint256"}],"stateMutability":"nonpayable"},{"type":"function","name":"totalSupply","inputs":[],"outputs":[{"name":"","type":"uint256","internalType":"uint256"}],"stateMutability":"nonpayable"},{"type":"function","name":"transfer","inputs":[{"name":"dst","type":"address","internalType":"address"},{"name":"amount","type":"uint256","internalType":"uint256"}],"outputs":[{"name":"","type":"bool","internalType":"bool"}],"stateMutability":"nonpayable"},{"type":"function","name":"transferFrom","inputs":[{"name":"src","type":"address","internalType":"address"},{"name":"dst","type":"address","internalType":"address"},{"name":"amount","type":"uint256","internalType":"uint256"}],"outputs":[{"name":"","type":"bool","internalType":"bool"}],"stateMutability":"nonpayable"}],"bytecode":{"object":"0x6080604052348015600f57600080fd5b506107628061001f6000396000f3fe60806040526004361061027d5760003560e01c806370a082311161014f578063bbcac557116100c1578063e9c714f21161007a578063e9c714f2146102e2578063f2b3abbd146102f6578063f3fdb15a14610383578063f5e3c46214610455578063f851a44014610383578063fca7820b146102a257600080fd5b8063bbcac557146102e2578063bd6d894d146102e2578063c2eae83814610447578063c5ebeaec146102a2578063db006a75146102a2578063df3a516e1461032c57600080fd5b80638f840ddd116101135780638f840ddd146102e2578063a0712d68146102a2578063a6afed95146102e2578063a9059cbb1461042c578063b2a02ff1146103b4578063b71d1a0c146102f657600080fd5b806370a08231146102f657806373acee98146102e2578063852a12e3146102a2578063856e5bb31461032c5780638bbdb6db1461040a57600080fd5b80632608f818116101f3578063555bcc40116101ac578063555bcc40146103d457806356e67728146103ef5780635c60da1b146103835780635fe3b56714610383578063601a0bf1146102a25780636c540baf146102e257600080fd5b80632608f8181461032c57806326782247146103835780633b1d21a2146102e25780633d9ea3a11461039f57806344fe6ffe146103b45780634576b5db146102f657600080fd5b806317bfdfbc1161024557806317bfdfbc146102f657806318160ddd146102e25780631be1956014610311578063210bc0521461032c57806323323e031461032c57806323b872dd1461034f57600080fd5b806307e27959146102825780630e752702146102a25780631249c58b146102a0578063153ab505146102d6578063173b9904146102e2575b600080fd5b34801561028e57600080fd5b506102a061029d366004610470565b50565b005b3480156102ae57600080fd5b506102c36102bd366004610470565b50600090565b6040519081526020015b60405180910390f35b3480156102a057600080fd5b3480156102ee57600080fd5b5060006102c3565b34801561030257600080fd5b506102c36102bd36600461049e565b34801561031d57600080fd5b506102a061029d36600461049e565b34801561033857600080fd5b506102c36103473660046104c2565b600092915050565b34801561035b57600080fd5b5061037361036a3660046104ee565b60009392505050565b60405190151581526020016102cd565b34801561038f57600080fd5b50604051600081526020016102cd565b3480156103ab57600080fd5b50610373600181565b3480156103c057600080fd5b506102a06103cf3660046104ee565b505050565b3480156103e057600080fd5b506102a06103cf3660046105e9565b3480156103fb57600080fd5b506102a061029d366004610649565b34801561041657600080fd5b506102a0610425366004610686565b5050505050565b34801561043857600080fd5b506103736103473660046104c2565b6102a061029d36600461049e565b34801561046157600080fd5b506102c361036a3660046106ea565b60006020828403121561048257600080fd5b5035919050565b6001600160a01b038116811461029d57600080fd5b6000602082840312156104b057600080fd5b81356104bb81610489565b9392505050565b600080604083850312156104d557600080fd5b82356104e081610489565b946020939093013593505050565b60008060006060848603121561050357600080fd5b833561050e81610489565b9250602084013561051e81610489565b929592945050506040919091013590565b8035801515811461053f57600080fd5b919050565b634e487b7160e01b600052604160045260246000fd5b600082601f83011261056b57600080fd5b813567ffffffffffffffff81111561058557610585610544565b604051601f8201601f19908116603f0116810167ffffffffffffffff811182821017156105b4576105b4610544565b6040528181528382016020018510156105cc57600080fd5b816020850160208301376000918101602001919091529392505050565b6000806000606084860312156105fe57600080fd5b833561060981610489565b92506106176020850161052f565b9150604084013567ffffffffffffffff81111561063357600080fd5b61063f8682870161055a565b9150509250925092565b60006020828403121561065b57600080fd5b813567ffffffffffffffff81111561067257600080fd5b61067e8482850161055a565b949350505050565b600080600080600060a0868803121561069e57600080fd5b85356106a981610489565b945060208601356106b981610489565b93506040860135925060608601356106d081610489565b91506106de6080870161052f565b90509295509295909350565b6000806000606084860312156106ff57600080fd5b833561070a81610489565b925060208401359150604084013561072181610489565b80915050925092509256fea264697066735822122096b85bf0379816b9e847af274aacd6e9238ce579bedf4ee4a782d418565fefac64736f6c634300081a0033","linkReferences":{}},"methodIdentifiers":{"_acceptAdmin()":"e9c714f2","_becomeImplementation(bytes)":"56e67728","_reduceReserves(uint256)":"601a0bf1","_resignImplementation()":"153ab505","_setComptroller(address)":"4576b5db","_setImplementation(address,bool,bytes)":"555bcc40","_setInterestRateModel(address)":"f2b3abbd","_setPendingAdmin(address)":"b71d1a0c","_setReserveFactor(uint256)":"fca7820b","accrualBlockNumber()":"6c540baf","accrueInterest()":"a6afed95","admin()":"f851a440","badDebt()":"bbcac557","balanceOf(address)":"70a08231","borrow(uint256)":"c5ebeaec","borrowBalanceCurrent(address)":"17bfdfbc","borrowBehalf(address,uint256)":"856e5bb3","comptroller()":"5fe3b567","exchangeRateCurrent()":"bd6d894d","forceLiquidateBorrow(address,address,uint256,address,bool)":"8bbdb6db","getCash()":"3b1d21a2","healBorrow(address,address,uint256)":"44fe6ffe","implementation()":"5c60da1b","interestRateModel()":"f3fdb15a","isVToken()":"3d9ea3a1","liquidateBorrow(address,uint256,address)":"f5e3c462","mint()":"1249c58b","mint(uint256)":"a0712d68","mintBehalf(address)":"c2eae838","mintBehalf(address,uint256)":"23323e03","pendingAdmin()":"26782247","redeem(uint256)":"db006a75","redeemBehalf(address,uint256)":"210bc052","redeemUnderlying(uint256)":"852a12e3","redeemUnderlyingBehalf(address,uint256)":"df3a516e","reduceReserves(uint256)":"07e27959","repayBorrow(uint256)":"0e752702","repayBorrowBehalf(address,uint256)":"2608f818","reserveFactorMantissa()":"173b9904","seize(address,address,uint256)":"b2a02ff1","sweepToken(address)":"1be19560","totalBorrowsCurrent()":"73acee98","totalReserves()":"8f840ddd","totalSupply()":"18160ddd","transfer(address,uint256)":"a9059cbb","transferFrom(address,address,uint256)":"23b872dd"},"id":14}