{"abi":[{"type":"function","name":"_become","inputs":[{"name":"unitroller","type":"address","internalType":"address"}],"outputs":[],"stateMutability":"nonpayable"},{"type":"function","name":"_grantComp","inputs":[{"name":"recipient","type":"address","internalType":"address"},{"name":"amount","type":"uint256","internalType":"uint256"}],"outputs":[],"stateMutability":"nonpayable"},{"type":"function","name":"_setBorrowCapGuardian","inputs":[{"name":"newBorrowCapGuardian","type":"address","internalType":"address"}],"outputs":[],"stateMutability":"nonpayable"},{"type":"function","name":"_setBorrowPaused","inputs":[{"name":"cToken","type":"address","internalType":"contract CTokenInterface"},{"name":"state","type":"bool","internalType":"bool"}],"outputs":[{"name":"","type":"bool","internalType":"bool"}],"stateMutability":"nonpayable"},{"type":"function","name":"_setCloseFactor","inputs":[{"name":"newCloseFactorMantissa","type":"uint256","internalType":"uint256"}],"outputs":[{"name":"","type":"uint256","internalType":"uint256"}],"stateMutability":"nonpayable"},{"type":"function","name":"_setCollateralFactor","inputs":[{"name":"cToken","type":"address","internalType":"contract CTokenInterface"},{"name":"newCollateralFactorMantissa","type":"uint256","internalType":"uint256"}],"outputs":[{"name":"","type":"uint256","internalType":"uint256"}],"stateMutability":"nonpayable"},{"type":"function","name":"_setCompSpeeds","inputs":[{"name":"cTokens","type":"address[]","internalType":"contract CTokenInterface[]"},{"name":"supplySpeeds","type":"uint256[]","internalType":"uint256[]"},{"name":"borrowSpeeds","type":"uint256[]","internalType":"uint256[]"}],"outputs":[],"stateMutability":"nonpayable"},{"type":"function","name":"_setContributorCompSpeed","inputs":[{"name":"contributor","type":"address","internalType":"address"},{"name":"compSpeed","type":"uint256","internalType":"uint256"}],"outputs":[],"stateMutability":"nonpayable"},{"type":"function","name":"_setLiquidationIncentive","inputs":[{"name":"newLiquidationIncentiveMantissa","type":"uint256","internalType":"uint256"}],"outputs":[{"name":"","type":"uint256","internalType":"uint256"}],"stateMutability":"nonpayable"},{"type":"function","name":"_setMarketBorrowCaps","inputs":[{"name":"cTokens","type":"address[]","internalType":"contract CTokenInterface[]"},{"name":"newBorrowCaps","type":"uint256[]","internalType":"uint256[]"}],"outputs":[],"stateMutability":"nonpayable"},{"type":"function","name":"_setMintPaused","inputs":[{"name":"cToken","type":"address","internalType":"contract CTokenInterface"},{"name":"state","type":"bool","internalType":"bool"}],"outputs":[{"name":"","type":"bool","internalType":"bool"}],"stateMutability":"nonpayable"},{"type":"function","name":"_setPauseGuardian","inputs":[{"name":"newPauseGuardian","type":"address","internalType":"address"}],"outputs":[{"name":"","type":"uint256","internalType":"uint256"}],"stateMutability":"nonpayable"},{"type":"function","name":"_setPriceOracle","inputs":[{"name":"newOracle","type":"address","internalType":"address"}],"outputs":[{"name":"","type":"uint256","internalType":"uint256"}],"stateMutability":"nonpayable"},{"type":"function","name":"_setSeizePaused","inputs":[{"name":"state","type":"bool","internalType":"bool"}],"outputs":[{"name":"","type":"bool","internalType":"bool"}],"stateMutability":"nonpayable"},{"type":"function","name":"_setTransferPaused","inputs":[{"name":"state","type":"bool","internalType":"bool"}],"outputs":[{"name":"","type":"bool","internalType":"bool"}],"stateMutability":"nonpayable"},{"type":"function","name":"_supportMarket","inputs":[{"name":"cToken","type":"address","internalType":"contract CTokenInterface"}],"outputs":[{"name":"","type":"uint256","internalType":"uint256"}],"stateMutability":"nonpayable"},{"type":"function","name":"borrowAllowed","inputs":[{"name":"cToken","type":"address","internalType":"address"},{"name":"borrower","type":"address","internalType":"address"},{"name":"borrowAmount","type":"uint256","internalType":"uint256"}],"outputs":[{"name":"","type":"uint256","internalType":"uint256"}],"stateMutability":"nonpayable"},{"type":"function","name":"borrowCapGuardian","inputs":[],"outputs":[{"name":"","type":"address","internalType":"address"}],"stateMutability":"view"},{"type":"function","name":"borrowCaps","inputs":[{"name":"vToken","type":"address","internalType":"address"}],"outputs":[{"name":"","type":"uint256","internalType":"uint256"}],"stateMutability":"view"},{"type":"function","name":"borrowGuardianPaused","inputs":[{"name":"","type":"address","internalType":"address"}],"outputs":[{"name":"","type":"bool","internalType":"bool"}],"stateMutability":"nonpayable"},{"type":"function","name":"checkMembership","inputs":[{"name":"account","type":"address","internalType":"address"},{"name":"cToken","type":"address","internalType":"address"}],"outputs":[{"name":"","type":"bool","internalType":"bool"}],"stateMutability":"view"},{"type":"function","name":"claimComp","inputs":[{"name":"holder","type":"address","internalType":"address"}],"outputs":[],"stateMutability":"nonpayable"},{"type":"function","name":"closeFactorMantissa","inputs":[],"outputs":[{"name":"","type":"uint256","internalType":"uint256"}],"stateMutability":"view"},{"type":"function","name":"compAccrued","inputs":[{"name":"","type":"address","internalType":"address"}],"outputs":[{"name":"","type":"uint256","internalType":"uint256"}],"stateMutability":"nonpayable"},{"type":"function","name":"compBorrowSpeeds","inputs":[{"name":"","type":"address","internalType":"address"}],"outputs":[{"name":"","type":"uint256","internalType":"uint256"}],"stateMutability":"nonpayable"},{"type":"function","name":"compBorrowState","inputs":[{"name":"","type":"address","internalType":"address"}],"outputs":[{"name":"","type":"uint256","internalType":"uint256"},{"name":"","type":"uint256","internalType":"uint256"}],"stateMutability":"nonpayable"},{"type":"function","name":"compBorrowerIndex","inputs":[{"name":"market","type":"address","internalType":"address"},{"name":"borrower","type":"address","internalType":"address"}],"outputs":[{"name":"","type":"uint256","internalType":"uint256"}],"stateMutability":"nonpayable"},{"type":"function","name":"compContributorSpeeds","inputs":[{"name":"","type":"address","internalType":"address"}],"outputs":[{"name":"","type":"uint256","internalType":"uint256"}],"stateMutability":"nonpayable"},{"type":"function","name":"compSupplierIndex","inputs":[{"name":"market","type":"address","internalType":"address"},{"name":"supplier","type":"address","internalType":"address"}],"outputs":[{"name":"","type":"uint256","internalType":"uint256"}],"stateMutability":"nonpayable"},{"type":"function","name":"compSupplySpeeds","inputs":[{"name":"","type":"address","internalType":"address"}],"outputs":[{"name":"","type":"uint256","internalType":"uint256"}],"stateMutability":"nonpayable"},{"type":"function","name":"compSupplyState","inputs":[{"name":"","type":"address","internalType":"address"}],"outputs":[{"name":"","type":"uint256","internalType":"uint256"},{"name":"","type":"uint256","internalType":"uint256"}],"stateMutability":"nonpayable"},{"type":"function","name":"enterMarkets","inputs":[{"name":"cTokens","type":"address[]","internalType":"address[]"}],"outputs":[{"name":"","type":"uint256[]","internalType":"uint256[]"}],"stateMutability":"nonpayable"},{"type":"function","name":"exitMarket","inputs":[{"name":"","type":"address","internalType":"address"}],"outputs":[{"name":"","type":"uint256","internalType":"uint256"}],"stateMutability":"nonpayable"},{"type":"function","name":"getAccountLiquidity","inputs":[{"name":"account","type":"address","internalType":"address"}],"outputs":[{"name":"","type":"uint256","internalType":"uint256"},{"name":"","type":"uint256","internalType":"uint256"},{"name":"","type":"uint256","internalType":"uint256"}],"stateMutability":"view"},{"type":"function","name":"getAllMarkets","inputs":[],"outputs":[{"name":"","type":"address[]","internalType":"address[]"}],"stateMutability":"view"},{"type":"function","name":"getAssetsIn","inputs":[{"name":"account","type":"address","internalType":"address"}],"outputs":[{"name":"","type":"address[]","internalType":"address[]"}],"stateMutability":"view"},{"type":"function","name":"getHypotheticalAccountLiquidity","inputs":[{"name":"account","type":"address","internalType":"address"},{"name":"vTokenModify","type":"address","internalType":"address"},{"name":"redeemTokens","type":"uint256","internalType":"uint256"},{"name":"borrowAmount","type":"uint256","internalType":"uint256"}],"outputs":[{"name":"","type":"uint256","internalType":"uint256"},{"name":"","type":"uint256","internalType":"uint256"},{"name":"","type":"uint256","internalType":"uint256"}],"stateMutability":"view"},{"type":"function","name":"isComptroller","inputs":[],"outputs":[{"name":"","type":"bool","internalType":"bool"}],"stateMutability":"view"},{"type":"function","name":"liquidateBorrowAllowed","inputs":[{"name":"cTokenBorrowed","type":"address","internalType":"address"},{"name":"cTokenCollateral","type":"address","internalType":"address"},{"name":"liquidator","type":"address","internalType":"address"},{"name":"borrower","type":"address","internalType":"address"},{"name":"repayAmount","type":"uint256","internalType":"uint256"}],"outputs":[{"name":"","type":"uint256","internalType":"uint256"}],"stateMutability":"nonpayable"},{"type":"function","name":"liquidateCalculateSeizeTokens","inputs":[{"name":"cTokenBorrowed","type":"address","internalType":"address"},{"name":"cTokenCollateral","type":"address","internalType":"address"},{"name":"repayAmount","type":"uint256","internalType":"uint256"}],"outputs":[{"name":"","type":"uint256","internalType":"uint256"},{"name":"","type":"uint256","internalType":"uint256"}],"stateMutability":"view"},{"type":"function","name":"liquidationIncentiveMantissa","inputs":[],"outputs":[{"name":"","type":"uint256","internalType":"uint256"}],"stateMutability":"view"},{"type":"function","name":"markets","inputs":[{"name":"cToken","type":"address","internalType":"address"}],"outputs":[{"name":"","type":"bool","internalType":"bool"},{"name":"","type":"uint256","internalType":"uint256"},{"name":"","type":"bool","internalType":"bool"}],"stateMutability":"view"},{"type":"function","name":"mintAllowed","inputs":[{"name":"cToken","type":"address","internalType":"address"},{"name":"minter","type":"address","internalType":"address"},{"name":"mintAmount","type":"uint256","internalType":"uint256"}],"outputs":[{"name":"","type":"uint256","internalType":"uint256"}],"stateMutability":"nonpayable"},{"type":"function","name":"mintGuardianPaused","inputs":[{"name":"","type":"address","internalType":"address"}],"outputs":[{"name":"","type":"bool","internalType":"bool"}],"stateMutability":"nonpayable"},{"type":"function","name":"oracle","inputs":[],"outputs":[{"name":"","type":"address","internalType":"address"}],"stateMutability":"nonpayable"},{"type":"function","name":"pauseGuardian","inputs":[],"outputs":[{"name":"","type":"address","internalType":"address"}],"stateMutability":"view"},{"type":"function","name":"redeemAllowed","inputs":[{"name":"cToken","type":"address","internalType":"address"},{"name":"redeemer","type":"address","internalType":"address"},{"name":"redeemTokens","type":"uint256","internalType":"uint256"}],"outputs":[{"name":"","type":"uint256","internalType":"uint256"}],"stateMutability":"nonpayable"},{"type":"function","name":"repayBorrowAllowed","inputs":[{"name":"cToken","type":"address","internalType":"address"},{"name":"payer","type":"address","internalType":"address"},{"name":"borrower","type":"address","internalType":"address"},{"name":"repayAmount","type":"uint256","internalType":"uint256"}],"outputs":[{"name":"","type":"uint256","internalType":"uint256"}],"stateMutability":"nonpayable"},{"type":"function","name":"reserveFactorMantissa","inputs":[],"outputs":[{"name":"","type":"uint256","internalType":"uint256"}],"stateMutability":"view"},{"type":"function","name":"seizeGuardianPaused","inputs":[],"outputs":[{"name":"","type":"bool","internalType":"bool"}],"stateMutability":"nonpayable"},{"type":"function","name":"transferGuardianPaused","inputs":[],"outputs":[{"name":"","type":"bool","internalType":"bool"}],"stateMutability":"nonpayable"},{"type":"function","name":"updateContributorRewards","inputs":[{"name":"contributor","type":"address","internalType":"address"}],"outputs":[],"stateMutability":"nonpayable"}],"bytecode":{"object":"0x6080604052348015600f57600080fd5b50610d718061001f6000396000f3fe608060405234801561001057600080fd5b506004361061030b5760003560e01c8063731f0c2b1161019d578063b0772d0b116100e9578063da3d454c116100a2578063e9af02921161007c578063e9af0292146103c4578063eabe7d911461041b578063ede4edd0146103d5578063f4a433c0146103d557600080fd5b8063da3d454c1461041b578063e4028eee1461056f578063e87554461461032d57600080fd5b8063b0772d0b14610526578063b21be7fd1461052d578063c29982381461053b578063c488847b14610556578063ca0af0431461052d578063cc7ebdc4146103d557600080fd5b80638ebf636411610156578063a76b3fda11610130578063a76b3fda146103d5578063a8b43948146104f2578063abfceffc14610505578063ac0b0bb7146104b057600080fd5b80638ebf6364146103a2578063929fe9a1146104e4578063986ab838146103d557600080fd5b8063731f0c2b146104a2578063741b2525146103c45780637dc0d1d01461036957806387f76303146104b05780638c57804e146104775780638e8f294b146104b757600080fd5b80634ada90af1161025c5780635ec88c7911610215578063607ef6c1116101ef578063607ef6c1146104635780636aa875b5146103d55780636b79c38d146104775780636d154ea5146104a257600080fd5b80635ec88c79146104325780635f5af1aa146103d55780635fc7e71e1461044a57600080fd5b80634ada90af1461032d5780634e79238f146103e35780634ef4c3e11461041b5780634fd42e17146103b657806355ee1fe1146103d5578063598ee1cb1461039057600080fd5b806324a3d622116102c9578063317b0b77116102a3578063317b0b77146103b6578063391957d7146103c45780633bcf7ec11461033e5780634a584432146103d557600080fd5b806324a3d6221461036957806327efe3cb146103905780632d70db78146103a257600080fd5b80627e3dd214610310578063173b99041461032d57806318c882a51461033e5780631d504dc61461035457806321af45691461036957806324008a6214610378575b600080fd5b610318600181565b60405190151581526020015b60405180910390f35b60005b604051908152602001610324565b61031861034c366004610729565b600092915050565b61036761036236600461075e565b61057d565b005b60405160008152602001610324565b610330610386366004610782565b6000949350505050565b61036761039e3660046107d3565b5050565b6103186103b03660046107ff565b50600090565b6103306103b036600461081a565b6103676103d236600461075e565b50565b6103306103b036600461075e565b6104006103f1366004610833565b60008060009450945094915050565b60408051938452602084019290925290820152606001610324565b610330610429366004610879565b60009392505050565b61040061044036600461075e565b5060009081908190565b6103306104583660046108ba565b600095945050505050565b61036761047136600461096a565b50505050565b61048d61048536600461075e565b600080915091565b60408051928352602083019190915201610324565b6103186103b036600461075e565b6000610318565b6104c561044036600461075e565b6040805193151584526020840192909252151590820152606001610324565b61031861034c3660046109db565b610367610500366004610aec565b505050565b61051961051336600461075e565b50606090565b6040516103249190610be2565b6060610519565b61033061034c3660046109db565b610549610513366004610c2e565b6040516103249190610ccd565b61048d610564366004610879565b600080935093915050565b61033061034c3660046107d3565b806001600160a01b031663f851a4406040518163ffffffff1660e01b81526004016020604051808303816000875af11580156105bd573d6000803e3d6000fd5b505050506040513d601f19601f820116820180604052508101906105e19190610d05565b6001600160a01b0316336001600160a01b0316146106565760405162461bcd60e51b815260206004820152602760248201527f6f6e6c7920756e6974726f6c6c65722061646d696e2063616e206368616e676560448201526620627261696e7360c81b60648201526084015b60405180910390fd5b806001600160a01b031663c1e803346040518163ffffffff1660e01b81526004016020604051808303816000875af1158015610696573d6000803e3d6000fd5b505050506040513d601f19601f820116820180604052508101906106ba9190610d22565b156103d25760405162461bcd60e51b815260206004820152601560248201527418da185b99d9481b9bdd08185d5d1a1bdc9a5e9959605a1b604482015260640161064d565b6001600160a01b03811681146103d257600080fd5b8035801515811461072457600080fd5b919050565b6000806040838503121561073c57600080fd5b8235610747816106ff565b915061075560208401610714565b90509250929050565b60006020828403121561077057600080fd5b813561077b816106ff565b9392505050565b6000806000806080858703121561079857600080fd5b84356107a3816106ff565b935060208501356107b3816106ff565b925060408501356107c3816106ff565b9396929550929360600135925050565b600080604083850312156107e657600080fd5b82356107f1816106ff565b946020939093013593505050565b60006020828403121561081157600080fd5b61077b82610714565b60006020828403121561082c57600080fd5b5035919050565b6000806000806080858703121561084957600080fd5b8435610854816106ff565b93506020850135610864816106ff565b93969395505050506040820135916060013590565b60008060006060848603121561088e57600080fd5b8335610899816106ff565b925060208401356108a9816106ff565b929592945050506040919091013590565b600080600080600060a086880312156108d257600080fd5b85356108dd816106ff565b945060208601356108ed816106ff565b935060408601356108fd816106ff565b9250606086013561090d816106ff565b949793965091946080013592915050565b60008083601f84011261093057600080fd5b50813567ffffffffffffffff81111561094857600080fd5b6020830191508360208260051b850101111561096357600080fd5b9250929050565b6000806000806040858703121561098057600080fd5b843567ffffffffffffffff81111561099757600080fd5b6109a38782880161091e565b909550935050602085013567ffffffffffffffff8111156109c357600080fd5b6109cf8782880161091e565b95989497509550505050565b600080604083850312156109ee57600080fd5b82356109f9816106ff565b91506020830135610a09816106ff565b809150509250929050565b634e487b7160e01b600052604160045260246000fd5b604051601f8201601f1916810167ffffffffffffffff81118282101715610a5357610a53610a14565b604052919050565b600067ffffffffffffffff821115610a7557610a75610a14565b5060051b60200190565b600082601f830112610a9057600080fd5b8135610aa3610a9e82610a5b565b610a2a565b8082825260208201915060208360051b860101925085831115610ac557600080fd5b602085015b83811015610ae2578035835260209283019201610aca565b5095945050505050565b600080600060608486031215610b0157600080fd5b833567ffffffffffffffff811115610b1857600080fd5b8401601f81018613610b2957600080fd5b8035610b37610a9e82610a5b565b8082825260208201915060208360051b850101925088831115610b5957600080fd5b6020840193505b82841015610b84578335610b73816106ff565b825260209384019390910190610b60565b9550505050602084013567ffffffffffffffff811115610ba357600080fd5b610baf86828701610a7f565b925050604084013567ffffffffffffffff811115610bcc57600080fd5b610bd886828701610a7f565b9150509250925092565b602080825282518282018190526000918401906040840190835b81811015610c235783516001600160a01b0316835260209384019390920191600101610bfc565b509095945050505050565b600060208284031215610c4057600080fd5b813567ffffffffffffffff811115610c5757600080fd5b8201601f81018413610c6857600080fd5b8035610c76610a9e82610a5b565b8082825260208201915060208360051b850101925086831115610c9857600080fd5b6020840193505b82841015610cc3578335610cb2816106ff565b825260209384019390910190610c9f565b9695505050505050565b602080825282518282018190526000918401906040840190835b81811015610c23578351835260209384019390920191600101610ce7565b600060208284031215610d1757600080fd5b815161077b816106ff565b600060208284031215610d3457600080fd5b505191905056fea264697066735822122026e3d2cfe039df979d51fb6794487903e6ee22ad627d19037bf114e02502301864736f6c634300081a0033","linkReferences":{}},"methodIdentifiers":{"_become(address)":"1d504dc6","_grantComp(address,uint256)":"27efe3cb","_setBorrowCapGuardian(address)":"391957d7","_setBorrowPaused(address,bool)":"18c882a5","_setCloseFactor(uint256)":"317b0b77","_setCollateralFactor(address,uint256)":"e4028eee","_setCompSpeeds(address[],uint256[],uint256[])":"a8b43948","_setContributorCompSpeed(address,uint256)":"598ee1cb","_setLiquidationIncentive(uint256)":"4fd42e17","_setMarketBorrowCaps(address[],uint256[])":"607ef6c1","_setMintPaused(address,bool)":"3bcf7ec1","_setPauseGuardian(address)":"5f5af1aa","_setPriceOracle(address)":"55ee1fe1","_setSeizePaused(bool)":"2d70db78","_setTransferPaused(bool)":"8ebf6364","_supportMarket(address)":"a76b3fda","borrowAllowed(address,address,uint256)":"da3d454c","borrowCapGuardian()":"21af4569","borrowCaps(address)":"4a584432","borrowGuardianPaused(address)":"6d154ea5","checkMembership(address,address)":"929fe9a1","claimComp(address)":"e9af0292","closeFactorMantissa()":"e8755446","compAccrued(address)":"cc7ebdc4","compBorrowSpeeds(address)":"f4a433c0","compBorrowState(address)":"8c57804e","compBorrowerIndex(address,address)":"ca0af043","compContributorSpeeds(address)":"986ab838","compSupplierIndex(address,address)":"b21be7fd","compSupplySpeeds(address)":"6aa875b5","compSupplyState(address)":"6b79c38d","enterMarkets(address[])":"c2998238","exitMarket(address)":"ede4edd0","getAccountLiquidity(address)":"5ec88c79","getAllMarkets()":"b0772d0b","getAssetsIn(address)":"abfceffc","getHypotheticalAccountLiquidity(address,address,uint256,uint256)":"4e79238f","isComptroller()":"007e3dd2","liquidateBorrowAllowed(address,address,address,address,uint256)":"5fc7e71e","liquidateCalculateSeizeTokens(address,address,uint256)":"c488847b","liquidationIncentiveMantissa()":"4ada90af","markets(address)":"8e8f294b","mintAllowed(address,address,uint256)":"4ef4c3e1","mintGuardianPaused(address)":"731f0c2b","oracle()":"7dc0d1d0","pauseGuardian()":"24a3d622","redeemAllowed(address,address,uint256)":"eabe7d91","repayBorrowAllowed(address,address,address,uint256)":"24008a62","reserveFactorMantissa()":"173b9904","seizeGuardianPaused()":"ac0b0bb7","transferGuardianPaused()":"87f76303","updateContributorRewards(address)":"741b2525"},"id":25}