{"abi":[{"type":"function","name":"_become","inputs":[{"name":"unitroller","type":"address","internalType":"address"}],"outputs":[],"stateMutability":"nonpayable"},{"type":"function","name":"_grantComp","inputs":[{"name":"recipient","type":"address","internalType":"address"},{"name":"amount","type":"uint256","internalType":"uint256"}],"outputs":[],"stateMutability":"nonpayable"},{"type":"function","name":"_setBorrowCapGuardian","inputs":[{"name":"newBorrowCapGuardian","type":"address","internalType":"address"}],"outputs":[],"stateMutability":"nonpayable"},{"type":"function","name":"_setBorrowPaused","inputs":[{"name":"cToken","type":"address","internalType":"contract CTokenInterface"},{"name":"state","type":"bool","internalType":"bool"}],"outputs":[{"name":"","type":"bool","internalType":"bool"}],"stateMutability":"nonpayable"},{"type":"function","name":"_setCloseFactor","inputs":[{"name":"newCloseFactorMantissa","type":"uint256","internalType":"uint256"}],"outputs":[{"name":"","type":"uint256","internalType":"uint256"}],"stateMutability":"nonpayable"},{"type":"function","name":"_setCollateralFactor","inputs":[{"name":"cToken","type":"address","internalType":"contract CTokenInterface"},{"name":"newCollateralFactorMantissa","type":"uint256","internalType":"uint256"}],"outputs":[{"name":"","type":"uint256","internalType":"uint256"}],"stateMutability":"nonpayable"},{"type":"function","name":"_setCompSpeeds","inputs":[{"name":"cTokens","type":"address[]","internalType":"contract CTokenInterface[]"},{"name":"supplySpeeds","type":"uint256[]","internalType":"uint256[]"},{"name":"borrowSpeeds","type":"uint256[]","internalType":"uint256[]"}],"outputs":[],"stateMutability":"nonpayable"},{"type":"function","name":"_setContributorCompSpeed","inputs":[{"name":"contributor","type":"address","internalType":"address"},{"name":"compSpeed","type":"uint256","internalType":"uint256"}],"outputs":[],"stateMutability":"nonpayable"},{"type":"function","name":"_setLiquidationIncentive","inputs":[{"name":"newLiquidationIncentiveMantissa","type":"uint256","internalType":"uint256"}],"outputs":[{"name":"","type":"uint256","internalType":"uint256"}],"stateMutability":"nonpayable"},{"type":"function","name":"_setMarketBorrowCaps","inputs":[{"name":"cTokens","type":"address[]","internalType":"contract CTokenInterface[]"},{"name":"newBorrowCaps","type":"uint256[]","internalType":"uint256[]"}],"outputs":[],"stateMutability":"nonpayable"},{"type":"function","name":"_setMintPaused","inputs":[{"name":"cToken","type":"address","internalType":"contract CTokenInterface"},{"name":"state","type":"bool","internalType":"bool"}],"outputs":[{"name":"","type":"bool","internalType":"bool"}],"stateMutability":"nonpayable"},{"type":"function","name":"_setPauseGuardian","inputs":[{"name":"newPauseGuardian","type":"address","internalType":"address"}],"outputs":[{"name":"","type":"uint256","internalType":"uint256"}],"stateMutability":"nonpayable"},{"type":"function","name":"_setPriceOracle","inputs":[{"name":"newOracle","type":"address","internalType":"address"}],"outputs":[{"name":"","type":"uint256","internalType":"uint256"}],"stateMutability":"nonpayable"},{"type":"function","name":"_setSeizePaused","inputs":[{"name":"state","type":"bool","internalType":"bool"}],"outputs":[{"name":"","type":"bool","internalType":"bool"}],"stateMutability":"nonpayable"},{"type":"function","name":"_setTransferPaused","inputs":[{"name":"state","type":"bool","internalType":"bool"}],"outputs":[{"name":"","type":"bool","internalType":"bool"}],"stateMutability":"nonpayable"},{"type":"function","name":"_supportMarket","inputs":[{"name":"cToken","type":"address","internalType":"contract CTokenInterface"}],"outputs":[{"name":"","type":"uint256","internalType":"uint256"}],"stateMutability":"nonpayable"},{"type":"function","name":"accuralBlockNubmer","inputs":[],"outputs":[{"name":"","type":"uint256","internalType":"uint256"}],"stateMutability":"nonpayable"},{"type":"function","name":"borrowAllowed","inputs":[{"name":"cToken","type":"address","internalType":"address"},{"name":"borrower","type":"address","internalType":"address"},{"name":"borrowAmount","type":"uint256","internalType":"uint256"}],"outputs":[{"name":"","type":"uint256","internalType":"uint256"}],"stateMutability":"nonpayable"},{"type":"function","name":"borrowCapGuardian","inputs":[],"outputs":[{"name":"","type":"address","internalType":"address"}],"stateMutability":"view"},{"type":"function","name":"borrowGuardianPaused","inputs":[{"name":"","type":"address","internalType":"address"}],"outputs":[{"name":"","type":"bool","internalType":"bool"}],"stateMutability":"nonpayable"},{"type":"function","name":"claimComp","inputs":[{"name":"holder","type":"address","internalType":"address"}],"outputs":[],"stateMutability":"nonpayable"},{"type":"function","name":"closeFactorMantissa","inputs":[],"outputs":[{"name":"","type":"uint256","internalType":"uint256"}],"stateMutability":"view"},{"type":"function","name":"compAccrued","inputs":[{"name":"","type":"address","internalType":"address"}],"outputs":[{"name":"","type":"uint256","internalType":"uint256"}],"stateMutability":"nonpayable"},{"type":"function","name":"compBorrowSpeeds","inputs":[{"name":"","type":"address","internalType":"address"}],"outputs":[{"name":"","type":"uint256","internalType":"uint256"}],"stateMutability":"nonpayable"},{"type":"function","name":"compBorrowState","inputs":[{"name":"","type":"address","internalType":"address"}],"outputs":[{"name":"","type":"uint256","internalType":"uint256"},{"name":"","type":"uint256","internalType":"uint256"}],"stateMutability":"nonpayable"},{"type":"function","name":"compBorrowerIndex","inputs":[{"name":"market","type":"address","internalType":"address"},{"name":"borrower","type":"address","internalType":"address"}],"outputs":[{"name":"","type":"uint256","internalType":"uint256"}],"stateMutability":"nonpayable"},{"type":"function","name":"compContributorSpeeds","inputs":[{"name":"","type":"address","internalType":"address"}],"outputs":[{"name":"","type":"uint256","internalType":"uint256"}],"stateMutability":"nonpayable"},{"type":"function","name":"compSupplierIndex","inputs":[{"name":"market","type":"address","internalType":"address"},{"name":"supplier","type":"address","internalType":"address"}],"outputs":[{"name":"","type":"uint256","internalType":"uint256"}],"stateMutability":"nonpayable"},{"type":"function","name":"compSupplySpeeds","inputs":[{"name":"","type":"address","internalType":"address"}],"outputs":[{"name":"","type":"uint256","internalType":"uint256"}],"stateMutability":"nonpayable"},{"type":"function","name":"compSupplyState","inputs":[{"name":"","type":"address","internalType":"address"}],"outputs":[{"name":"","type":"uint256","internalType":"uint256"},{"name":"","type":"uint256","internalType":"uint256"}],"stateMutability":"nonpayable"},{"type":"function","name":"enterMarkets","inputs":[{"name":"cTokens","type":"address[]","internalType":"address[]"}],"outputs":[{"name":"","type":"uint256[]","internalType":"uint256[]"}],"stateMutability":"nonpayable"},{"type":"function","name":"exitMarket","inputs":[{"name":"","type":"address","internalType":"address"}],"outputs":[{"name":"","type":"uint256","internalType":"uint256"}],"stateMutability":"nonpayable"},{"type":"function","name":"getAccountLiquidity","inputs":[{"name":"account","type":"address","internalType":"address"}],"outputs":[{"name":"","type":"uint256","internalType":"uint256"},{"name":"","type":"uint256","internalType":"uint256"},{"name":"","type":"uint256","internalType":"uint256"}],"stateMutability":"view"},{"type":"function","name":"getAllMarkets","inputs":[],"outputs":[{"name":"","type":"address[]","internalType":"address[]"}],"stateMutability":"view"},{"type":"function","name":"getAssetsIn","inputs":[{"name":"account","type":"address","internalType":"address"}],"outputs":[{"name":"","type":"address[]","internalType":"address[]"}],"stateMutability":"view"},{"type":"function","name":"isComptroller","inputs":[],"outputs":[{"name":"","type":"bool","internalType":"bool"}],"stateMutability":"view"},{"type":"function","name":"liquidateBorrowAllowed","inputs":[{"name":"cTokenBorrowed","type":"address","internalType":"address"},{"name":"cTokenCollateral","type":"address","internalType":"address"},{"name":"liquidator","type":"address","internalType":"address"},{"name":"borrower","type":"address","internalType":"address"},{"name":"repayAmount","type":"uint256","internalType":"uint256"}],"outputs":[{"name":"","type":"uint256","internalType":"uint256"}],"stateMutability":"nonpayable"},{"type":"function","name":"liquidateCalculateSeizeTokens","inputs":[{"name":"cTokenBorrowed","type":"address","internalType":"address"},{"name":"cTokenCollateral","type":"address","internalType":"address"},{"name":"repayAmount","type":"uint256","internalType":"uint256"}],"outputs":[{"name":"","type":"uint256","internalType":"uint256"},{"name":"","type":"uint256","internalType":"uint256"}],"stateMutability":"view"},{"type":"function","name":"liquidationIncentiveMantissa","inputs":[],"outputs":[{"name":"","type":"uint256","internalType":"uint256"}],"stateMutability":"view"},{"type":"function","name":"markets","inputs":[{"name":"cToken","type":"address","internalType":"address"}],"outputs":[{"name":"","type":"bool","internalType":"bool"},{"name":"","type":"uint256","internalType":"uint256"},{"name":"","type":"bool","internalType":"bool"}],"stateMutability":"view"},{"type":"function","name":"mintAllowed","inputs":[{"name":"cToken","type":"address","internalType":"address"},{"name":"minter","type":"address","internalType":"address"},{"name":"mintAmount","type":"uint256","internalType":"uint256"}],"outputs":[{"name":"","type":"uint256","internalType":"uint256"}],"stateMutability":"nonpayable"},{"type":"function","name":"mintGuardianPaused","inputs":[{"name":"","type":"address","internalType":"address"}],"outputs":[{"name":"","type":"bool","internalType":"bool"}],"stateMutability":"nonpayable"},{"type":"function","name":"oracle","inputs":[],"outputs":[{"name":"","type":"address","internalType":"address"}],"stateMutability":"nonpayable"},{"type":"function","name":"pauseGuardian","inputs":[],"outputs":[{"name":"","type":"address","internalType":"address"}],"stateMutability":"view"},{"type":"function","name":"redeemAllowed","inputs":[{"name":"cToken","type":"address","internalType":"address"},{"name":"redeemer","type":"address","internalType":"address"},{"name":"redeemTokens","type":"uint256","internalType":"uint256"}],"outputs":[{"name":"","type":"uint256","internalType":"uint256"}],"stateMutability":"nonpayable"},{"type":"function","name":"repayBorrowAllowed","inputs":[{"name":"cToken","type":"address","internalType":"address"},{"name":"payer","type":"address","internalType":"address"},{"name":"borrower","type":"address","internalType":"address"},{"name":"repayAmount","type":"uint256","internalType":"uint256"}],"outputs":[{"name":"","type":"uint256","internalType":"uint256"}],"stateMutability":"nonpayable"},{"type":"function","name":"reserveFactorMantissa","inputs":[],"outputs":[{"name":"","type":"uint256","internalType":"uint256"}],"stateMutability":"view"},{"type":"function","name":"seizeGuardianPaused","inputs":[],"outputs":[{"name":"","type":"bool","internalType":"bool"}],"stateMutability":"nonpayable"},{"type":"function","name":"transferGuardianPaused","inputs":[],"outputs":[{"name":"","type":"bool","internalType":"bool"}],"stateMutability":"nonpayable"},{"type":"function","name":"updateContributorRewards","inputs":[{"name":"contributor","type":"address","internalType":"address"}],"outputs":[],"stateMutability":"nonpayable"}],"bytecode":{"object":"0x6080604052348015600f57600080fd5b50610cca8061001f6000396000f3fe608060405234801561001057600080fd5b50600436106102d55760003560e01c8063741b252511610182578063b21be7fd116100e9578063e4028eee116100a2578063eabe7d911161007c578063eabe7d911461039f578063ede4edd0146103b6578063f4a433c0146103b6578063ff177193146102f757600080fd5b8063e4028eee1461050e578063e8755446146102f7578063e9af02921461038e57600080fd5b8063b21be7fd146104cc578063c2998238146104da578063c488847b146104f5578063ca0af043146104cc578063cc7ebdc4146103b6578063da3d454c1461039f57600080fd5b8063986ab8381161013b578063986ab838146103b6578063a76b3fda146103b6578063a8b4394814610491578063abfceffc146104a4578063ac0b0bb71461045d578063b0772d0b146104c557600080fd5b8063741b25251461038e5780637dc0d1d01461033357806387f763031461045d5780638c57804e146104245780638e8f294b146104645780638ebf63641461036c57600080fd5b80634ada90af116102415780635f5af1aa116101fa5780636aa875b5116101d45780636aa875b5146103b65780636b79c38d146104245780636d154ea51461044f578063731f0c2b1461044f57600080fd5b80635f5af1aa146103b65780635fc7e71e146103f7578063607ef6c11461041057600080fd5b80634ada90af146102f75780634ef4c3e11461039f5780634fd42e171461038057806355ee1fe1146103b6578063598ee1cb1461035a5780635ec88c79146103c457600080fd5b806324a3d6221161029357806324a3d6221461033357806327efe3cb1461035a5780632d70db781461036c578063317b0b7714610380578063391957d71461038e5780633bcf7ec11461030857600080fd5b80627e3dd2146102da578063173b9904146102f757806318c882a5146103085780631d504dc61461031e57806321af45691461033357806324008a6214610342575b600080fd5b6102e2600181565b60405190151581526020015b60405180910390f35b60005b6040519081526020016102ee565b6102e26103163660046106c8565b600092915050565b61033161032c3660046106fd565b61051c565b005b604051600081526020016102ee565b6102fa610350366004610721565b6000949350505050565b610331610368366004610772565b5050565b6102e261037a36600461079e565b50600090565b6102fa61037a3660046107b9565b61033161039c3660046106fd565b50565b6102fa6103ad3660046107d2565b60009392505050565b6102fa61037a3660046106fd565b6103dc6103d23660046106fd565b5060009081908190565b604080519384526020840192909252908201526060016102ee565b6102fa610405366004610813565b600095945050505050565b61033161041e3660046108c3565b50505050565b61043a6104323660046106fd565b600080915091565b604080519283526020830191909152016102ee565b6102e261037a3660046106fd565b60006102e2565b6104726103d23660046106fd565b60408051931515845260208401929092521515908201526060016102ee565b61033161049f366004610a0c565b505050565b6104b86104b23660046106fd565b50606090565b6040516102ee9190610b02565b60606104b8565b6102fa610316366004610b4e565b6104e86104b2366004610b87565b6040516102ee9190610c26565b61043a6105033660046107d2565b600080935093915050565b6102fa610316366004610772565b806001600160a01b031663f851a4406040518163ffffffff1660e01b81526004016020604051808303816000875af115801561055c573d6000803e3d6000fd5b505050506040513d601f19601f820116820180604052508101906105809190610c5e565b6001600160a01b0316336001600160a01b0316146105f55760405162461bcd60e51b815260206004820152602760248201527f6f6e6c7920756e6974726f6c6c65722061646d696e2063616e206368616e676560448201526620627261696e7360c81b60648201526084015b60405180910390fd5b806001600160a01b031663c1e803346040518163ffffffff1660e01b81526004016020604051808303816000875af1158015610635573d6000803e3d6000fd5b505050506040513d601f19601f820116820180604052508101906106599190610c7b565b1561039c5760405162461bcd60e51b815260206004820152601560248201527418da185b99d9481b9bdd08185d5d1a1bdc9a5e9959605a1b60448201526064016105ec565b6001600160a01b038116811461039c57600080fd5b803580151581146106c357600080fd5b919050565b600080604083850312156106db57600080fd5b82356106e68161069e565b91506106f4602084016106b3565b90509250929050565b60006020828403121561070f57600080fd5b813561071a8161069e565b9392505050565b6000806000806080858703121561073757600080fd5b84356107428161069e565b935060208501356107528161069e565b925060408501356107628161069e565b9396929550929360600135925050565b6000806040838503121561078557600080fd5b82356107908161069e565b946020939093013593505050565b6000602082840312156107b057600080fd5b61071a826106b3565b6000602082840312156107cb57600080fd5b5035919050565b6000806000606084860312156107e757600080fd5b83356107f28161069e565b925060208401356108028161069e565b929592945050506040919091013590565b600080600080600060a0868803121561082b57600080fd5b85356108368161069e565b945060208601356108468161069e565b935060408601356108568161069e565b925060608601356108668161069e565b949793965091946080013592915050565b60008083601f84011261088957600080fd5b50813567ffffffffffffffff8111156108a157600080fd5b6020830191508360208260051b85010111156108bc57600080fd5b9250929050565b600080600080604085870312156108d957600080fd5b843567ffffffffffffffff8111156108f057600080fd5b6108fc87828801610877565b909550935050602085013567ffffffffffffffff81111561091c57600080fd5b61092887828801610877565b95989497509550505050565b634e487b7160e01b600052604160045260246000fd5b604051601f8201601f1916810167ffffffffffffffff8111828210171561097357610973610934565b604052919050565b600067ffffffffffffffff82111561099557610995610934565b5060051b60200190565b600082601f8301126109b057600080fd5b81356109c36109be8261097b565b61094a565b8082825260208201915060208360051b8601019250858311156109e557600080fd5b602085015b83811015610a025780358352602092830192016109ea565b5095945050505050565b600080600060608486031215610a2157600080fd5b833567ffffffffffffffff811115610a3857600080fd5b8401601f81018613610a4957600080fd5b8035610a576109be8261097b565b8082825260208201915060208360051b850101925088831115610a7957600080fd5b6020840193505b82841015610aa4578335610a938161069e565b825260209384019390910190610a80565b9550505050602084013567ffffffffffffffff811115610ac357600080fd5b610acf8682870161099f565b925050604084013567ffffffffffffffff811115610aec57600080fd5b610af88682870161099f565b9150509250925092565b602080825282518282018190526000918401906040840190835b81811015610b435783516001600160a01b0316835260209384019390920191600101610b1c565b509095945050505050565b60008060408385031215610b6157600080fd5b8235610b6c8161069e565b91506020830135610b7c8161069e565b809150509250929050565b600060208284031215610b9957600080fd5b813567ffffffffffffffff811115610bb057600080fd5b8201601f81018413610bc157600080fd5b8035610bcf6109be8261097b565b8082825260208201915060208360051b850101925086831115610bf157600080fd5b6020840193505b82841015610c1c578335610c0b8161069e565b825260209384019390910190610bf8565b9695505050505050565b602080825282518282018190526000918401906040840190835b81811015610b43578351835260209384019390920191600101610c40565b600060208284031215610c7057600080fd5b815161071a8161069e565b600060208284031215610c8d57600080fd5b505191905056fea26469706673582212209025a1e6fb0b76ca4e1039a54ed0b4c3963dcb3a689065597a98eb530fe4c3e364736f6c634300081a0033","linkReferences":{}},"methodIdentifiers":{"_become(address)":"1d504dc6","_grantComp(address,uint256)":"27efe3cb","_setBorrowCapGuardian(address)":"391957d7","_setBorrowPaused(address,bool)":"18c882a5","_setCloseFactor(uint256)":"317b0b77","_setCollateralFactor(address,uint256)":"e4028eee","_setCompSpeeds(address[],uint256[],uint256[])":"a8b43948","_setContributorCompSpeed(address,uint256)":"598ee1cb","_setLiquidationIncentive(uint256)":"4fd42e17","_setMarketBorrowCaps(address[],uint256[])":"607ef6c1","_setMintPaused(address,bool)":"3bcf7ec1","_setPauseGuardian(address)":"5f5af1aa","_setPriceOracle(address)":"55ee1fe1","_setSeizePaused(bool)":"2d70db78","_setTransferPaused(bool)":"8ebf6364","_supportMarket(address)":"a76b3fda","accuralBlockNubmer()":"ff177193","borrowAllowed(address,address,uint256)":"da3d454c","borrowCapGuardian()":"21af4569","borrowGuardianPaused(address)":"6d154ea5","claimComp(address)":"e9af0292","closeFactorMantissa()":"e8755446","compAccrued(address)":"cc7ebdc4","compBorrowSpeeds(address)":"f4a433c0","compBorrowState(address)":"8c57804e","compBorrowerIndex(address,address)":"ca0af043","compContributorSpeeds(address)":"986ab838","compSupplierIndex(address,address)":"b21be7fd","compSupplySpeeds(address)":"6aa875b5","compSupplyState(address)":"6b79c38d","enterMarkets(address[])":"c2998238","exitMarket(address)":"ede4edd0","getAccountLiquidity(address)":"5ec88c79","getAllMarkets()":"b0772d0b","getAssetsIn(address)":"abfceffc","isComptroller()":"007e3dd2","liquidateBorrowAllowed(address,address,address,address,uint256)":"5fc7e71e","liquidateCalculateSeizeTokens(address,address,uint256)":"c488847b","liquidationIncentiveMantissa()":"4ada90af","markets(address)":"8e8f294b","mintAllowed(address,address,uint256)":"4ef4c3e1","mintGuardianPaused(address)":"731f0c2b","oracle()":"7dc0d1d0","pauseGuardian()":"24a3d622","redeemAllowed(address,address,uint256)":"eabe7d91","repayBorrowAllowed(address,address,address,uint256)":"24008a62","reserveFactorMantissa()":"173b9904","seizeGuardianPaused()":"ac0b0bb7","transferGuardianPaused()":"87f76303","updateContributorRewards(address)":"741b2525"},"id":25}