{"abi":[{"type":"function","name":"_acceptAdmin","inputs":[],"outputs":[{"name":"","type":"uint256","internalType":"uint256"}],"stateMutability":"nonpayable"},{"type":"function","name":"_addReserves","inputs":[{"name":"addAmount","type":"uint256","internalType":"uint256"}],"outputs":[{"name":"","type":"uint256","internalType":"uint256"}],"stateMutability":"nonpayable"},{"type":"function","name":"_addReserves","inputs":[],"outputs":[{"name":"","type":"uint256","internalType":"uint256"}],"stateMutability":"payable"},{"type":"function","name":"_becomeImplementation","inputs":[{"name":"data","type":"bytes","internalType":"bytes"}],"outputs":[],"stateMutability":"nonpayable"},{"type":"function","name":"_reduceReserves","inputs":[{"name":"reduceAmount","type":"uint256","internalType":"uint256"}],"outputs":[{"name":"","type":"uint256","internalType":"uint256"}],"stateMutability":"nonpayable"},{"type":"function","name":"_resignImplementation","inputs":[],"outputs":[],"stateMutability":"nonpayable"},{"type":"function","name":"_setComptroller","inputs":[{"name":"newComptroller","type":"address","internalType":"contract ComptrollerInterface"}],"outputs":[{"name":"","type":"uint256","internalType":"uint256"}],"stateMutability":"nonpayable"},{"type":"function","name":"_setImplementation","inputs":[{"name":"implementation_","type":"address","internalType":"address"},{"name":"allowResign","type":"bool","internalType":"bool"},{"name":"becomeImplementationData","type":"bytes","internalType":"bytes"}],"outputs":[],"stateMutability":"nonpayable"},{"type":"function","name":"_setInterestRateModel","inputs":[{"name":"newInterestRateModel","type":"address","internalType":"contract InterestRateModel"}],"outputs":[{"name":"","type":"uint256","internalType":"uint256"}],"stateMutability":"nonpayable"},{"type":"function","name":"_setPendingAdmin","inputs":[{"name":"newPendingAdmin","type":"address","internalType":"address payable"}],"outputs":[{"name":"","type":"uint256","internalType":"uint256"}],"stateMutability":"nonpayable"},{"type":"function","name":"_setReserveFactor","inputs":[{"name":"newReserveFactorMantissa","type":"uint256","internalType":"uint256"}],"outputs":[{"name":"","type":"uint256","internalType":"uint256"}],"stateMutability":"nonpayable"},{"type":"function","name":"accrueInterest","inputs":[],"outputs":[{"name":"","type":"uint256","internalType":"uint256"}],"stateMutability":"nonpayable"},{"type":"function","name":"admin","inputs":[],"outputs":[{"name":"","type":"address","internalType":"address payable"}],"stateMutability":"nonpayable"},{"type":"function","name":"balanceOf","inputs":[{"name":"owner","type":"address","internalType":"address"}],"outputs":[{"name":"","type":"uint256","internalType":"uint256"}],"stateMutability":"view"},{"type":"function","name":"balanceOfUnderlying","inputs":[{"name":"owner","type":"address","internalType":"address"}],"outputs":[{"name":"","type":"uint256","internalType":"uint256"}],"stateMutability":"nonpayable"},{"type":"function","name":"borrow","inputs":[{"name":"borrowAmount","type":"uint256","internalType":"uint256"}],"outputs":[{"name":"","type":"uint256","internalType":"uint256"}],"stateMutability":"nonpayable"},{"type":"function","name":"borrowBalanceCurrent","inputs":[{"name":"account","type":"address","internalType":"address"}],"outputs":[{"name":"","type":"uint256","internalType":"uint256"}],"stateMutability":"nonpayable"},{"type":"function","name":"borrowIndex","inputs":[],"outputs":[{"name":"","type":"uint256","internalType":"uint256"}],"stateMutability":"nonpayable"},{"type":"function","name":"comptroller","inputs":[],"outputs":[{"name":"","type":"address","internalType":"address"}],"stateMutability":"nonpayable"},{"type":"function","name":"decimals","inputs":[],"outputs":[{"name":"","type":"uint256","internalType":"uint256"}],"stateMutability":"view"},{"type":"function","name":"exchangeRateCurrent","inputs":[],"outputs":[{"name":"","type":"uint256","internalType":"uint256"}],"stateMutability":"nonpayable"},{"type":"function","name":"getCash","inputs":[],"outputs":[{"name":"","type":"uint256","internalType":"uint256"}],"stateMutability":"view"},{"type":"function","name":"implementation","inputs":[],"outputs":[{"name":"","type":"address","internalType":"address"}],"stateMutability":"nonpayable"},{"type":"function","name":"interestRateModel","inputs":[],"outputs":[{"name":"","type":"address","internalType":"address"}],"stateMutability":"nonpayable"},{"type":"function","name":"isCToken","inputs":[],"outputs":[{"name":"","type":"bool","internalType":"bool"}],"stateMutability":"view"},{"type":"function","name":"liquidateBorrow","inputs":[{"name":"borrower","type":"address","internalType":"address"},{"name":"repayAmount","type":"uint256","internalType":"uint256"},{"name":"cTokenCollateral","type":"address","internalType":"contract CTokenInterface"}],"outputs":[{"name":"","type":"uint256","internalType":"uint256"}],"stateMutability":"nonpayable"},{"type":"function","name":"mint","inputs":[],"outputs":[],"stateMutability":"payable"},{"type":"function","name":"mint","inputs":[{"name":"amount","type":"uint256","internalType":"uint256"}],"outputs":[{"name":"","type":"uint256","internalType":"uint256"}],"stateMutability":"nonpayable"},{"type":"function","name":"pendingAdmin","inputs":[],"outputs":[{"name":"","type":"address","internalType":"address payable"}],"stateMutability":"nonpayable"},{"type":"function","name":"redeem","inputs":[{"name":"redeemTokens","type":"uint256","internalType":"uint256"}],"outputs":[{"name":"","type":"uint256","internalType":"uint256"}],"stateMutability":"nonpayable"},{"type":"function","name":"redeemUnderlying","inputs":[{"name":"redeemAmount","type":"uint256","internalType":"uint256"}],"outputs":[{"name":"","type":"uint256","internalType":"uint256"}],"stateMutability":"nonpayable"},{"type":"function","name":"repayBorrow","inputs":[{"name":"amount","type":"uint256","internalType":"uint256"}],"outputs":[],"stateMutability":"nonpayable"},{"type":"function","name":"repayBorrowBehalf","inputs":[{"name":"borrower","type":"address","internalType":"address"},{"name":"amount","type":"uint256","internalType":"uint256"}],"outputs":[],"stateMutability":"nonpayable"},{"type":"function","name":"repayBorrowBehalf","inputs":[{"name":"borrower","type":"address","internalType":"address"}],"outputs":[],"stateMutability":"payable"},{"type":"function","name":"reserveFactorMantissa","inputs":[],"outputs":[{"name":"","type":"uint256","internalType":"uint256"}],"stateMutability":"nonpayable"},{"type":"function","name":"supplyRatePerBlock","inputs":[],"outputs":[{"name":"","type":"uint256","internalType":"uint256"}],"stateMutability":"view"},{"type":"function","name":"sweepToken","inputs":[{"name":"token","type":"address","internalType":"contract ERC20Interface"}],"outputs":[],"stateMutability":"nonpayable"},{"type":"function","name":"totalBorrowsCurrent","inputs":[],"outputs":[{"name":"","type":"uint256","internalType":"uint256"}],"stateMutability":"nonpayable"},{"type":"function","name":"totalReserves","inputs":[],"outputs":[{"name":"","type":"uint256","internalType":"uint256"}],"stateMutability":"view"},{"type":"function","name":"totalSupply","inputs":[],"outputs":[{"name":"","type":"uint256","internalType":"uint256"}],"stateMutability":"view"},{"type":"function","name":"transfer","inputs":[{"name":"dst","type":"address","internalType":"address"},{"name":"amount","type":"uint256","internalType":"uint256"}],"outputs":[{"name":"","type":"bool","internalType":"bool"}],"stateMutability":"nonpayable"},{"type":"function","name":"underlying","inputs":[],"outputs":[{"name":"","type":"address","internalType":"address"}],"stateMutability":"nonpayable"}],"bytecode":{"object":"0x6080604052348015600f57600080fd5b506106328061001f6000396000f3fe6080604052600436106102515760003560e01c806373acee9811610139578063c5ebeaec116100b6578063f3fdb15a1161007a578063f3fdb15a14610300578063f5e3c462146103b3578063f851a44014610300578063fca7820b1461031c578063fcb64147146103d7578063fe9c44ae146103de57600080fd5b8063c5ebeaec1461031c578063db006a751461031c578063e5974619146103a5578063e9c714f214610282578063f2b3abbd146102a557600080fd5b8063a9059cbb116100fd578063a9059cbb14610372578063aa5af0fd14610282578063ae9d70b014610282578063b71d1a0c146102a5578063bd6d894d1461028257600080fd5b806373acee9814610282578063852a12e31461031c5780638f840ddd14610282578063a0712d681461031c578063a6afed951461028257600080fd5b80633af9e669116101d257806356e677281161019657806356e67728146103575780635c60da1b146103005780635fe3b56714610300578063601a0bf11461031c5780636f307dc31461030057806370a08231146102a557600080fd5b80633af9e669146102a55780633b1d21a2146102825780633e9410101461031c5780634576b5db146102a5578063555bcc401461033757600080fd5b806318160ddd1161021957806318160ddd146102825780631be19560146102c65780632608f818146102e15780632678224714610300578063313ce5671461028257600080fd5b80630e752702146102565780631249c58b14610274578063153ab50514610276578063173b99041461028257806317bfdfbc146102a5575b600080fd5b34801561026257600080fd5b506102746102713660046103f3565b50565b005b34801561027457600080fd5b34801561028e57600080fd5b5060005b6040519081526020015b60405180910390f35b3480156102b157600080fd5b506102926102c0366004610421565b50600090565b3480156102d257600080fd5b50610274610271366004610421565b3480156102ed57600080fd5b506102746102fc366004610445565b5050565b34801561030c57600080fd5b506040516000815260200161029c565b34801561032857600080fd5b506102926102c03660046103f3565b34801561034357600080fd5b50610274610352366004610516565b505050565b34801561036357600080fd5b5061027461027136600461057d565b34801561037e57600080fd5b5061039561038d366004610445565b600092915050565b604051901515815260200161029c565b610274610271366004610421565b3480156103bf57600080fd5b506102926103ce3660046105ba565b60009392505050565b6000610292565b3480156103ea57600080fd5b50610395600181565b60006020828403121561040557600080fd5b5035919050565b6001600160a01b038116811461027157600080fd5b60006020828403121561043357600080fd5b813561043e8161040c565b9392505050565b6000806040838503121561045857600080fd5b82356104638161040c565b946020939093013593505050565b634e487b7160e01b600052604160045260246000fd5b600082601f83011261049857600080fd5b813567ffffffffffffffff8111156104b2576104b2610471565b604051601f8201601f19908116603f0116810167ffffffffffffffff811182821017156104e1576104e1610471565b6040528181528382016020018510156104f957600080fd5b816020850160208301376000918101602001919091529392505050565b60008060006060848603121561052b57600080fd5b83356105368161040c565b92506020840135801515811461054b57600080fd5b9150604084013567ffffffffffffffff81111561056757600080fd5b61057386828701610487565b9150509250925092565b60006020828403121561058f57600080fd5b813567ffffffffffffffff8111156105a657600080fd5b6105b284828501610487565b949350505050565b6000806000606084860312156105cf57600080fd5b83356105da8161040c565b92506020840135915060408401356105f18161040c565b80915050925092509256fea264697066735822122042abb133900e48644792dd56104c6206edf11fd28d26c4f1dc172a258c3ea41464736f6c634300081a0033","linkReferences":{}},"methodIdentifiers":{"_acceptAdmin()":"e9c714f2","_addReserves()":"fcb64147","_addReserves(uint256)":"3e941010","_becomeImplementation(bytes)":"56e67728","_reduceReserves(uint256)":"601a0bf1","_resignImplementation()":"153ab505","_setComptroller(address)":"4576b5db","_setImplementation(address,bool,bytes)":"555bcc40","_setInterestRateModel(address)":"f2b3abbd","_setPendingAdmin(address)":"b71d1a0c","_setReserveFactor(uint256)":"fca7820b","accrueInterest()":"a6afed95","admin()":"f851a440","balanceOf(address)":"70a08231","balanceOfUnderlying(address)":"3af9e669","borrow(uint256)":"c5ebeaec","borrowBalanceCurrent(address)":"17bfdfbc","borrowIndex()":"aa5af0fd","comptroller()":"5fe3b567","decimals()":"313ce567","exchangeRateCurrent()":"bd6d894d","getCash()":"3b1d21a2","implementation()":"5c60da1b","interestRateModel()":"f3fdb15a","isCToken()":"fe9c44ae","liquidateBorrow(address,uint256,address)":"f5e3c462","mint()":"1249c58b","mint(uint256)":"a0712d68","pendingAdmin()":"26782247","redeem(uint256)":"db006a75","redeemUnderlying(uint256)":"852a12e3","repayBorrow(uint256)":"0e752702","repayBorrowBehalf(address)":"e5974619","repayBorrowBehalf(address,uint256)":"2608f818","reserveFactorMantissa()":"173b9904","supplyRatePerBlock()":"ae9d70b0","sweepToken(address)":"1be19560","totalBorrowsCurrent()":"73acee98","totalReserves()":"8f840ddd","totalSupply()":"18160ddd","transfer(address,uint256)":"a9059cbb","underlying()":"6f307dc3"},"id":25}